:020000040020DA
:1000000000800020F9002000252620002526200061
:100010002526200025262000252620002526200034
:100020002526200025262000252620002526200024
:100030002526200025262000252620002526200014
:100040002526200025262000252620002526200004
:1000500025262000252620002526200025262000F4
:1000600025262000252620002526200025262000E4
:1000700025262000252620002526200025262000D4
:1000800025262000252620002526200025262000C4
:1000900025262000252620002526200025262000B4
:1000A00025262000252620002526200025262000A4
:1000B0002526200025262000252620002526200094
:1000C0002526200025262000252620002526200084
:1000D0002526200025262000252620002526200074
:1000E0002526200025262000252620002526200064
:1000F0002526200025262000002020210906074A69
:10010000086004319142FBDB00F00AF800F02AFCA1
:1001100001B402F0F5FB00F057FE0000C80A002011
:1001200010B5074C54F8043CB3F1FF3F06D0043C33
:10013000984754F8043DB3F1FF3FF9D110BD00BF1B
:04014000A0292000D2
:1001440000B500F08DFF00BD704700BF40F21803FA
:10015400C2F200030A204FF0FF31002259601860F8
:100164001A7240F20C03C2F20003596018601A724A
:10017400704700BF704700BF2DE9F04FADF58B6DA0
:100184000AA8043001900C9A002402F07F420C92D9
:100194000D9A8DF82E4002F07F420D920AAA02F5C4
:1001A400836140F2A4028DF82F408DF833408DF81E
:1001B4003740DFF89C37DFF89CC7C2F200021068B2
:1001C4000A93CDF840C40368ADF82C40CDF8384408
:1001D400CDF84414ADF84844CDF84C44CDF854441B
:1001E4001B6841F21002CDF85004984741F20C0309
:1001F400C4F203031A6841F21C0522F001021A60DA
:1002040042F20802C4F20D021168C4F2030541F07F
:100214000201116044F25402C4F20D020F21116074
:1002240044F2D402C4F20D02082111604BF22042C0
:10023400C4F20D02116841F02001116041F2000284
:10024400C4F20302146041F20402C4F20302012165
:10025400116041F2280244F60001C4F20302C0F224
:10026400E811116041F22402C4F203024FF0FF319D
:1002740011601A680AAC42F00102271D1A60059742
:1002840004F10B062B68002B40F0A4802368204661
:100294001B68394698470028F4D00AAB0022197924
:1002A40001335218B342D2B2F9D153429DF83710F8
:1002B400DBB29942E6D1BDF82C30002BE2D19DF897
:1002C4002E30772BDED0612B14BF00220122682B45
:1002D40008BF42F001021AB9482B01D0652BD1D1D5
:1002E4009DF82F200C9952EA0121CBD19DF833209F
:1002F4000D9952EA0122C5D1682BC3D141F20C03F6
:10030400C4F20303196821F0010119604FF00103DD
:10031400ADF82C3048238DF82E3013460598C15C77
:10032400013352180B2BD2B2F8D10AA9524251F818
:10033400043B8DF837205B680AA89847DFF81876E5
:1003440002240A9B0AA81B68019998470028F8D040
:10035400002205981346C15C013352180B2BD2B20C
:10036400F9D153429DF83710DBB29942E9D1BDF877
:100374002C108C420991E4D19DF82E30772B18D0A3
:10038400612B14BF00220122682B08BF42F0010236
:100394001AB9482B01D0652BD3D19DF82F300C9A74
:1003A40053EA0222CDD19DF833300D9A53EA02224A
:1003B400C7D10AA951F8043B0AA85B6898479DF87D
:1003C4002E30652B00F08980772B51D00998441C7E
:1003D400A4B2B6E741F20C03C4F203031A6822F094
:1003E40001021A600023DFF87425CDF8503444F27A
:1003F4000403C0F22003CDF840241A6844F2080331
:10040400C0F22003DFF8481518684FF401130A916D
:10041400A2F501121968984234BF00230123B2F5F2
:10042400F72F2CBF002303F00103002B3FF4ABAEE6
:100434004FF2FF7240F20303C0F22702C2F200033C
:1004440090428CBF00220122994294BF002302F003
:100454000103002B3FF497AE48F20003C2F20003FD
:1004640099423FF690AE16B00DF5806DBDE8F08F61
:100474009DF82F300C9A43EA0222A2F50113B3F53A
:10048400F72FA3D2DDF83834FF2B00F25481002B70
:1004940000F04D81DDF83C148A4200F03581DDF82E
:1004A4003834002B40F047819DF82F300C9ADDF84A
:1004B40034C043EA0222DDF838349DF83300191DB4
:1004C400013340EA0C20CDF838340DF1280C131D0B
:1004D4004CF82100CDF83C3478E7DDF83824002AC4
:1004E40080D0DDF83C34A3EB820207930092A2F59E
:1004F4000013079ADB0A0293A2F50013013B02984A
:10050400DB0A9842069300F2FB8000F58063013316
:10051400DB02DFF84474049300F50063FB1800F574
:10052400806B03934FEACB2B0DF1380A4FF0480848
:100534000798049A009BDDF80CC0904228BF10462F
:10054400C61A02999CF800300131B608072B0291B3
:1005540069D8002E00F0CA800099DAF800300A68E1
:1005640003EA020293425ED100238C4607E05AF864
:1005740023205CF8231002EA01018A4253D101339B
:100584009E42F4D84FEA8609D8F8103050464A46BD
:100594000099984700235546CDF814B0009CCB46EB
:1005A400D1469A460CE000984FEA8A052C184D442F
:1005B400CAEB0602D8F81030920028462146984724
:1005C40023682A689342EED10AF1010C00984FEA9D
:1005D4008C0214184A446645E24618D8CA46D946DD
:1005E400DDF814B00399049A0B780298013301F8EA
:1005F400013B069B02F500628342039104920BF5D2
:10060400006B7DD30099CA444944009190E7234686
:1006140053F8040B154652F8041B8842C8D11C46F3
:100624000CF1010CD7E7009A0499BBEB020318BF45
:10063400012381420CBF184643F0010038B1002366
:1006440053F80B20FA500433B3F5006FF8D1039B31
:100654004FF000021A70D8F80C3058460121984720
:100664000098CBEB00029208002E47D007EB8202E1
:100674004FEA860900235AF8031004334B4542F825
:10068400041BF8D1D8F81030B34859464FF400622F
:10069400002598475C462E4607E0C5F50072D8F859
:1006A4001030B819920021469847226857F825302F
:1006B4009A4218BF0BEB0604EFD140F2AC02691C5E
:1006C400C2F200020BEB8104961940F2FF13994227
:1006D4000D4687D8234653F8040B56F8042F90424E
:1006E40001D0AE00D9E71C460131EEE7D8F810304E
:1006F4005046009932469847B14673E7B146C1E780
:100704000023CDF838346DE61A1D01339DF83310FB
:100714000D98CDF83834DDF83C3441EA00210DF170
:10072400280C04334CF82210CDF83C344EE6CDF8B6
:100734003C241146B0E6DDF83C24A2EB830300938D
:10074400A3F50013DB0A0293A2F50013013B029800
:10075400DB0A98420892079300F2F68000F5806362
:100764000133DB02049300F50063FB1800F5806B92
:1007740003934FEACB2B0DF1380A4FF04808089841
:10078400049A009BDDF80CC0904228BF1046C61A9C
:1007940002999CF800300131B608072B02916BD8FE
:1007A400002E00F0C9800099DAF800300A6803EAE4
:1007B4000202934260D100238C4607E05AF82320BA
:1007C4005CF8231002EA01018A4255D101339E42AA
:1007D400F4D84FEA8609D8F8103050464A460099B2
:1007E400984700235546CDF81890009CD1469A4668
:1007F4000DE000994FEA8A0409EB04056418CAEB7A
:100804000602D8F8103092002846214698472368FB
:100814002A689342EDD10AF1010C009B4FEA8C0245
:10082400D4184A446645E2461AD8CA46DDF81890F8
:10083400DDF80CC004989CF800300799029A013343
:100844000CF8013B00F500609142CDF80CC0049017
:100854000BF5006B78D3009BCA444B4400938EE79E
:10086400234653F8040B154652F8041B8842C6D19C
:100874001C460CF1010CD5E7009A0499B2EB0B036A
:1008840018BF0123814218BF43F001033BB1002389
:1008940053F80B20FA500433B3F5006FF8D1039BDF
:1008A4004FF000021A70D8F80C30584601219847CE
:1008B4000098CBEB00029208002E3BD007EB82029B
:1008C4004FEA860900235AF8031004334B4542F8D3
:1008D400041BF8D1D8F810301F4859464FF4006271
:1008E400002598475C462E4607E0C5F50072D8F807
:1008F4001030B819920021469847226857F82530DD
:100904009A4218BF0BEB0604EFD1691C0BEB810470
:10091400BE1940F2FF1291420D4689D8234653F87E
:10092400040B56F8042F904201D0AE00DDE71C46BC
:100934000131EEE7B146CDE7D8F8103050460099C2
:1009440032469847B14673E70023CDF83834ABE517
:100954003029200044292000AC0000205029200028
:1009640000B5FFF709FC01F0C9FF72B62A224FF067
:1009740000531A604FF401131B689D46BFF36F8F39
:1009840044F20403C0F220031B689847002000BD12
:10099400A0F11800A0F5806000E000BFD3F8982013
:1009A40000B50C2A08BFC0F82C3404D0D0F82804B1
:1009B400194601F0D1FC00BD00B54FF0FF3283B001
:1009C4008DF808208DF8092041F21002ADF80620B8
:1009D4000C220B46D0F8280402A900920DF106025D
:1009E40001F07CFD03B000BD10B50446D4F82C34EE
:1009F400084663B103F10C010C2200F0EBF9D4F8C2
:100A04002804D4F82C1401F0A7FC012010BD1846CA
:100A1400FCE700BF30B500F029FAAD494B68002B64
:100A240000F04A815A6843F20F00824209D8B2F5B5
:100A3400405F06D0DB68002B00F03E815A6882429A
:100A4400F5D9A2F540525A60CA68A148A2F54052AD
:100A5400CA605A6892B90468012C00F0E080996871
:100A6400002900F00F81DD68002D00F01981CD60B0
:100A7400DA6891600268013A02605A681968DFF81E
:100A840054C200238C18CCF80030CCF80430CCF8D5
:100A94000830CCF80C304BD04FF440508C50606090
:100AA400A360E360DCF80C301B18CCF80C30DCF8E5
:100AB400043051F802E06068002B00F094801D6857
:100AC4007044A8420CBF1A461A4604D0D26812B128
:100AD40011688842FAD159686D18AE4507D0DB68B1
:100AE400002B7FD01868596841188E45F7D11946F4
:100AF4001346C3B160685A6882186260DCF800006B
:100B0400012800F084809A68002A00F08D80DD6856
:100B1400002D00F09880D560DB689A60DCF8003026
:100B2400013BCCF8003019B14A686368D3184B60B4
:100B3400694BC3F800C000F063FA00F08DFA45F287
:100B44004003C4F20D031A6845F24403C4F20D03D2
:100B5400186845F24803C4F20D03196845F24C03C2
:100B64000904C4F20D031B6801EB0021891801EB91
:100B740003615A4B1B78002B45D0594B1B68C9188D
:100B8400584B1B681A7D002A40F088805A7D003A31
:100B940018BF012244F66D63C4F2C61303FB01F1CE
:100BA40001F540513931B1F1FF3F28BF01314A40CD
:100BB40003FB02F24C4902F5405239320878B2F193
:100BC400FF3F28BF0132424003FB02F303F54053C9
:100BD4004A783933B3F1FF3F28BF01335340434AC6
:100BE400136030BD1346DCF8001000293AD1A1602F
:100BF400E160DCF80020CCF804400132CCF8084075
:100C0400CCF8002075E7364B1B68C91AB8E70023F7
:100C1400CCF80430CCF80830CCF8003083E74260DC
:100C2400826002605A6829E700283FF47CAFDCF850
:100C34000430DB68CCF804309A60DCF80030013B07
:100C4400CCF800306FE700283FF46DAFDCF80830D3
:100C54009B68CCF80830DD60DCF80030013BCCF850
:100C6400003060E7DCF808200021D460DCF80820BC
:100C7400E160A260DCF80020CCF808400132CCF836
:100C8400002036E7002C3FF4F9AE4168C9684160A2
:100C94008A600268013A02605A68EFE6012279E745
:100CA400002C3FF4EBAE816889688160CA600268F9
:100CB400013A02605A68E1E6DFF818C00023CCF874
:100CC4000030CCF80430CCF80830CCF80C302FE7E6
:100CD400B80A00203C0000204C00002059000020ED
:100CE40054000020A40000205429200050000020BB
:100CF40010B54CF2000340F29804C2F20004C4F2AE
:100D04000003236000F048F942F22803C4F20D0303
:100D14001A68082142F001021A6044F20402002316
:100D2400C4F20D02136044F28402C4F20D02116095
:100D340044F28002C4F20D02136044F20012C4F2C1
:100D44000D02136049F22042C4F20D021168112011
:100D540041F0030111602268116B21F0010111635C
:100D640022684FF0FF315164226893632268506215
:100D740022680520906222687020D0622068026B8D
:100D840042F4407242F00102026322683020906310
:100D940040F2A002C2F20002136040F29C02C2F2CE
:100DA4000002136040F23002C2F200020A205160D5
:100DB4001060137240F22402C2F20002106051600B
:100DC400137210BD704700BF704700BF00B501F03B
:100DD4004FFC00BD0F2A30B405460C4642D941EA07
:100DE400000313F0030F02BF14468C46034609D0D8
:100DF400002314F803C005F803C001339A42F8D164
:100E040030BC7047DCF80050103C1D60DCF8045026
:100E14005D60DCF808509D60DCF80C500CF1100C9F
:100E2400DD6010330F2CEDD8A2F1100404F00F0292
:100E340024F00F04103405190C19032A12D90023C5
:100E440054F803C045F803C00433C3EB020CBCF1EF
:100E5400030FF5D8043A22F003030433ED18E41821
:100E640002F00302002AC3D1CAE700BF00B500F0B4
:100E740001F800BDDFF818C170B4CCF1005202F5DE
:100E8400E042002A4AD00023424DCCF800C0CCF8FE
:100E94000420CCF80830CCF80C30EB686446D31846
:100EA400EB606B68002B3CD01E680CEB8200B042F8
:100EB4000CBF1A461A4604D0D26812B1116888428F
:100EC400FAD1596806EB8106B44208D0DB68002BDE
:100ED40026D05868196801EB80018C42F6D1194676
:100EE4001346ABB1DCF804005A688218CCF804202D
:100EF4002C68284A012C23D09868002825D0DD6866
:100F0400002D3AD0C560DB6898601368013B13601C
:100F140021B14A68DCF80430D3184B6070BC7047C8
:100F240013462A681B48D2B90121CCF80820CCF812
:100F34000C200160C0F804C0C0F808C01146D0E716
:100F44000023536093601360E2E7002CE0D0536801
:100F5400DB68536098601368013B1360D8E78168CD
:100F64000132C1F80CC08168CCF808100021CCF81B
:100F74000C10C0F808C00260B3E7002CC8D0936816
:100F84009B689360DD601368013B1360C0E700BF9A
:100F9400C80A0020B80A002012490B7803BB42F2A9
:100FA4000003C4F20D031A6842F400121A601868B0
:100FB4004FF6F872CFF6FE6200EA02021A6042F2BD
:100FC4000402C4F20D02136813F4803FFBD142F211
:100FD4000003C4F20D031A681A681A6001230B7027
:100FE400704700BF5800002000B5FFF7D5FF42F25C
:100FF4009803C4F20D031A6842F001021A6000BD9E
:1010040000B5FFF7F1FF00F067FA00F003F800F015
:1010140085FA00BD4EF210034EF21802CEF2000320
:101024000021CEF20002196011604EF21402CEF2D9
:1010340000024FF4FA41116006221A6042F2317143
:1010440040F6AC12C2F20002C0F22001D1631A6869
:1010540042F001021A60704700B500F0E7FC00BDE1
:101064002DE9F04186B0DFF84C54286843683BB161
:101074005A68272A08D8182A06D0DB68002BF7D12B
:1010840001F038FC00231EE0183A5A60C268183A8E
:10109400C2605A6892B90468012C00F0748199689E
:1010A400002900F08C81DE68002E00F0AD81CE6056
:1010B400DA6891600268013A02605A681968182077
:1010C4008B188850043301211972FB4900221A60DD
:1010D40019610A22F9495A600868002800F06C81F5
:1010E400DA60F74A136000230593059B286801938F
:1010F40043683BB15A683B2A08D82C2A06D0DB68DF
:10110400002BF7D101F0F6FB00241EE02C3A5A60C4
:10111400C2682C3AC2605A6892B90468012C00F083
:1011240037819968002900F05681DE68002E00F0AE
:101134007781CE60DA6891600268013A02605A6889
:101144001B682C219C1899500434DE4F3B68A46121
:1011540023600023E36023616361019A2362E261F7
:10116400636272B628684368002B00F0FB805A68FB
:1011740041F213018A4240F2EE80A2F58052043A11
:101184005A60C268A2F58052043AC2605A68AAB989
:101194000668012E00F00B819968002900F0658132
:1011A400D3F80CC0BCF1000F00F07781C1F80CC07B
:1011B400DA6891600268013A02605A681B6841F279
:1011C4000400991898500A1D02F57C636260BE4AB7
:1011D4004FF08071BD4E196042F00101D96346F0B1
:1011E400010606A99E632046A36041F80C2D4FF426
:1011F400805200F043FE6FF000430493049B286880
:10120400009343683BB15A683B2A09D82C2A07D07B
:10121400DB68002BF7D101F06DFB4FF0000825E0EF
:101224002C3A5A60C2682C3AC2605A68BAB9D0F8EB
:1012340000C0BCF1010F00F0B0809968002900F0F3
:10124400D680D3F80CE0BEF1000F00F0F580C1F8B1
:101254000CE0DA6891600268013A02605A681B681F
:101264002C2103EB0208995008F104083B68C8F8E4
:101274001880C8F800300123C8F80C300023C8F8DF
:101284001430C8F81030009AC8F82030C8F81C2070
:10129400C8F8243072B628684368002B4CD05A68CA
:1012A40041F213018A4241D9A2F58052043A5A60AC
:1012B400C268A2F58052043AC2605A688AB90568C5
:1012C400012D6FD09968002900F0C380DF68002FDA
:1012D40000F0D780CF60DA6891600268013A02605A
:1012E4005A681B6841F20400991898500A1D02F5C7
:1012F4007C63C8F80420764A4FF08071196042F08C
:101304000101D96306A99E634046C8F8083041F834
:10131400102D4FF4805200F0B1FD6E4B01221A7073
:10132400A06801F027FA06B0BDE8F08141F2040C90
:101334006245B9D0DB6853B901F0DCFA4FF47C6341
:101344000022D6E76245AFD0DB68002BF4D05A68A0
:101354008A42A9D8F6E741F2040C62453FF40DAF86
:10136400DB685BB901F0C6FA4FF47C6300222DE719
:1013740062453FF402AFDB68002BF3D05A688A421F
:101384003FF6FBAEF4E74260826002605A6895E67D
:101394004260826002605A68D2E642608260026003
:1013A4005A685CE74260826002605A6899E742606A
:1013B400826002605A6801E70B605A6890E6002C6C
:1013C4003FF47CAE4168C96841608A600268013AB2
:1013D40002605A6872E6002C3FF4B2AE4168C968F4
:1013E40041608A600268013A02605A68A8E6BCF16A
:1013F400000F3FF434AF4168C96841608A600268F5
:10140400013A02605A682AE7002C3FF457AE81681B
:1014140089688160CA600268013A02605A684DE6D0
:10142400002C3FF48DAE816889688160CA600268CF
:10143400013A02605A6883E6BCF1000F3FF40FAF33
:10144400816889688160CA600268013A02605A68EA
:1014540005E7002D3FF445AF4168C96841608A60E3
:101464000268013A02605A683BE7002E3FF4A6AED8
:101474004168C96841608A600268013A02605A683A
:101484009CE6002D3FF42DAF816889688160CA60B5
:101494000268013A02605A6823E7002E3FF48EAED8
:1014A400816889688160CA600268013A02605A688A
:1014B40084E600BF4C000020751E2000AC0A00200A
:1014C40074000020700000200C012000A1222000E4
:1014D400751D20009400002072B64EF61453CEF20F
:1014E40000031A680B4942F001021A604EF280139D
:1014F4004FF0FF32CEF200031A604EF28413CEF2A4
:1015040000031A60044A0023CA500433B3F5807FF1
:10151400FAD17047AC0900207126200000B50020E4
:1015240000F018FA00BD00BF2DE9F001466894B23E
:101534000023CB600C8149600F1D002E22D0D0F80F
:101544000880B8F80430A34222D8D8F808308BB108
:101554004546B3F804C0A44507D9CDB10136AF6000
:101564004660CB60BDE8F00170479A6812B11D4631
:101574001346EEE7C36801369F600023CB604660E4
:10158400C760EFE70123CE6043608760C760E9E787
:101594000136C1F80C8046608760E3E710B4446804
:1015A400012C17D0836801F1040C9C4517D04BB172
:1015B4009A682AB1944503D013469268002AF9D157
:1015C400CA689A60C268944508BFC360013C44601D
:1015D40010BC704700238360C3604360F8E7002CAD
:1015E400F6D0CB68013C83604460F1E7F0B58468D1
:1015F400064617468DB29CB1002001E0A46874B180
:10160400A388AB42FAD12068314603682A46D3F84E
:1016140000C03B46E047A4680120002CF0D1F0BD97
:101624002046FCE70023F0B5436004468360C360B2
:10163400C648A361206042F2A800C4F20D00D0F8AD
:1016440000C0E3614CF0010CC0F800C048F28C60AB
:10165400C4F20800036048F29060C4F2080003601A
:1016640048F25860C4F208004FF0F80CC0F800C00B
:1016740048F2E870C4F208004FF0090CC0F800C04A
:1016840048F2C860C4F208004FF0150CC0F800C05E
:1016940048F60400C4F208004FF00B0CC0F800C078
:1016A40048F2B860C4F208004FF0010C2362636290
:1016B400A362E36223636363A363C0F800C023648B
:1016C40063642161A287A24D286843683BB15A68CC
:1016D400B72A08D8A82A06D0DB68002BF7D101F076
:1016E40009F900231EE0A83A5A60C268A83AC26009
:1016F4005A6892B90668012E00F0EE8099680029B4
:1017040000F0F480DF68002F00F00881CF60DA6811
:1017140091600268013A02605A681968A8208B181F
:1017240088500433412159705A1C5178022001F029
:10173400FC0160F3830101F0CC0160F38711517067
:1017440000228D21C3F89C3083F88D20C3F89020AB
:10175400C3F89420C3F89810C3F8A020E364286861
:1017640043683BB15A68B72A08D8A82A06D0DB6870
:10177400002BF7D101F0BEF800231EE0A83A5A600E
:10178400C268A83AC2605A6892B90568012D00F08F
:10179400A8809968002900F0B580DE68002E00F06A
:1017A400C980CE60DA6891600268013A02605A68C2
:1017B4001968A8208B1888500433412159705A1C89
:1017C4005178022001F0FC0160F3830101F0CC01A7
:1017D40060F38711517000258D2248F6380683F88E
:1017E4008D50C3F89820C3F89050C3F89450C3F8B0
:1017F4009C30C3F8A050C4F20806A364EE233360FF
:10180400ED233360237D48F2D052C4F20802136002
:10181400617D48F2D453C4F2080319601268FF27AB
:1018240022751B682046637548F20063C4F20803FE
:101834001A680B2142F001021A6048F28C53C4F278
:1018440008031D6048F20863C4F208031A6842F0F2
:1018540001021A6048F25063C4F208031F6048F2A0
:101864004063C4F20803D5221A6048F22463C4F228
:1018740008031A6842F040021A6000F05FFD48F263
:101884009473C4F208031F6048F63403C4F20803D7
:101894001D6048F63003C4F208031D6048F62C03AB
:1018A400C4F208031D60204600F06EFD48F2286370
:1018B400C4F208031A6842F001021A6048F28C6309
:1018C400C4F2080304221A6048F29063C4F20803C5
:1018D4001D60E3233360F0BD4260826002605A6899
:1018E4001BE74260826002605A6861E7002E3FF4A1
:1018F40014AF4168C96841608A600268013A0260B5
:101904005A680AE7002D3FF453AF4168C968416043
:101914008A600268013A02605A6849E7002E3FF47F
:10192400FCAE816889688160CA600268013A02601D
:101934005A68F2E6002D3FF43BAF81688968816004
:10194400CA600268013A02605A6831E760292000DF
:101954004C00002070B50446304B186841680B46B3
:10196400002956D04A68632A07D8542A05D0DB6870
:10197400002B4ED05A68632AF7D9543A5A60C26889
:10198400543AC2605A6872B90568012D29D09E681C
:10199400002E2BD0D968002931D0F160DA68013DDE
:1019A400056096605A681B6854219D189950043547
:1019B40021461A222846FFF735FE194B2A2103EB4C
:1019C400C402516043F83450164A174BC3F8A82098
:1019D4004EF20013CEF200031A6842F080621A60DD
:1019E40070BD0260426082605A68DCE7002DDAD084
:1019F400C968013D056041608A605A68D3E7002DDB
:101A0400D1D08168013D896805608160CA605A68E7
:101A1400C9E700F06FFF0025CAE700BF4C000020B3
:101A2400A4000020C1242000AC09002010B5314BD3
:101A3400186841680B46002957D04A68272A07D8F6
:101A4400182A05D0DB68002B4FD05A68272AF7D90B
:101A5400183A5A60C268183AC2605A6892B9D0F803
:101A640000C0BCF1010F1FD09C68002C24D0D968A1
:101A740000292DD0E160DA680CF1FF3CC0F800C009
:101A840094605A68196818208B18885004331A49CE
:101A94000122196119491A605A601A72486840B1E2
:101AA400DA60174A136010BD0260426082605A68AF
:101AB400E8E74B605A68F3E7BCF1000FE2D0C9686D
:101AC4000CF1FF3CC0F800C041608A605A68D9E755
:101AD400BCF1000FD6D081680CF1FF3C8968C0F8D6
:101AE40000C08160CA605A68CCE700F003FF00239D
:101AF400CDE700BF4C0000201D1B2000AC0A0020D5
:101B04006000002040F26403C2F2000300221A6065
:101B14005A609A60704700BFF0B572B63B4B1A68C2
:101B240001321A603A4A13682BB151684868013887
:101B34000028486007DD002362B61BB158680368BB
:101B44009B689847F0BD012B36D0C8684FF0000C55
:101B5400013B50601360C0F808C00B689868B0F18E
:101B6400FF3F03D0013898600028E5D0D3F800C0C7
:101B74001668C1F804C02648002E33D047687C6834
:101B8400A44538BF3D4609D3F868E8B1C4EB0C0C52
:101B9400C1F804C044680546A44512D2A8680028C8
:101BA40027D0CCEB040C0136C160A960C5F804C091
:101BB4008860CD601660BFE70023536093601360B4
:101BC400CBE7C0680028E1D19068C4EB0C0CC1607D
:101BD40088600020C860C1F804C0916011680131B8
:101BE4001160A9E701228E60CE60026041608160CD
:101BF400A2E78860CF60B96051601168CCEB040C37
:101C04000131C5F804C0116096E700BF5C000020F4
:101C14006400002040F278020023C2F20002D36084
:101C240013605360936040F28C02C2F200021360AE
:101C34005360704712F0FF0F18BF0C4B00B51FBF65
:101C44001B68DA685A68DA60884209D0C3684BB105
:101C54000023CB6050F8083F8B68896800F02AFEA7
:101C640062B600BD0123C360F2E700BF7400002028
:101C7400F0B572B63D4BDA68DA681068DA681A684B
:101C8400002A3DD059686FF0004CD1F804E0E645D5
:101C940036D0012AD3F80CE055D0D1F80CC000247A
:101CA400013AC3F804C01A60CCF808401E682F4AF1
:101CB400D960002E2AD057680EF104057A68DEF840
:101CC40004103C1D914243DBFA68002A40D0D2F84C
:101CD40004C02968141D8C4523DDD4F800C0DEF847
:101CE40004108C4522DC9A68C2F80CE0CEF8082077
:101CF4000022CEF80C201A68C3F808E001321A60FA
:101D0400DB6801221968FFF795FFF0BD0121CEF8C9
:101D14000860CEF80C601160C2F804E0C2F808E074
:101D2400EEE7D1680029D8D00A46D0E7916889B196
:101D34000136C1F80CE0C2F808E0CEF80C20CEF869
:101D440008101E60DCE700225A609A601A60ADE752
:101D54003A46C2E71A68CEF808100132CEF80C7081
:101D6400C7F808E01A60C3F804E0C9E77800002067
:101D740030B5074D074C2A682368012B06D962B693
:101D840030BF002AF8D0FFF773FFF4E772B6FEE71E
:101D94007800002088000020344BF0B5DA681C6815
:101DA4001068DA682CB9DB6801221968FFF742FF72
:101DB400F0BDD3F80CE05F680EF104067A68DEF833
:101DC40004103D1D914243DBFA68002A40D0D2F84A
:101DD40004C03168151D8C451FDDD5F800C0DEF840
:101DE40004108C451EDC9A681C68C2F80CE0CEF81E
:101DF400082001340022CEF80C201C60C3F808E04F
:101E04004CB1012C1BD05C680021E2685A609160DF
:101E14001A68013A1A60DC60C5E7D1680029DCD091
:101E24000A46D4E79168A9B10134C1F80CE0C2F8BC
:101E340008E0CEF80C20CEF808101C60E0E7002281
:101E44005C689A605A601A68DC60013A1A60AAE712
:101E54003A46C2E71C68CEF808100134CEF80C707C
:101E6400C7F808E01C60C3F804E0C9E77800002064
:101E740000B572B6FFF790FF00BD00BF8368634BE7
:101E84002DE9F0411A6800F1180501321A60604A20
:101E9400D368D368002B51D01768002F22D0D2F812
:101EA400048000F11C06D8F80430C16908F1040468
:101EB400994245DA4346D4F800C0C1698C4558DCE0
:101EC4009368DD6003620023436213689560013305
:101ED4001360C368012B0ED1C368012B26D062B6F0
:101EE400BDE8F08101230762476213605560956085
:101EF400C368012BF0D0C368002BEDD0D168D16842
:101F0400434B8D423ED01A68012A4BD0016A002906
:101F140064D0446A002C6FD0013ACC601A60C36864
:101F2400D0F824C0012BCCF80810D8D1C2696FF0C6
:101F340000439A42D3D0FFF72FFFD1E7D560D7E70C
:101F4400D8F80C30002BB5D0D3F804C031681C1D70
:101F54008C45B0DCD9680029ADD00B46D3F804C059
:101F640031681C1D8C45F5DDD4F800C0C1698C4571
:101F7400A6DD9968D9B10137CD609D6043620162E5
:101F84001760B5E7196829B301291AD0D3F804C03A
:101F94000025DCF80C4001395C601960A560C2F8CA
:101FA4000CC099E700225A609A601A6094E713689B
:101FB40001620133C0F82480C8F8085013605560EA
:101FC40096E7D3F804C00021596099601960C2F8FB
:101FD4000CC081E78C46C2F80CC07DE7002A3FF4B0
:101FE4007BAFD3F804C0013ADCF80CC01A60C3F824
:101FF40004C0CCF808106FE7002A3FF46DAF99686D
:10200400013A89681A609960CC6065E7880000200D
:10201400780000202DE9F04172B69E4BDA68DA6848
:10202400D9681268D3F80CC002F118018C4500F08D
:102034009E801968012900F0DF80146A002C00F0EA
:10204400AE80556A002D00F0EA80E560D2F824C025
:102054000139CCF808401960516808600421D16046
:102064008D490868013808605169002900F09180A1
:1020740051690124CC60D2F814C0D868D868854965
:102084000CF1180570B30F68002F00F0A180D1F88F
:1020940004800CF11C06D8F80410DCF81C0008F1CC
:1020A40004048842C0F2DD80D8F80C10002900F046
:1020B400D880D1F804E030680C1D86457DDDD4F865
:1020C40000E0DCF81C00864500F38A8099681C68EF
:1020D400CD60CCF8201001340021CCF824101C6011
:1020E4009D6001E00C68CD60002151616949D868A8
:1020F4003CB9DB68104619680122FFF79BFDBDE877
:10210400F081D1F80CE04F680EF104067868DEF82F
:1021140004103D1D884200F3A280F968002900F0F4
:102124009E80D1F804C030680D1D84454BDDD5F880
:1021340000C0DEF80400844563DC99681C68C1F8BB
:102144000CE0CEF8081001340021CEF80C101C600D
:10215400C3F808E04CB1012C6FD05C680020E16842
:1021640059608860196801391960DC60C1E7196831
:1021740089B101296AD0D3F804C00024DCF80CE04A
:102184000139C3F804E01960CEF80840C3F80CC064
:1021940062E71C68AAE78C46C3F80CC05CE7002918
:1021A4003FF45AAFD3F804C00139DCF80CC019600D
:1021B400C3F804C0CCF808404EE7C86800283FF4D0
:1021C4007EAF014675E7C8680028B0D00146A8E78D
:1021D400CCF82070CCF824700C604D608D6083E7DF
:1021E400886800283FD07C1CC5608D60CCF8241022
:1021F400CCF820001C6077E70021596099601960D1
:102204002AE78868002839D00134C0F80CE0C1F806
:1022140008E0CEF80C10CEF808001C609AE70029FC
:102224003FF41AAFD3F808C00139DCF808C01960CC
:10223400C3F808C0CCF80C500EE700215C68996024
:1022440059601968DC600139196052E7D3F804C099
:102254000021596099601960C3F80CC0FCE6394646
:1022640065E741462BE71C68CCF820000134CCF824
:102274002480C8F808501C605D6035E71C68CEF8FF
:1022840008000134CEF80C70C7F808E01C60C3F8ED
:1022940004E05FE7780000208800002000B51846BD
:1022A400FFF7B8FE00BD00BF10B54CF2000340F2CA
:1022B4009804C4F20003C2F200042360FEF76CFE2B
:1022C40042F22803C4F20D031A68082142F0010205
:1022D4001A6044F204030022C4F20D031A6044F2AB
:1022E4008403C4F20D03196044F28003C4F20D03A5
:1022F4001A6044F20013C4F20D031A6049F2204339
:10230400C4F20D03196841F0030119602368196BC5
:1023140021F0010119634FF0FF3159649A631122CE
:102324005A6205229A627022DA621A6B42F440728F
:1023340042F001021A6330229A6310BDA1F10B032B
:102344000F2B07D801EB810148F23C632C39C4F20E
:1023540008031960704700BF9C3130B411D0D0F825
:1023640018C0026A00250B684968D3F898400CF13C
:10237400010C121983F88D500029F4D1C0F818C04B
:10238400026230BC704700BF00238361C3610362F3
:1023940043628362C362036343638363704700BF22
:1023A40048F63403C4F20803196848F63002C4F24C
:1023B400080211F0040F70B51268054667D01A6858
:1023C4004FF0010122F004021A60036C123350F83A
:1023D400236006F18D02D2E84F3FC2E8441F002C6F
:1023E400F9D1DBB2002B52D148F26C62C4F208027C
:1023F4001068002808DD48F62801C4F208010A68BC
:10240400F25401339842FAD148F63803C4F208036F
:10241400ED221A6033780D3BC6F89830AB8F1F2B32
:1024240036D9203B012010FA03F34EF28412CEF287
:10243400000211680B431360F17AB37A2A6843EA05
:102444000123190A41EA032189B2936828463246D6
:10245400984770B9AA692B6A9C3631680132AA611F
:10246400D1F898C0766863442B6281F88D00002E01
:10247400F3D1AA8F1F2A16D9203A012010FA02F2AA
:102484004EF20413CEF2000319680A431A6070BDB9
:10249400012010FA03F34EF28012CEF2000211680A
:1024A4000B431360C8E7012010FA02F24EF2001346
:1024B400CEF2000319680A431A60E8E7064B016884
:1024C4005A6800B5914200D000BD18680028FBD0BE
:1024D400FFF766FFF8E700BFA40000202DE9F04FE6
:1024E4009B46436C81B00092DDF8289003F11302FF
:1024F400054600EB82024FF0010E52F8046B06F120
:102504008D0CDCE84F0FCCE844EF002CF9D1C0B2BD
:102514000133012801D16B64EFE748F63804C4F2B3
:102524000804EF235FFA89FA23600AF10D023346A7
:1025340003F8012B012242F0400272705A780227FC
:1025440002F0FC0267F3830202F0CC0267F3871205
:102554005A704FF000084FF0FF33337173713A46ED
:1025640086F80380B01DFEF735FC05F114013A46E8
:1025740006F10800FEF72EFC009A5946138806F16E
:102584000C001A0A42EA03239BB2B3721B0AF372C9
:102594005246FEF71FFCEE232360317848F62803E9
:1025A400C4F2080316F8082008F1010841451A602E
:1025B400F8DA48F63803C4F20803E92248F6300191
:1025C4001A60C4F208010A6848F6300312F0020FD8
:1025D400C4F20803F7D01A68484622F002021A60CF
:1025E400EB690133EB616B6A4B446B62002386F841
:1025F4008D3001B0BDE8F08F002308491A46CA5057
:102604000433B3F5006FFAD1044B082203F580714B
:1026140083F8002801338B42FAD17047AC000020C4
:1026240000B52DE9F00F00F003F8BDE8F00F00BD90
:1026340000B54FF000531B6881B02A2B0DD0EFF387
:102644000383094A03F03F0301A840F8043D52F80C
:1026540023306846984701B000BD44F20803C0F235
:1026640020031B689847F6E7AC090020704700BFB9
:102674002DE9F04572B6294BDFF8A4C01A681CF89E
:10268400010C02F118032749274F4FF009080D26C2
:102694000A25002420B3092834D00A281EBFD1F803
:1026A40000A00AF1010AC1F800A01AD0D3F800E092
:1026B4001EF0200FFAD1BAF14F0F10600ADD18682E
:1026C40010F0200FFBD11660186810F0200FFBD11A
:1026D40015600C600CF1010C1CF8010C0028DAD117
:1026E400FEE7186810F0200FFBD11660186810F090
:1026F400200FFBD13868156001300C6038600CF194
:10270400010CE9E7186810F0200FFBD10868C2F843
:102714000080083008600CF1010CDDE7980000200F
:102724006D2920009C000020A000002030B5104C32
:102734000546236823B1DA68013ADA60DA688AB1B7
:10274400636823B15A682846DA601B699847A3680E
:1027540023B11A7A1AB91B692846984730BD5A68BA
:10276400DA60F8E75A68DA601B699847E8E700BF5F
:10277400AC0A00204E4B70B41D6847F20003C2F24D
:1027840000034FF480525A6000229A60DA60EA68CB
:102794001B6002F58052EA60D3F804C06B68002B1A
:1027A40050D00CF1005C1E680CF5E04CB4450CBF35
:1027B4001A461A4604D0D26812B111688C45FAD16F
:1027C40047F20001C2F200010C6859687618B4425D
:1027D40008D0DB68002B34D0D3F800C059686144BA
:1027E4008C42F6D119461346BBB147F20002C2F23D
:1027F40000025468D3F804C0A444C2F804C02A6890
:10280400012A2DD09C68002C38D0DE68002E2CD0F4
:10281400E660DB68013A9C602A6039B147F2000344
:10282400C2F200035B684A68D3184B608546BFF365
:102834006F8F04BC82F30388BDE8FF5F00BD70BCEA
:10284400704713462A6812BB47F20001C2F2000126
:102854008A60CA606960A960012129601146C3E7E2
:1028640000236B60AB602B60D7E7002AD5D0AB6840
:10287400013A9B682A60AB60DE60CEE7002ACCD0C8
:102884006B68013ADB682A606B609C60C5E7A968E5
:1028940047F2000CC2F2000CC1F80CC0CCF80810CE
:1028A40001320021CCF80C102A60C5F808C09BE75F
:1028B4004C0000200FF2240204B42DE9FF5FEFF373
:1028C400038204B4C0F800D08D46BFF36F8F04BCFC
:1028D40082F30388BDE8FF5F04BC9746704700BFDE
:1028E40040F6B823C2F2000300221A605A609A60CC
:0C28F400DA60704700B5FEF769FA00BD1D
:10290000074B10B51A6852B9064C01221A60636869
:102910002BB10434984754F8043F002BFAD110BD72
:0829200004000020A42920009E
:102928000000000000000000ED092000BD092000A3
:10293800A1092000E8FBFFFF000000009509200026
:102948000000000000000000CD0D20003030000025
:1029580000000000000000002D152000A115200037
:0C296800F115200050414E4943210A00A7
:10297400FFFFFFFF450120004D0120005101200011
:10298400190A2000F50C2000091B2000191C200046
:10299400AD222000FD252000E528200000000000D5
:0829A400FFFFFFFF000000002F
:04000005002000F8DF
:020000040027D3
:0CFFD400FFFFFFF700000000000020000D
:00000001FF
