:020000040020DA
:1000000000800020F9002000E51A2000E51A2000F9
:10001000E51A2000E51A2000E51A2000E51A200064
:10002000E51A2000E51A2000E51A2000E51A200054
:10003000E51A2000E51A2000E51A2000E51A200044
:10004000E51A2000E51A2000E51A2000E51A200034
:10005000E51A2000E51A2000E51A2000E51A200024
:10006000E51A2000E51A2000E51A2000E51A200014
:10007000E51A2000E51A2000E51A2000E51A200004
:10008000E51A2000E51A2000E51A2000E51A2000F4
:10009000E51A2000E51A2000E51A2000E51A2000E4
:1000A000E51A2000E51A2000E51A2000E51A2000D4
:1000B000E51A2000E51A2000E51A2000E51A2000C4
:1000C000E51A2000E51A2000E51A2000E51A2000B4
:1000D000E51A2000E51A2000E51A2000E51A2000A4
:1000E000E51A2000E51A2000E51A2000E51A200094
:1000F000E51A2000E51A2000002020210906074A01
:10010000086004319142FBDB00F00AF800F0E6FEE3
:1001100001B401F01FFD01F059F80000640A00204D
:1001200010B5074C54F8043CB3F1FF3F06D0043C33
:10013000984754F8043DB3F1FF3FF9D110BD00BF1B
:04014000DC1B2000A4
:1001440062B67047704700BF40F21003C2F200036A
:100154000A204FF0FF310022596018601A7240F2F1
:100164000403C2F20003596018601A72704700BF9A
:10017400704700BF2DE9F04FADF58E6D10A80C3817
:100184000290029900248A68CC7102F07F428A604E
:10019400CA68CC7202F07F42CA604A69CC7402F029
:1001A4007F424A618A69CC7502F07F428A61029A71
:1001B400DFF8C43ADFF8C45A8C71CC738C74CC76F3
:1001C4008C800C82C1F81C440DF58B611360C2F85D
:1001D4002454C2F82814A2F82C44C2F8304440F243
:1001E4004C02C2F200021068029B41F21002C3F8F2
:1001F4003404C3F83844036841F21C051B6898476B
:1002040041F20C03C4F203031A68029822F00102BB
:100214001A6042F20802C4F20D021168C4F2030526
:1002240041F00201116044F25402C4F20D020F21A4
:10023400116044F2D402C4F20D02082111604BF2A1
:100244002042C4F20D021168064641F020011160FB
:1002540041F20002C4F20302146041F20402C4F247
:1002640003020121116041F2280244F60001C4F2A4
:100274000302C0F2E811116041F22402C4F2030245
:100284004FF0FF3111601A68029C42F001020434FD
:1002940005941A6000F10B042B68002B40F0FF80DA
:1002A400336830461B68059998470028F4D03346D4
:1002B4000022197901335218A342D2B2F9D1534220
:1002C400F17BDBB29942E7D1B388002BE4D1B37957
:1002D400772BE1D0612B14BF00220122682B08BFC9
:1002E40042F001021AB9482B01D0652BD4D1F2791E
:1002F400B16852EA0121CFD1F27AF16852EA0122BF
:10030400CAD1682BC8D141F20C03C4F203031968A3
:10031400029D21F0010119604FF00103AB804823D5
:10032400AB711346059DE95C013352180B2BD2B215
:10033400F8D1029852420368C2730EA900915B6817
:100344009847029A02F110051646336830461B6836
:10035400294698470028F8D033460022197C0133F7
:100364005218A342D2B2F9D15342F17EDBB2994280
:10037400EBD1338A022BE8D1B37C772B16D0612BD7
:1003840014BF00220122682B08BF42F001021AB9EF
:10039400482B01D0652BD8D1F37C726953EA022231
:1003A400D3D1F37DB26953EA0222CED102990298E5
:1003B40051F8103B5B689847029CA37C652B00F0C6
:1003C400F580029DDFF8B8780435DDF80890032441
:1003D4000195D9F8003048461B68019998470028D0
:1003E400F7D0002205981346C15C013352180B2B39
:1003F400D2B2F9D1534299F80F00DBB2834200F034
:1004040099800022DDF814C013461CF80310013350
:1004140052180B2BD2B2F8D15342DBB29842D8D146
:10042400B9F8040084420990D3D199F80630772BA7
:100434001AD0612B14BF00220122682B08BF42F09E
:1004440001021AB9482B01D0652BC2D199F80730A3
:10045400D9F8082053EA0222BBD199F80B30D9F815
:100464000C2053EA0222B4D1D9F8003048465B6824
:100474000EA9984799F81230772B00F0BD8299F8AD
:100484000630652B00F00084009C099D94E8070069
:1004940009F110036C1C83E80700A4B299E741F248
:1004A4000C03C4F203031A6822F001021A600298D2
:1004B4000023DFF8C417C0F83434DFF8C82744F247
:1004C4000403C0F220030160C0F82424186844F235
:1004D4000803C0F2200319684FF401131A68A0F549
:1004E4000110994234BF00230123B0F5F72F2CBF2C
:1004F400002303F00103002B3FF443AE4FF2FF73DC
:10050400C0F2270399428CBF00230123B2F1005F9C
:1005140034BF002303F00103002B3FF432AE47F64F
:10052400FC73C2F200039A423FF62BAE0DF58E6DBA
:10053400BDE8F08F631EB9F804209BB29A427FF4A1
:1005440060AF99F80630772B1DD0612B14BF0022C1
:100554000122682B08BF42F0010222B9482B02D0C5
:10056400652B7FF44EAF99F80730D9F8082053EA89
:1005740002227FF446AF99F80B30D9F80C2053EAE5
:1005840002227FF43EAFD9F8003048465B680EA9DA
:10059400984799F80630652B00F01C81019D09F1FC
:1005A400100395E8070083E8070012E70298D0F8E3
:1005B4001C24002A3FF47BAFD0F82034DFF8C07647
:1005C400A3EB820206930699A2F50013DB0A0393B8
:1005D400A1F500130192013B039ADB0A079302F58C
:1005E4000063FB18049302F580630133DB0202F518
:1005F400806B05934FEACB2B0DF1500A4FF048085E
:10060400079D03988542C0F0E080039B0698059CF3
:10061400049A01330199A04228BF2046039313781A
:10062400451AAD08072B62D8002D00F0C680DAF811
:1006340000300A6803EA0202934258D100238C4630
:1006440007E05AF823205CF8231002EA01018A42E9
:100654004DD101339D42F4D84FEA8509D8F81030C2
:100664004A465046019998470023CDF820B0019C92
:10067400CB465646B9461F460AE00198BE003418D8
:100684005644EA1BD8F81030920030462146984769
:10069400236832689342F0D107F1010C01994FEAC3
:1006A4008C02541852446545674614D84F46D946BF
:1006B400DDF820B0049A059C137804F50064013336
:1006C40002F8013B019B04924B440193CA440594F4
:1006D4000BF5006B94E7234653F8040B164652F8C7
:1006E400041B8842CDD11C460CF1010CDBE7019CB4
:1006F4000599B4EB0B0318BF012381420CBF1846C4
:1007040043F0010038B1002353F80B20FA500433AE
:10071400B3F5006FF8D1049B4FF000021A70D8F8BB
:100724000C30584601219847019CCBEB04029208F7
:10073400002D40D007EB82024FEA850900235AF8C6
:10074400031004334B4542F8041BF8D1D8F8103099
:10075400DFF82C0559464FF40062002598475C46A3
:100764002E4607E0C5F50072D8F81030B81992008B
:1007740021469847226857F825309A4218BF06EB5D
:100784000B04EFD1691C40F25405C2F200050BEBD7
:100794008104AE1940F2FF1081420D468AD82346E7
:1007A40053F8040B56F8042F904201D0AE00D9E759
:1007B4001C460131EEE7A946C8E7D8F81030504688
:1007C40001992A469847A94674E702990023C1F87B
:1007D4001C346CE6029BD3F81C24002A3FF467AE59
:1007E400D3F82034A3EB82020893089CA2F50013EB
:1007F400DB0A0393A4F50013013B039DDB0A9D422E
:1008040001920793E1D805F580630133DB02DFF839
:100814007074059305F50063FB1805F5806B04936C
:100824004FEACB2B0DF1500A4FF048080398059975
:1008340001300390049C0898019A884228BF084616
:100844002378861AB608072B69D8002E00F0CA80D0
:10085400DAF80030126803EA020293425FD10023FF
:10086400DDF804C007E05AF823205CF8231002EAFC
:1008740001018A4253D101339E42F4D84FEA8609DA
:10088400D8F810304A465046019998470023CDF8CD
:1008940018B0019CCB465546B9461F460BE001995A
:1008A400BC000AEB04056418F21BD8F8103092005F
:1008B40028462146984723682A689342EFD107F1D6
:1008C400010C01994FEA8C0254185244664567465C
:1008D40019D84F46D946DDF818B0049A079C137806
:1008E400039D013302F8013B059BAC4203F5006311
:1008F400049205930BF5006BFFF467AF0198CA44AB
:100904004844019092E7234653F8040B154652F8E5
:10091400041B8842C8D11C460CF1010CD6E7019D8A
:100924000599B5EB0B0318BF012381420CBF184690
:1009340043F0010038B1002353F80B20FA5004337C
:10094400B3F5006FF8D1049B4FF000021A70D8F889
:100954000C30584601219847019CCBEB04029208C5
:10096400002E47D007EB82024FEA860900235AF88B
:10097400031004334B4542F8041BF8D1D8F8103067
:10098400BF4859464FF40062002598475C462E46FE
:1009940007E0C5F50072D8F81030B8199200214666
:1009A4009847226857F825309A4218BF06EB0B0483
:1009B400EFD1691C40F25405C2F200050BEB81042F
:1009C400AE1940F2FF1081420D4686D8234653F8F3
:1009D400040B56F8042F904201D0AE00D9E71C4610
:1009E4000131EEE7D8F81030504601993246984765
:1009F400B14672E7B146C1E799F81330D9F814202B
:100A040043EA0222A2F50113B3F5F72FBFF437AD81
:100A1400D9F81C34FF2B0CD8002B00F05782D9F8DE
:100A240020148A4200F03F82D9F81C34002B00F0D5
:100A34000A81D9F820240DF1500AA2EB8303039311
:100A4400A3F50013DB0A0493A2F500130499013BF8
:100A5400DB0A0B9301F50063FB18069301F5806331
:100A64000133DB02079301F58063DB0208924FF048
:100A740048089B46CDF830900B9D04988542C0F001
:100A8400DD80079B0898069D039C984228BF184662
:100A9400049A2B78061B0132B608072B049265D8FA
:100AA400002E00F0C380DAF80030226803EA020264
:100AB40093425BD10023A44607E05AF823205CF854
:100AC400231002EA01018A4250D101339E42F4D834
:100AD4004FEA8609D8F8103050464A460399984799
:100AE40000235546CDF828B0039CCB46D1469A4600
:100AF4000DE0039A4FEA8A0409EB0405A418CAEB33
:100B04000602D8F8103092002846214698472368F8
:100B14002A689342EDD10AF1010C03994FEA8C0241
:100B240054184A446645E24614D8CA46D946DDF804
:100B340028B0069A079C137804F50064013302F880
:100B4400013B039B06924B440393CA4407940BF561
:100B5400006B91E7234653F8040B154652F8041B27
:100B64008842CCD11C460CF1010CDBE70399079AAF
:100B7400B1EB0B0318BF0123824218BF43F00103FA
:100B84003BB1002353F80B20FA500433B3F5006F44
:100B9400F8D1069C4FF000032370D8F80C30584667
:100BA40001219847039DCBEB05029208002E3BD010
:100BB40007EB82024FEA860900235AF80310043334
:100BC4004B4542F8041BF8D1D8F810302C4859464C
:100BD4004FF40062002598475C462E4607E0C5F5B1
:100BE4000072D8F81030B81992002146984722684C
:100BF40057F825309A4218BF06EB0B04EFD1691C55
:100C04000BEB8104BE1940F2FF1081420D4690D8CF
:100C1400234653F8040B56F8042F904201D0AE003B
:100C2400DDE71C460131EEE7B146CDE7D8F81030D8
:100C34005046039932469847B1467AE7DDF830903A
:100C44000023C9F81C3499F81330D9F8142099F802
:100C5400170043EA0222D9F81C34D9F818C0D91D68
:100C6400013340EA0C20C9F81C34131D49F8210053
:100C7400C9F8203403E400BF841B2000981B200023
:100C840054000020A41B20000299D1F81C24002A3F
:100C94003FF40DACD1F820348E4FA3EB82020693BF
:100CA4000192A2F50013069ADB0A0393A2F500133E
:100CB400039C013BDB0A089304F50063FB180493CF
:100CC40004F580630133DB0204F5806B05934FEA7E
:100CD400CB2B0DF1500A4FF04808089D039885422C
:100CE400FFF473AD06980599049C019A039D88420C
:100CF40028BF08462378861A0135B608072B0395C2
:100D040064D8002E00F0C780DAF80030126803EAD5
:100D1400020293425AD10023DDF804C007E05AF8D6
:100D240023205CF8231002EA01018A424ED10133E8
:100D34009E42F4D84FEA8609D8F810304A46504605
:100D4400019998470023CDF81CB0019CCB46554629
:100D5400B9461F460BE0019BBC000AEB0405E418EE
:100D6400F21BD8F810309200284621469847236891
:100D74002A689342EFD107F1010C01994FEA8C02E2
:100D8400541852446645674614D84F46D946DDF890
:100D94001CB0049A059C137804F50064013302F82E
:100DA400013B019B04924B440193CA4405940BF507
:100DB400006B92E7234653F8040B154652F8041BC4
:100DC4008842CDD11C460CF1010CDBE7019D05994D
:100DD400B5EB0B0318BF012388420CBF184643F040
:100DE400010038B1002353F80B20FA500433B3F553
:100DF400006FF8D1049B4FF000021A70D8F80C3041
:100E0400584601219847019CCBEB04029208002E1E
:100E14003FD007EB82024FEA860900235AF80310F9
:100E240004334B4542F8041BF8D1D8F81030294854
:100E340059464FF40062002598475C462E4607E069
:100E4400C5F50072D8F81030B819920021469847B9
:100E5400226857F825309A4218BF06EB0B04EFD1ED
:100E6400691C40F25405C2F200050BEB8104AE1973
:100E740040F2FF1081420D468BD8234653F8040BF1
:100E840056F8042F904201D0AE00D9E71C46013138
:100E9400EEE7B146C9E7D8F810305046019932461A
:100EA4009847B14675E7DA1D013399F81710D9F858
:100EB4001800C9F81C34D9F8203441EA002104335D
:100EC40049F82210C9F82034FFF7D9BAC9F8202408
:100ED4001146A6E55400002000B5FFF74BF900F0D9
:100EE40037FE72B647F6FB73C2F200032A221A6079
:100EF4004FF401131B689D46BFF36F8F44F2040344
:100F0400C0F220031B689847002000BDA0F1240014
:100F1400A0F5806000E000BFD3F8982000B50C2A4B
:100F240008BFC0F8383404D0D0F83404194600F0AF
:100F340073FC00BD00B54FF0FF3283B08DF808207C
:100F44008DF8092041F21002ADF806200C220B4660
:100F5400D0F8340402A900920DF1060200F01EFD3F
:100F640003B000BD10B50446D4F8383408467BB14C
:100F740003F10C010C2200F02FF9D4F83404D4F856
:100F8400381400F049FC0023C4F83834012010BDA3
:100F94001846FCE730B500F06BF97E494B68002B2E
:100FA40000F0EC805A6843F20F00824209D8B2F58F
:100FB400405F06D0DB68002B00F0E0805A68824274
:100FC400F5D9A2F540525A60CA687248A2F5405257
:100FD400CA605A6892B90468012C00F08680996846
:100FE400002900F0B380DD68002D00F0BB80CD60E7
:100FF400DA6891600268013A02605A681968DFF899
:1010040098C100238C18CCF80030CCF80430CCF80C
:101014000830CCF80C3047D04FF440508C5060600E
:10102400A360E360DCF80C301B18CCF80C30DCF85F
:10103400043051F802E06068002B3ED01D68704413
:10104400A8420CBF1A461A4604D0D26812B11168DD
:101054008842FAD159686D18AE4507D0DB68002B79
:101064002AD01868596841188E45F7D11946134695
:10107400ABB160685A6882186260DCF8000001282D
:101084002BD09A68002A35D0DD68002D40D0D56079
:10109400DB689A60DCF80030013BCCF8003019B111
:1010A4004A686368D3184B603C4BC3F800C000F037
:1010B400E1F800F0E5F830BD1346DCF80010002933
:1010C40034D1A160E160DCF80020CCF804400132A6
:1010D400CCF80840CCF80020CAE70023CCF8043050
:1010E400CCF80830CCF80030D9E742608260026066
:1010F4005A6883E70028D2D0DCF80430DB68CCF8E7
:1011040004309A60DCF80030013BCCF80030C6E7CC
:101114000028C4D0DCF808309B68CCF80830DD60C7
:10112400DCF80030013BCCF80030B8E7DCF80820EC
:101134000021D460DCF80820E160A260DCF8002023
:10114400CCF808400132CCF8002091E7002C3FF4A1
:1011540055AF4168C96841608A600268013A02601B
:101164005A684BE7002C3FF449AF81688968816075
:10117400CA600268013A02605A683FE7DFF818C0A3
:101184000023CCF80030CCF80430CCF80830CCF88C
:101194000C3089E7540A0020340000204400002069
:1011A40040F22803C2F200030A204FF0FF3100226C
:1011B400596018601A7240F21C03C2F200035960AD
:1011C40018601A72704700BF704700BF704700BFB5
:1011D40000B500F0ADFC00BD0F2A30B405460C4646
:1011E40042D941EA000313F0030F02BF14468C46B0
:1011F400034609D0002314F803C005F803C00133E3
:101204009A42F8D130BC7047DCF80050103C1D60A5
:10121400DCF804505D60DCF808509D60DCF80C508C
:101224000CF1100CDD6010330F2CEDD8A2F110047A
:1012340004F00F0224F00F04103405190C19032ACA
:1012440012D9002354F803C045F803C00433C3EB98
:10125400020CBCF1030FF5D8043A22F00303043363
:10126400ED18E41802F00302002AC3D1CAE700BF54
:10127400704700BF00B500F02DF800F037F800BD4E
:10128400704700BF12490B7803BB42F20003C4F25B
:101294000D031A6842F400121A6018684FF6F872C7
:1012A400CFF6FE6200EA02021A6042F20402C4F2BD
:1012B4000D02136813F4803FFBD142F20003C4F221
:1012C4000D031A681A681A6001230B70704700BF77
:1012D4004800002000B5FFF7D5FF42F29803C4F29E
:1012E4000D031A6842F001021A6000BD00B5002027
:1012F40000F018FA00BD00BF2DE9F001466894B271
:101304000023CB600C8149600F1D002E22D0D0F841
:101314000880B8F80430A34222D8D8F808308BB13A
:101324004546B3F804C0A44507D9CDB10136AF6032
:101334004660CB60BDE8F00170479A6812B11D4663
:101344001346EEE7C36801369F600023CB60466016
:10135400C760EFE70123CE6043608760C760E9E7B9
:101364000136C1F80C8046608760E3E710B4446836
:10137400012C17D0836801F1040C9C4517D04BB1A4
:101384009A682AB1944503D013469268002AF9D189
:10139400CA689A60C268944508BFC360013C44604F
:1013A40010BC704700238360C3604360F8E7002CDF
:1013B400F6D0CB68013C83604460F1E7F0B5846803
:1013C400064617468DB29CB1002001E0A46874B1B2
:1013D400A388AB42FAD12068314603682A46D3F881
:1013E40000C03B46E047A4680120002CF0D1F0BDCA
:1013F4002046FCE70023F0B5436004468360C360E5
:10140400C648A361206042F2A800C4F20D00D0F8DF
:1014140000C0E3614CF0010CC0F800C048F28C60DD
:10142400C4F20800036048F29060C4F2080003604C
:1014340048F25860C4F208004FF0F80CC0F800C03D
:1014440048F2E870C4F208004FF0090CC0F800C07C
:1014540048F2C860C4F208004FF0150CC0F800C090
:1014640048F60400C4F208004FF00B0CC0F800C0AA
:1014740048F2B860C4F208004FF0010C23626362C2
:10148400A362E36223636363A363C0F800C02364BD
:1014940063642161A287A24D286843683BB15A68FE
:1014A400B72A08D8A82A06D0DB68002BF7D100F0A9
:1014B4004BFB00231EE0A83A5A60C268A83AC260F7
:1014C4005A6892B90668012E00F0EE8099680029E6
:1014D40000F0F480DF68002F00F00881CF60DA6844
:1014E40091600268013A02605A681968A8208B1852
:1014F40088500433412159705A1C5178022001F05C
:10150400FC0160F3830101F0CC0160F38711517099
:1015140000228D21C3F89C3083F88D20C3F89020DD
:10152400C3F89420C3F89810C3F8A020E364286893
:1015340043683BB15A68B72A08D8A82A06D0DB68A2
:10154400002BF7D100F000FB00231EE0A83A5A60FC
:10155400C268A83AC2605A6892B90568012D00F0C1
:10156400A8809968002900F0B580DE68002E00F09C
:10157400C980CE60DA6891600268013A02605A68F4
:101584001968A8208B1888500433412159705A1CBB
:101594005178022001F0FC0160F3830101F0CC01D9
:1015A40060F38711517000258D2248F6380683F8C0
:1015B4008D50C3F89820C3F89050C3F89450C3F8E2
:1015C4009C30C3F8A050C4F20806A364EE23336031
:1015D400ED233360237D48F2D052C4F20802136035
:1015E400617D48F2D453C4F2080319601268FF27DE
:1015F40022751B682046637548F20063C4F2080331
:101604001A680B2142F001021A6048F28C53C4F2AA
:1016140008031D6048F20863C4F208031A6842F024
:1016240001021A6048F25063C4F208031F6048F2D2
:101634004063C4F20803D5221A6048F22463C4F25A
:1016440008031A6842F040021A6000F0D7F848F222
:101654009473C4F208031F6048F63403C4F2080309
:101664001D6048F63003C4F208031D6048F62C03DD
:10167400C4F208031D60204600F0E6F848F228632F
:10168400C4F208031A6842F001021A6048F28C633B
:10169400C4F2080304221A6048F29063C4F20803F7
:1016A4001D60E3233360F0BD4260826002605A68CB
:1016B4001BE74260826002605A6861E7002E3FF4D3
:1016C40014AF4168C96841608A600268013A0260E7
:1016D4005A680AE7002D3FF453AF4168C968416076
:1016E4008A600268013A02605A6849E7002E3FF4B2
:1016F400FCAE816889688160CA600268013A026050
:101704005A68F2E6002D3FF43BAF81688968816036
:10171400CA600268013A02605A6831E7B01B2000CF
:101724004400002070B50446304B186841680B46ED
:10173400002956D04A68632A07D8542A05D0DB68A2
:10174400002B4ED05A68632AF7D9543A5A60C268BB
:10175400543AC2605A6872B90568012D29D09E684E
:10176400002E2BD0D968002931D0F160DA68013D10
:10177400056096605A681B6854219D189950043579
:1017840021461A222846FFF735FE194B2A2103EB7E
:10179400C402516043F83450164A174BC3F8A820CA
:1017A4004EF20013CEF200031A6842F080621A600F
:1017B40070BD0260426082605A68DCE7002DDAD0B6
:1017C400C968013D056041608A605A68D3E7002D0D
:1017D400D1D08168013D896805608160CA605A681A
:1017E400C9E700F0B1F90025CAE700BF44000020B2
:1017F4004C0000208119200054090020A1F10B03A2
:101804000F2B07D801EB810148F23C632C39C4F259
:1018140008031960704700BF9C3130B411D0D0F870
:1018240018C0026A00250B684968D3F898400CF187
:10183400010C121983F88D500029F4D1C0F818C096
:10184400026230BC704700BF00238361C36103623E
:1018540043628362C362036343638363704700BF6D
:1018640048F63403C4F20803196848F63002C4F297
:10187400080211F0040F70B51268054667D01A68A3
:101884004FF0010122F004021A60036C123350F885
:10189400236006F18D02D2E84F3FC2E8441F002CBA
:1018A400F9D1DBB2002B52D148F26C62C4F20802C7
:1018B4001068002808DD48F62801C4F208010A6807
:1018C400F25401339842FAD148F63803C4F20803BB
:1018D400ED221A6033780D3BC6F89830AB8F1F2B7E
:1018E40036D9203B012010FA03F34EF28412CEF2D3
:1018F400000211680B431360F17AB37A2A6843EA51
:101904000123190A41EA032189B293682846324621
:10191400984770B9AA692B6A9C3631680132AA616A
:10192400D1F898C0766863442B6281F88D00002E4C
:10193400F3D1AA8F1F2A16D9203A012010FA02F2F5
:101944004EF20413CEF2000319680A431A6070BD04
:10195400012010FA03F34EF28012CEF20002116855
:101964000B431360C8E7012010FA02F24EF2001391
:10197400CEF2000319680A431A60E8E7064B0168CF
:101984005A6800B5914200D000BD18680028FBD009
:10199400FFF766FFF8E700BF4C0000202DE9F04F89
:1019A4009B46436C81B00092DDF8289003F113024A
:1019B400054600EB82024FF0010E52F8046B06F16B
:1019C4008D0CDCE84F0FCCE844EF002CF9D1C0B209
:1019D4000133012801D16B64EFE748F63804C4F2FF
:1019E4000804EF235FFA89FA23600AF10D023346F3
:1019F40003F8012B012242F0400272705A78022748
:101A040002F0FC0267F3830202F0CC0267F3871250
:101A14005A704FF000084FF0FF33337173713A4638
:101A240086F80380B01DFFF7D7FB05F114013A4691
:101A340006F10800FFF7D0FB009A5946138806F117
:101A44000C001A0A42EA03239BB2B3721B0AF37214
:101A54005246FFF7C1FBEE232360317848F6280392
:101A6400C4F2080316F8082008F1010841451A6079
:101A7400F8DA48F63803C4F20803E92248F63001DC
:101A84001A60C4F208010A6848F6300312F0020F23
:101A9400C4F20803F7D01A68484622F002021A601A
:101AA400EB690133EB616B6A4B446B62002386F88C
:101AB4008D3001B0BDE8F08F002308491A46CA50A2
:101AC4000433B3F5006FFAD1044B082203F5807197
:101AD40083F8002801338B42FAD170475400002068
:101AE40000B52DE9F00F00F003F8BDE8F00F00BDDC
:101AF40000B547F6FB73C2F200031B6881B02A2BC2
:101B04000DD0EFF30383094A03F03F0301A840F823
:101B1400043D52F823306846984701B000BD44F2B2
:101B24000803C0F220031B689847F6E75409002015
:101B340072B6FEE740F65423C2F2000300221A6094
:101B44005A609A60DA60704700B5FFF741FB00BD48
:101B5400074B10B51A6852B9064C01221A60636823
:101B64002BB10434984754F8043F002BFAD110BD2C
:081B740000000020E01B20002E
:101B7C000000000000000000690F2000390F200059
:101B8C001D0F2000DCFBFFFF00000000110F2000E8
:101B9C000000000000000000D11120000000000037
:101BAC0000000000FD12200071132000C113200062
:101BBC00FFFFFFFF45012000490120004D012000DF
:101BCC00990F2000A5112000BD1A2000391B200000
:041BDC000000000005
:081BE000FFFFFFFF0000000001
:04000005002000F8DF
:020000040027D3
:0CFFD400FFFFFFEF000000000000200015
:00000001FF
