:020000040020DA
:1000000000800020F9002000792E2000792E2000A9
:10001000792E2000792E2000792E2000792E2000C4
:10002000792E2000792E2000792E2000792E2000B4
:10003000792E2000792E2000792E2000792E2000A4
:10004000792E2000792E2000792E2000792E200094
:10005000792E2000792E2000792E2000792E200084
:10006000792E2000792E2000792E2000792E200074
:10007000792E2000792E2000792E2000792E200064
:10008000792E2000792E2000792E2000792E200054
:10009000792E2000792E2000792E2000792E200044
:1000A000792E2000792E2000792E2000792E200034
:1000B000792E2000792E2000792E2000792E200024
:1000C000792E2000792E2000792E2000792E200014
:1000D000792E2000792E2000792E2000792E200004
:1000E000792E2000792E2000792E2000792E2000F4
:1000F000792E2000792E2000002020210906074AB1
:10010000086004319142FBDB00F00AF800F0EAFEDF
:1001100001B403F007F801F0CDF80000D80A002080
:1001200010B5074C54F8043CB3F1FF3F06D0043C33
:10013000984754F8043DB3F1FF3FF9D110BD00BF1B
:040140001C3220004D
:1001440000B501F005FA00BD704700BF40F2180386
:10015400C2F200030A204FF0FF31002259601860F8
:100164001A7240F20C03C2F20003596018601A724A
:10017400704700BF704700BF2DE9F04FADF58E6D9D
:1001840010A80C380290029900248A68CC7102F0FD
:100194007F428A60CA68CC7202F07F42CA604A69B0
:1001A400CC7402F07F424A618A69CC7502F07F42C6
:1001B4008A61029ADFF8C83ADFF8C85A8C71CC73A6
:1001C4008C74CC768C800C82C1F81C440DF58B6148
:1001D4001360C2F82454C2F82814A2F82C44C2F8BC
:1001E400304440F2A402C2F200021068029B41F2C1
:1001F4001002C3F83404C3F83844036841F21C0500
:100204001B68984741F20C03C4F203031A6802986E
:1002140022F001021A6042F20802C4F20D021168CF
:10022400C4F2030541F00201116044F25402C4F225
:100234000D020F21116044F2D402C4F20D02082110
:1002440011604BF22042C4F20D021168064641F0DF
:100254002001116041F20002C4F20302146041F271
:100264000402C4F203020121116041F2280244F69F
:100274000001C4F20302C0F2E811116041F2240249
:10028400C4F203024FF0FF3111601A68029C42F07D
:100294000102043405941A6000F10B042B68002B4E
:1002A40040F0FF80336830461B6805999847002862
:1002B400F4D033460022197901335218A342D2B242
:1002C400F9D15342F17BDBB29942E7D1B388002BD9
:1002D400E4D1B379772BE1D0612B14BF0022012242
:1002E400682B08BF42F001021AB9482B01D0652BD4
:1002F400D4D1F279B16852EA0121CFD1F27AF1680E
:1003040052EA0122CAD1682BC8D141F20C03C4F2CB
:1003140003031968029D21F0010119604FF00103E4
:10032400AB804823AB711346059DE95C0133521839
:100334000B2BD2B2F8D1029852420368C2730EA9B1
:1003440000915B689847029A02F1100516463368DB
:1003540030461B68294698470028F8D033460022C7
:10036400197C01335218A342D2B2F9D15342F17E1F
:10037400DBB29942EBD1338A022BE8D1B37C772BE1
:1003840016D0612B14BF00220122682B08BF42F053
:1003940001021AB9482B01D0652BD8D1F37C7269BC
:1003A40053EA0222D3D1F37DB26953EA0222CED1B9
:1003B4000299029851F8103B5B689847029CA37C11
:1003C400652B00F0F880029DDFF8BC780435DDF879
:1003D400089003240195D9F8003048461B68019918
:1003E40098470028F7D0002205981346C15C0133D2
:1003F40052180B2BD2B2F9D1534299F80F00DBB249
:10040400834200F09C800022DDF814C013461CF8DF
:100414000310013352180B2BD2B2F8D15342DBB282
:100424009842D8D1B9F8040084420990D3D199F8FC
:100434000630772B1AD0612B14BF00220122682BBF
:1004440008BF42F001021AB9482B01D0652BC2D172
:1004540099F80730D9F8082053EA0222BBD199F859
:100464000B30D9F80C2053EA0222B4D1D9F8003069
:1004740048465B680EA9984799F81230772B00F02C
:10048400C08299F80630652B00F00284009C099D17
:1004940094E8070009F110036C1C83E80700A4B278
:1004A40099E741F20C03C4F203031A6822F0010233
:1004B4001A6002980023C0F83434DFF8D02744F2DD
:1004C4000403C0F22003DFF8B817C0F824241A6824
:1004D40044F20803C0F22003016018684FF40113CA
:1004E4001968A2F50112984234BF00230123B2F522
:1004F400F72F2CBF002303F00103002B3FF443AE7E
:100504004FF2FF7240F20303C0F22702C2F200036B
:1005140090428CBF00220122994294BF002302F032
:100524000103002B3FF42FAE48F20003C2F2000394
:1005340099423FF628AE0DF58E6DBDE8F08F631E2F
:10054400B9F804209BB29A427FF45DAF99F8063063
:10055400772B1DD0612B14BF00220122682B08BF0A
:1005640042F0010222B9482B02D0652B7FF44BAF35
:1005740099F80730D9F8082053EA02227FF443AFF0
:1005840099F80B30D9F80C2053EA02227FF43BAFE0
:10059400D9F8003048465B680EA9984799F80630A8
:1005A400652B00F01C81019D09F1100395E80700FB
:1005B40083E807000FE70298D0F81C24002A3FF4D0
:1005C40078AFD0F82034DFF8C076A3EB820206932C
:1005D4000699A2F50013DB0A0393A1F50013019217
:1005E400013B039ADB0A079302F50063FB180493AB
:1005F40002F580630133DB0202F5806B05934FEA59
:10060400CB2B0DF1500A4FF04808079D0398854203
:10061400C0F0E080039B0698059C049A013301997D
:10062400A04228BF204603931378451AAD08072B30
:1006340062D8002D00F0C680DAF800300A6803EAB8
:100644000202934258D100238C4607E05AF8232033
:100654005CF8231002EA01018A424DD101339D4224
:10066400F4D84FEA8509D8F810304A465046019923
:1006740098470023CDF820B0019CCB465646B94696
:100684001F460AE00198BE0034185644EA1BD8F805
:1006940010309200304621469847236832689342CE
:1006A400F0D107F1010C01994FEA8C02541852441D
:1006B4006545674614D84F46D946DDF820B0049AFC
:1006C400059C137804F50064013302F8013B019B97
:1006D40004924B440193CA4405940BF5006B94E7D0
:1006E400234653F8040B164652F8041B8842CDD116
:1006F4001C460CF1010CDBE7019C0599B4EB0B03E0
:1007040018BF012381420CBF184643F0010038B1E1
:10071400002353F80B20FA500433B3F5006FF8D1DB
:10072400049B4FF000021A70D8F80C30584601218F
:100734009847019CCBEB04029208002D40D007EBB4
:1007440082024FEA850900235AF8031004334B450B
:1007540042F8041BF8D1D8F81030DFF82C055946BC
:100764004FF40062002598475C462E4607E0C5F525
:100774000072D8F81030B8199200214698472268C0
:1007840057F825309A4218BF06EB0B04EFD1691CC9
:1007940040F2AC05C2F200050BEB8104AE1940F245
:1007A400FF1081420D468AD8234653F8040B56F8AD
:1007B400042F904201D0AE00D9E71C460131EEE788
:1007C400A946C8E7D8F81030504601992A469847F8
:1007D400A94674E702990023C1F81C3469E6029B18
:1007E400D3F81C24002A3FF464AED3F82034A3EBDE
:1007F40082020893089CA2F50013DB0A0393A4F574
:100804000013013B039DDB0A9D4201920793E1D84B
:1008140005F580630133DB02DFF86C74059305F59D
:100824000063FB1805F5806B04934FEACB2B0DF1A5
:10083400500A4FF048080398059901300390049C2E
:100844000898019A884228BF08462378861AB60871
:10085400072B69D8002E00F0CA80DAF8003012683D
:1008640003EA020293425FD10023DDF804C007E0EB
:100874005AF823205CF8231002EA01018A4253D17A
:1008840001339E42F4D84FEA8609D8F810304A461C
:100894005046019998470023CDF818B0019CCB46E7
:1008A4005546B9461F460BE00199BC000AEB040506
:1008B4006418F21BD8F81030920028462146984755
:1008C40023682A689342EFD107F1010C01994FEA9A
:1008D4008C02541852446645674619D84F46D94687
:1008E400DDF818B0049A079C1378039D013302F8CD
:1008F400013B059BAC4203F50063049205930BF5A1
:10090400006BFFF467AF0198CA444844019092E732
:10091400234653F8040B154652F8041B8842C8D1E9
:100924001C460CF1010CD6E7019D0599B5EB0B03B0
:1009340018BF012381420CBF184643F0010038B1AF
:10094400002353F80B20FA500433B3F5006FF8D1A9
:10095400049B4FF000021A70D8F80C30584601215D
:100964009847019CCBEB04029208002E47D007EB7A
:1009740082024FEA860900235AF8031004334B45D8
:1009840042F8041BF8D1D8F81030BF4859464FF448
:100994000062002598475C462E4607E0C5F50072C4
:1009A400D8F81030B819920021469847226857F8B1
:1009B40025309A4218BF06EB0B04EFD1691C40F2B4
:1009C400AC05C2F200050BEB8104AE1940F2FF1036
:1009D40081420D4686D8234653F8040B56F8042F5B
:1009E400904201D0AE00D9E71C460131EEE7D8F8B9
:1009F40010305046019932469847B14672E7B146E5
:100A0400C1E799F81330D9F8142043EA0222A2F579
:100A14000113B3F5F72FBFF434ADD9F81C34FF2B11
:100A24000CD8002B00F05682D9F820148A4200F02A
:100A34003E82D9F81C34002B00F00A81D9F8202416
:100A44000DF1500AA2EB83030393A3F50013DB0A11
:100A54000493A2F500130499013BDB0A0B9301F5FF
:100A64000063FB18069301F580630133DB020793EF
:100A740001F58063DB0208924FF048089B46CDF8ED
:100A840030900B9D04988542C0F0DD80079B089848
:100A9400069D039C984228BF1846049A2B78061B8F
:100AA4000132B608072B049265D8002E00F0C380EB
:100AB400DAF80030226803EA020293425BD1002391
:100AC400A44607E05AF823205CF8231002EA010147
:100AD4008A4250D101339E42F4D84FEA8609D8F8AD
:100AE400103050464A460399984700235546CDF89E
:100AF40028B0039CCB46D1469A460DE0039A4FEAB0
:100B04008A0409EB0405A418CAEB0602D8F81030CD
:100B1400920028462146984723682A689342EDD1DB
:100B24000AF1010C03994FEA8C0254184A446645B1
:100B3400E24614D8CA46D946DDF828B0069A079C7E
:100B4400137804F50064013302F8013B039B069219
:100B54004B440393CA4407940BF5006B91E7234677
:100B640053F8040B154652F8041B8842CCD11C469A
:100B74000CF1010CDBE70399079AB1EB0B0318BFE7
:100B84000123824218BF43F001033BB1002353F811
:100B94000B20FA500433B3F5006FF8D1069C4FF0E4
:100BA40000032370D8F80C30584601219847039D60
:100BB400CBEB05029208002E3BD007EB82024FEAF2
:100BC400860900235AF8031004334B4542F8041BEA
:100BD400F8D1D8F810302C4859464FF4006200255B
:100BE40098475C462E4607E0C5F50072D8F81030E9
:100BF400B819920021469847226857F825309A423E
:100C040018BF06EB0B04EFD1691C0BEB8104BE1972
:100C140040F2FF1081420D4690D8234653F8040B4E
:100C240056F8042F904201D0AE00DDE71C46013196
:100C3400EEE7B146CDE7D8F8103050460399324676
:100C44009847B1467AE7DDF830900023C9F81C34A0
:100C540099F81330D9F8142099F8170043EA0222BE
:100C6400D9F81C34D9F818C0D91D013340EA0C2036
:100C7400C9F81C34131D49F82100C9F8203400E4D4
:100C84005431200068312000AC0000207431200071
:100C94000299D1F81C24002A3FF40BACD1F820347B
:100CA4008E4FA3EB820206930192A2F50013069ADB
:100CB400DB0A0393A2F50013039C013BDB0A0893B0
:100CC40004F50063FB18049304F580630133DB022D
:100CD40004F5806B05934FEACB2B0DF1500A4FF0CE
:100CE4004808089D03988542FFF474AD0698059959
:100CF400049C019A039D884228BF08462378861ADB
:100D04000135B608072B039564D8002E00F0C78080
:100D1400DAF80030126803EA020293425AD100233F
:100D2400DDF804C007E05AF823205CF8231002EA37
:100D340001018A424ED101339E42F4D84FEA86091A
:100D4400D8F810304A465046019998470023CDF808
:100D54001CB0019CCB465546B9461F460BE0019B8F
:100D6400BC000AEB0405E418F21BD8F8103092001A
:100D740028462146984723682A689342EFD107F111
:100D8400010C01994FEA8C02541852446645674697
:100D940014D84F46D946DDF81CB0049A059C137844
:100DA40004F50064013302F8013B019B04924B44B7
:100DB4000193CA4405940BF5006B92E7234653F85C
:100DC400040B154652F8041B8842CDD11C460CF185
:100DD400010CDBE7019D0599B5EB0B0318BF01235B
:100DE40088420CBF184643F0010038B1002353F881
:100DF4000B20FA500433B3F5006FF8D1049B4FF085
:100E040000021A70D8F80C30584601219847019C0A
:100E1400CBEB04029208002E3FD007EB82024FEA8C
:100E2400860900235AF8031004334B4542F8041B87
:100E3400F8D1D8F81030294859464FF400620025FB
:100E440098475C462E4607E0C5F50072D8F8103086
:100E5400B819920021469847226857F825309A42DB
:100E640018BF06EB0B04EFD1691C40F2AC05C2F2CB
:100E740000050BEB8104AE1940F2FF1081420D46D0
:100E84008BD8234653F8040B56F8042F904201D014
:100E9400AE00D9E71C460131EEE7B146C9E7D8F800
:100EA40010305046019932469847B14675E7DA1D2D
:100EB400013399F81710D9F81800C9F81C34D9F877
:100EC400203441EA0021043349F82210C9F82034BF
:100ED400FFF7D7BAC9F820241146A7E5AC000020D3
:100EE40000B5FFF749F902F01BF972B62A224FF058
:100EF40000531A604FF401131B689D46BFF36F8FB4
:100F040044F20403C0F220031B689847002000BD8C
:100F1400A0F12400A0F5806000E000BFD3F8982081
:100F240000B50C2A08BFC0F8383404D0D0F8340413
:100F3400194601F0DBFC00BD00B54FF0FF3283B071
:100F44008DF808208DF8092041F21002ADF8062032
:100F54000C220B46D0F8340402A900920DF10602CB
:100F640001F086FD03B000BD10B50446D4F8383452
:100F740008467BB103F10C010C2200F0A1F9D4F86E
:100F84003404D4F8381401F0B1FC0023C4F8383424
:100F9400012010BD1846FCE730B500F0DDF9AD497D
:100FA4004B68002B00F04A815A6843F20F008242DA
:100FB40009D8B2F5405F06D0DB68002B00F03E8113
:100FC4005A688242F5D9A2F540525A60CA68A148CB
:100FD400A2F54052CA605A6892B90468012C00F024
:100FE400E0809968002900F00F81DD68002D00F091
:100FF4001981CD60DA6891600268013A02605A682A
:101004001968DFF854C200238C18CCF80030CCF8EF
:101014000430CCF80830CCF80C304BD04FF44050AE
:101024008C506060A360E360DCF80C301B18CCF8D3
:101034000C30DCF8043051F802E06068002B00F05A
:1010440094801D687044A8420CBF1A461A4604D006
:10105400D26812B111688842FAD159686D18AE4548
:1010640007D0DB68002B7FD01868596841188E457B
:10107400F7D119461346C3B160685A688218626092
:10108400DCF80000012800F084809A68002A00F04F
:101094008D80DD68002D00F09880D560DB689A6053
:1010A400DCF80030013BCCF8003019B14A686368C1
:1010B400D3184B60694BC3F800C000F017FA00F076
:1010C40043FA45F24003C4F20D031A6845F244039F
:1010D400C4F20D03186845F24803C4F20D031968FD
:1010E40045F24C030904C4F20D031B6801EB002113
:1010F400891801EB03615A4B1B78002B45D0594BDF
:101104001B68C918584B1B681A7D002A40F0888058
:101114005A7D003A18BF012244F66D63C4F2C61327
:1011240003FB01F101F540513931B1F1FF3F28BF13
:1011340001314A4003FB02F24C4902F54052393274
:101144000878B2F1FF3F28BF0132424003FB02F3AB
:1011540003F540534A783933B3F1FF3F28BF0133D5
:101164005340434A136030BD1346DCF80010002995
:101174003AD1A160E160DCF80020CCF804400132EF
:10118400CCF80840CCF8002075E7364B1B68C91A28
:10119400B8E70023CCF80430CCF80830CCF80030A1
:1011A40083E74260826002605A6829E700283FF4BE
:1011B4007CAFDCF80430DB68CCF804309A60DCF8EF
:1011C4000030013BCCF800306FE700283FF46DAFEE
:1011D400DCF808309B68CCF80830DD60DCF80030BF
:1011E400013BCCF8003060E7DCF808200021D46033
:1011F400DCF80820E160A260DCF80020CCF80840AC
:101204000132CCF8002036E7002C3FF4F9AE4168F7
:10121400C96841608A600268013A02605A68EFE670
:10122400012279E7002C3FF4EBAE81688968816084
:10123400CA600268013A02605A68E1E6DFF818C041
:101244000023CCF80030CCF80430CCF80830CCF8CB
:101254000C302FE7C80A00203C0000204C0000207E
:101264005900002054000020A40000207831200000
:101274005000002040F2A0030022C2F200031A60D2
:1012840040F29C03C2F200031A6040F23003C2F23F
:1012940000030A204FF0FF31596018601A7240F2BF
:1012A4002403C2F20003596018601A72704700BF29
:1012B400704700BF704700BF00B501F003FE00BDDA
:1012C4000F2A30B405460C4642D941EA000313F014
:1012D400030F02BF14468C46034609D0002314F8BA
:1012E40003C005F803C001339A42F8D130BC7047FB
:1012F400DCF80050103C1D60DCF804505D60DCF844
:1013040008509D60DCF80C500CF1100CDD601033BB
:101314000F2CEDD8A2F1100404F00F0224F00F04F6
:10132400103405190C19032A12D9002354F803C0E8
:1013340045F803C00433C3EB020CBCF1030FF5D82A
:10134400043A22F003030433ED18E41802F0030214
:10135400002AC3D1CAE700BF00B500F001F800BD00
:10136400DFF818C170B4CCF1005202F5E042002A53
:101374004AD00023424DCCF800C0CCF80420CCF86D
:101384000830CCF80C30EB686446D318EB606B681B
:10139400002B3CD01E680CEB8200B0420CBF1A46F6
:1013A4001A4604D0D26812B111688842FAD1596839
:1013B40006EB8106B44208D0DB68002B26D05868BF
:1013C400196801EB80018C42F6D119461346ABB182
:1013D400DCF804005A688218CCF804202C68284AE7
:1013E400012C23D09868002825D0DD68002D3AD040
:1013F400C560DB6898601368013B136021B14A68DB
:10140400DCF80430D3184B6070BC704713462A686C
:101414001B48D2B90121CCF80820CCF80C2001607B
:10142400C0F804C0C0F808C01146D0E700235360D8
:1014340093601360E2E7002CE0D05368DB685360EC
:1014440098601368013B1360D8E781680132C1F8E2
:101454000CC08168CCF808100021CCF80C10C0F83E
:1014640008C00260B3E7002CC8D093689B689360FF
:10147400DD601368013B1360C0E700BFD80A002099
:10148400C80A002012490B7803BB42F20003C4F2DD
:101494000D031A6842F400121A6018684FF6F872C5
:1014A400CFF6FE6200EA02021A6042F20402C4F2BB
:1014B4000D02136813F4803FFBD142F20003C4F21F
:1014C4000D031A681A681A6001230B70704700BF75
:1014D4005800002000B5FFF7D5FF42F29803C4F28C
:1014E4000D031A6842F001021A6000BD00B5FFF74F
:1014F400F1FF00F003FB00F005F800F0B5FA00F08E
:101504001FFB00BD4EF210034EF21802CEF2000390
:101514000021CEF20002196011604EF21402CEF2E4
:1015240000024FF4FA41116006221A6042F6557126
:1015340040F6BC12C2F20002C0F22001D1631A6864
:1015440042F001021A60704700B500F081FD00BD51
:101554002DE9F04186B0DFF84C54286843683BB16C
:101564005A68272A08D8182A06D0DB68002BF7D136
:1015740001F0D2FD00231EE0183A5A60C268183AFE
:10158400C2605A6892B90468012C00F074819968A9
:10159400002900F08C81DE68002E00F0AD81CE6061
:1015A400DA6891600268013A02605A681968182082
:1015B4008B188850043301211972FB4900221A60E8
:1015C40019610A22F9495A600868002800F06C8100
:1015D400DA60F74A136000230593059B286801939A
:1015E40043683BB15A683B2A08D82C2A06D0DB68EA
:1015F400002BF7D101F090FD00241EE02C3A5A6034
:10160400C2682C3AC2605A6892B90468012C00F08E
:1016140037819968002900F05681DE68002E00F0B9
:101624007781CE60DA6891600268013A02605A6894
:101634001B682C219C1899500434DE4F3B68A4612C
:1016440023600023E36023616361019A2362E26102
:10165400636272B628684368002B00F0FB805A6806
:1016640041F213018A4240F2EE80A2F58052043A1C
:101674005A60C268A2F58052043AC2605A68AAB994
:101684000668012E00F00B819968002900F065813D
:10169400D3F80CC0BCF1000F00F07781C1F80CC086
:1016A400DA6891600268013A02605A681B6841F284
:1016B4000400991898500A1D02F57C636260BE4AC2
:1016C4004FF08071BD4E196042F00101D96346F0BC
:1016D400010606A99E632046A36041F80C2D4FF431
:1016E400805200F0DDFE6FF000430493049B2868F1
:1016F400009343683BB15A683B2A09D82C2A07D087
:10170400DB68002BF7D101F007FD4FF0000825E05E
:101714002C3A5A60C2682C3AC2605A68BAB9D0F8F6
:1017240000C0BCF1010F00F0B0809968002900F0FE
:10173400D680D3F80CE0BEF1000F00F0F580C1F8BC
:101744000CE0DA6891600268013A02605A681B682A
:101754002C2103EB0208995008F104083B68C8F8EF
:101764001880C8F800300123C8F80C300023C8F8EA
:101774001430C8F81030009AC8F82030C8F81C207B
:10178400C8F8243072B628684368002B4CD05A68D5
:1017940041F213018A4241D9A2F58052043A5A60B7
:1017A400C268A2F58052043AC2605A688AB90568D0
:1017B400012D6FD09968002900F0C380DF68002FE5
:1017C40000F0D780CF60DA6891600268013A026065
:1017D4005A681B6841F20400991898500A1D02F5D2
:1017E4007C63C8F80420764A4FF08071196042F097
:1017F4000101D96306A99E634046C8F8083041F840
:10180400102D4FF4805200F04BFE6E4B01221A70E3
:10181400A06801F0C1FB06B0BDE8F08141F2040C00
:101824006245B9D0DB6853B901F076FC4FF47C63B0
:101834000022D6E76245AFD0DB68002BF4D05A68AB
:101844008A42A9D8F6E741F2040C62453FF40DAF91
:10185400DB685BB901F060FC4FF47C6300222DE788
:1018640062453FF402AFDB68002BF3D05A688A422A
:101874003FF6FBAEF4E74260826002605A6895E688
:101884004260826002605A68D2E64260826002600E
:101894005A685CE74260826002605A6899E7426075
:1018A400826002605A6801E70B605A6890E6002C77
:1018B4003FF47CAE4168C96841608A600268013ABD
:1018C40002605A6872E6002C3FF4B2AE4168C968FF
:1018D40041608A600268013A02605A68A8E6BCF175
:1018E400000F3FF434AF4168C96841608A60026800
:1018F400013A02605A682AE7002C3FF457AE816827
:1019040089688160CA600268013A02605A684DE6DB
:10191400002C3FF48DAE816889688160CA600268DA
:10192400013A02605A6883E6BCF1000F3FF40FAF3E
:10193400816889688160CA600268013A02605A68F5
:1019440005E7002D3FF445AF4168C96841608A60EE
:101954000268013A02605A683BE7002E3FF4A6AEE3
:101964004168C96841608A600268013A02605A6845
:101974009CE6002D3FF42DAF816889688160CA60C0
:101984000268013A02605A6823E7002E3FF48EAEE3
:10199400816889688160CA600268013A02605A6895
:1019A40084E600BF4C00002099242000BC0A0020DB
:1019B40078000020740000200C012000C5282000BD
:1019C4009923200098000020244B022224491A6005
:1019D40000230B6023490B6049F23803C4F2080367
:1019E4001A6049F24002C4F208020821116003217E
:1019F40019600421116049F24802C4F20802106817
:101A040040F080001060196049F24C032022C4F2B7
:101A140008031A6049F25003C4F208031A6842F03A
:101A240080021A601A6812F0010F1EBF1A6842F091
:101A340010021A6049F21C03C4F2080305221A605A
:101A440049F22403C4F2080301221A6049F22C0368
:101A5400C4F2080304221A60704700BF5C0000202F
:101A6400AC090020B809002000B5FFF70BFD4BF2CC
:101A74002043C4F20D031A6822F004021A604BF2E8
:101A84000043C4F20D031A6842F004021A604BF2D8
:101A94001003C4F20D03FF221A6049F23C02C4F29F
:101AA4000802136843F001031360136843F0020350
:101AB4001360136813F0800FFBD049F20403C4F2DF
:101AC40008031A6822F001021A60FFF77DFF084B31
:101AD40001221A60074A084BC3F8F0204EF204139F
:101AE400CEF200031A6842F480521A6062B600BD56
:101AF4005C000020392D2000BC09002072B64EF68F
:101B04001453CEF200031A680B4942F001021A6022
:101B14004EF280134FF0FF32CEF200031A604EF201
:101B24008413CEF200031A60044A0023CA5004331B
:101B3400B3F5807FFAD17047BC090020C52E200080
:101B440000B5002000F018FA00BD00BF2DE9F00137
:101B5400466894B20023CB600C8149600F1D002EAF
:101B640022D0D0F80880B8F80430A34222D8D8F89C
:101B740008308BB14546B3F804C0A44507D9CDB1AC
:101B84000136AF604660CB60BDE8F00170479A68EB
:101B940012B11D461346EEE7C36801369F60002369
:101BA400CB604660C760EFE70123CE604360876087
:101BB400C760E9E70136C1F80C8046608760E3E757
:101BC40010B44468012C17D0836801F1040C9C45BF
:101BD40017D04BB19A682AB1944503D01346926842
:101BE400002AF9D1CA689A60C268944508BFC360E4
:101BF400013C446010BC704700238360C3604360B1
:101C0400F8E7002CF6D0CB68013C83604460F1E730
:101C1400F0B58468064617468DB29CB1002001E0F9
:101C2400A46874B1A388AB42FAD120683146036832
:101C34002A46D3F800C03B46E047A4680120002CA4
:101C4400F0D1F0BD2046FCE70023F0B54360044624
:101C54008360C360C648A361206042F2A800C4F256
:101C64000D00D0F800C0E3614CF0010CC0F800C0D6
:101C740048F28C60C4F20800036048F29060C4F239
:101C84000800036048F25860C4F208004FF0F80CF2
:101C9400C0F800C048F2E870C4F208004FF0090C24
:101CA400C0F800C048F2C860C4F208004FF0150C38
:101CB400C0F800C048F60400C4F208004FF00B0C52
:101CC400C0F800C048F2B860C4F208004FF0010C3C
:101CD40023626362A362E36223636363A363C0F862
:101CE40000C0236463642161A287A24D286843680D
:101CF4003BB15A68B72A08D8A82A06D0DB68002B5B
:101D0400F7D101F009FA00231EE0A83A5A60C2682C
:101D1400A83AC2605A6892B90668012E00F0EE80B3
:101D24009968002900F0F480DF68002F00F0088132
:101D3400CF60DA6891600268013A02605A681968F3
:101D4400A8208B1888500433412159705A1C5178AB
:101D5400022001F0FC0160F3830101F0CC0160F387
:101D64008711517000228D21C3F89C3083F88D2097
:101D7400C3F89020C3F89420C3F89810C3F8A020A7
:101D8400E364286843683BB15A68B72A08D8A82A8C
:101D940006D0DB68002BF7D101F0BEF900231EE06A
:101DA400A83A5A60C268A83AC2605A6892B90568EB
:101DB400012D00F0A8809968002900F0B580DE6844
:101DC400002E00F0C980CE60DA6891600268013AA2
:101DD40002605A681968A8208B188850043341217E
:101DE40059705A1C5178022001F0FC0160F3830100
:101DF40001F0CC0160F38711517000258D2248F663
:101E0400380683F88D50C3F89820C3F89050C3F86F
:101E14009450C3F89C30C3F8A050C4F20806A364DD
:101E2400EE233360ED233360237D48F2D052C4F2B5
:101E340008021360617D48F2D453C4F208031960A8
:101E44001268FF2722751B682046637548F20063F9
:101E5400C4F208031A680B2142F001021A6048F226
:101E64008C53C4F208031D6048F20863C4F20803EB
:101E74001A6842F001021A6048F25063C4F208037F
:101E84001F6048F24063C4F20803D5221A6048F286
:101E94002463C4F208031A6842F040021A6000F096
:101EA40017FD48F29473C4F208031F6048F6340324
:101EB400C4F208031D6048F63003C4F208031D6031
:101EC40048F62C03C4F208031D60204600F026FDEA
:101ED40048F22863C4F208031A6842F001021A6047
:101EE40048F28C63C4F2080304221A6048F2906337
:101EF400C4F208031D60E3233360F0BD42608260D6
:101F040002605A681BE74260826002605A6861E7B7
:101F1400002E3FF414AF4168C96841608A600268CA
:101F2400013A02605A680AE7002D3FF453AF416852
:101F3400C96841608A600268013A02605A6849E7E8
:101F4400002E3FF4FCAE816889688160CA60026833
:101F5400013A02605A68F2E6002D3FF43BAF816813
:101F640089688160CA600268013A02605A6831E790
:101F7400DC3120004C00002070B50446304B18685A
:101F840041680B46002956D04A68632A07D8542A68
:101F940005D0DB68002B4ED05A68632AF7D9543A2F
:101FA4005A60C268543AC2605A6872B90568012D11
:101FB40029D09E68002E2BD0D968002931D0F16039
:101FC400DA68013D056096605A681B6854219D18C3
:101FD4009950043521461A222846FFF735FE194B3D
:101FE4002A2103EBC402516043F83450164A174BBC
:101FF400C3F8A8204EF20013CEF200031A6842F090
:1020040080621A6070BD0260426082605A68DCE7D8
:10201400002DDAD0C968013D056041608A605A68C4
:10202400D3E7002DD1D08168013D896805608160C6
:10203400CA605A68C9E701F06FF80025CAE700BF13
:102044004C000020A4000020552A2000BC090020D8
:1020540010B5314B186841680B46002957D04A68BF
:10206400272A07D8182A05D0DB68002B4FD05A68D6
:10207400272AF7D9183A5A60C268183AC2605A68CF
:1020840092B9D0F800C0BCF1010F1FD09C68002C9D
:1020940024D0D96800292DD0E160DA680CF1FF3C26
:1020A400C0F800C094605A68196818208B188850CA
:1020B40004331A490122196119491A605A601A72C3
:1020C400486840B1DA60174A136010BD026042608C
:1020D40082605A68E8E74B605A68F3E7BCF1000F86
:1020E400E2D0C9680CF1FF3CC0F800C041608A60CE
:1020F4005A68D9E7BCF1000FD6D081680CF1FF3CD7
:102104008968C0F800C08160CA605A68CCE701F0F1
:1021140003F80023CDE700BF4C000020412120003C
:10212400BC0A00206400002040F26803C2F20003ED
:1021340000221A605A609A60704700BFF0B572B608
:102144003B4B1A6801321A603A4A13682BB1516842
:10215400486801380028486007DD002362B61BB1D7
:10216400586803689B689847F0BD012B36D0C8684F
:102174004FF0000C013B50601360C0F808C00B68BE
:102184009868B0F1FF3F03D0013898600028E5D08B
:10219400D3F800C01668C1F804C02648002E33D016
:1021A40047687C68A44538BF3D4609D3F868E8B160
:1021B400C4EB0C0CC1F804C044680546A44512D213
:1021C400A868002827D0CCEB040C0136C160A960B4
:1021D400C5F804C08860CD601660BFE70023536073
:1021E40093601360CBE7C0680028E1D19068C4EB2A
:1021F4000C0CC16088600020C860C1F804C0916004
:10220400116801311160A9E701228E60CE6002607D
:1022140041608160A2E78860CF60B9605160116855
:10222400CCEB040C0131C5F804C0116096E700BF83
:10223400600000206800002040F27C020023C2F20B
:102244000002D36013605360936040F29002C2F2C4
:10225400000213605360704712F0FF0F18BF0C4B5D
:1022640000B51FBF1B68DA685A68DA60884209D073
:10227400C3684BB10023CB6050F8083F8B68896872
:1022840000F02AFF62B600BD0123C360F2E700BF7D
:1022940078000020F0B572B63D4BDA68DA68106851
:1022A400DA681A68002A3DD059686FF0004CD1F8FA
:1022B40004E0E64536D0012AD3F80CE055D0D1F835
:1022C4000CC00024013AC3F804C01A60CCF80840DA
:1022D4001E682F4AD960002E2AD057680EF10405D3
:1022E4007A68DEF804103C1D914243DBFA68002A48
:1022F40040D0D2F804C02968141D8C4523DDD4F8DD
:1023040000C0DEF804108C4522DC9A68C2F80CE0A8
:10231400CEF808200022CEF80C201A68C3F808E092
:1023240001321A60DB6801221968FFF795FFF0BDDE
:102334000121CEF80860CEF80C601160C2F804E008
:10234400C2F808E0EEE7D1680029D8D00A46D0E701
:10235400916889B10136C1F80CE0C2F808E0CEF802
:102364000C20CEF808101E60DCE700225A609A6048
:102374001A60ADE73A46C2E71A68CEF8081001328F
:10238400CEF80C70C7F808E01A60C3F804E0C9E797
:102394007C00002030B5074D074C2A682368012BC8
:1023A40006D962B630BF002AF8D0FFF773FFF4E70E
:1023B40072B6FEE77C0000208C000020344BF0B5A0
:1023C400DA681C681068DA682CB9DB6801221968BD
:1023D400FFF742FFF0BDD3F80CE05F680EF104068E
:1023E4007A68DEF804103D1D914243DBFA68002A46
:1023F40040D0D2F804C03168151D8C451FDDD5F8D6
:1024040000C0DEF804108C451EDC9A681C68C2F813
:102414000CE0CEF8082001340022CEF80C201C6019
:10242400C3F808E04CB1012C1BD05C680021E268C1
:102434005A6091601A68013A1A60DC60C5E7D16895
:102444000029DCD00A46D4E79168A9B10134C1F867
:102454000CE0C2F808E0CEF80C20CEF808101C609E
:10246400E0E700225C689A605A601A68DC60013A0E
:102474001A60AAE73A46C2E71C68CEF8081001348D
:10248400CEF80C70C7F808E01C60C3F804E0C9E794
:102494007C00002000B572B6FFF790FF00BD00BFBE
:1024A4008368634B2DE9F0411A6800F11805013285
:1024B4001A60604AD368D368002B51D01768002F84
:1024C40022D0D2F8048000F11C06D8F80430C16987
:1024D40008F10404994245DA4346D4F800C0C169BE
:1024E4008C4558DC9368DD60036200234362136803
:1024F400956001331360C368012B0ED1C368012BAF
:1025040026D062B6BDE8F0810123076247621360FA
:1025140055609560C368012BF0D0C368002BEDD0E3
:10252400D168D168434B8D423ED01A68012A4BD002
:10253400016A002964D0446A002C6FD0013ACC604F
:102544001A60C368D0F824C0012BCCF80810D8D185
:10255400C2696FF000439A42D3D0FFF72FFFD1E74F
:10256400D560D7E7D8F80C30002BB5D0D3F804C029
:1025740031681C1D8C45B0DCD9680029ADD00B46F0
:10258400D3F804C031681C1D8C45F5DDD4F800C0B7
:10259400C1698C45A6DD9968D9B10137CD609D60CC
:1025A400436201621760B5E7196829B301291AD09B
:1025B400D3F804C00025DCF80C4001395C601960D4
:1025C400A560C2F80CC099E700225A609A601A60AC
:1025D40094E7136801620133C0F82480C8F80850F6
:1025E4001360556096E7D3F804C0002159609960E0
:1025F4001960C2F80CC081E78C46C2F80CC07DE7B4
:10260400002A3FF47BAFD3F804C0013ADCF80CC0D5
:102614001A60C3F804C0CCF808106FE7002A3FF42E
:102624006DAF9968013A89681A609960CC6065E772
:102634008C0000207C0000202DE9F04172B69E4BF6
:10264400DA68DA68D9681268D3F80CC002F11801A4
:102654008C4500F09E801968012900F0DF80146A1F
:10266400002C00F0AE80556A002D00F0EA80E56091
:10267400D2F824C00139CCF80840196051680860C8
:102684000421D1608D490868013808605169002926
:1026940000F0918051690124CC60D2F814C0D8684C
:1026A400D86885490CF1180570B30F68002F00F045
:1026B400A180D1F804800CF11C06D8F80410DCF8D1
:1026C4001C0008F104048842C0F2DD80D8F80C1024
:1026D400002900F0D880D1F804E030680C1D86454C
:1026E4007DDDD4F800E0DCF81C00864500F38A8028
:1026F40099681C68CD60CCF8201001340021CCF816
:1027040024101C609D6001E00C68CD6000215161C3
:102714006949D8683CB9DB68104619680122FFF79B
:102724009BFDBDE8F081D1F80CE04F680EF1040682
:102734007868DEF804103D1D884200F3A280F96831
:10274400002900F09E80D1F804C030680D1D844536
:102754004BDDD5F800C0DEF80400844563DC9968DD
:102764001C68C1F80CE0CEF8081001340021CEF842
:102774000C101C60C3F808E04CB1012C6FD05C68ED
:102784000020E16859608860196801391960DC60CB
:10279400C1E7196889B101296AD0D3F804C00024BB
:1027A400DCF80CE00139C3F804E01960CEF8084005
:1027B400C3F80CC062E71C68AAE78C46C3F80CC0D7
:1027C4005CE700293FF45AAFD3F804C00139DCF8C0
:1027D4000CC01960C3F804C0CCF808404EE7C868C0
:1027E40000283FF47EAF014675E7C8680028B0D0E2
:1027F4000146A8E7CCF82070CCF824700C604D603A
:102804008D6083E7886800283FD07C1CC5608D609C
:10281400CCF82410CCF820001C6077E70021596024
:10282400996019602AE78868002839D00134C0F813
:102834000CE0C1F808E0CEF80C10CEF808001C60DB
:102844009AE700293FF41AAFD3F808C00139DCF83D
:1028540008C01960C3F808C0CCF80C500EE700217A
:102864005C68996059601968DC600139196052E745
:10287400D3F804C00021596099601960C3F80CC0F2
:10288400FCE6394665E741462BE71C68CCF8200096
:102894000134CCF82480C8F808501C605D6035E72A
:1028A4001C68CEF808000134CEF80C70C7F808E0B4
:1028B4001C60C3F804E05FE77C0000208C0000206B
:1028C40000B51846FFF7B8FE00BD00BF704700BF53
:1028D400A1F10B030F2B07D801EB810148F23C63F4
:1028E4002C39C4F208031960704700BF9C3130B41E
:1028F40011D0D0F818C0026A00250B684968D3F8D3
:1029040098400CF1010C121983F88D500029F4D170
:10291400C0F818C0026230BC704700BF0023836156
:10292400C361036243628362C36203634363836379
:10293400704700BF48F63403C4F20803196848F628
:102944003002C4F2080211F0040F70B51268054693
:1029540067D01A684FF0010122F004021A60036C78
:10296400123350F8236006F18D02D2E84F3FC2E8DB
:10297400441F002CF9D1DBB2002B52D148F26C6217
:10298400C4F208021068002808DD48F62801C4F2E1
:1029940008010A68F25401339842FAD148F6380320
:1029A400C4F20803ED221A6033780D3BC6F8983060
:1029B400AB8F1F2B36D9203B012010FA03F34EF2C4
:1029C4008412CEF2000211680B431360F17AB37AD9
:1029D4002A6843EA0123190A41EA032189B2936868
:1029E40028463246984770B9AA692B6A9C363168E2
:1029F4000132AA61D1F898C0766863442B6281F8E9
:102A04008D00002EF3D1AA8F1F2A16D9203A012057
:102A140010FA02F24EF20413CEF2000319680A43CC
:102A24001A6070BD012010FA03F34EF28012CEF248
:102A3400000211680B431360C8E7012010FA02F288
:102A44004EF20013CEF2000319680A431A60E8E755
:102A5400064B01685A6800B5914200D000BD186861
:102A64000028FBD0FFF766FFF8E700BFA4000020B2
:102A74002DE9F04F9B46436C81B00092DDF828901D
:102A840003F11302054600EB82024FF0010E52F8E7
:102A9400046B06F18D0CDCE84F0FCCE844EF002CFE
:102AA400F9D1C0B20133012801D16B64EFE748F6D4
:102AB4003804C4F20804EF235FFA89FA23600AF1A8
:102AC4000D02334603F8012B012242F040027270DA
:102AD4005A78022702F0FC0267F3830202F0CC0268
:102AE40067F387125A704FF000084FF0FF333371C9
:102AF40073713A4686F80380B01DFEF7E1FB05F1D9
:102B040014013A4606F10800FEF7DAFB009A59462A
:102B1400138806F10C001A0A42EA03239BB2B3722B
:102B24001B0AF3725246FEF7CBFBEE232360317887
:102B340048F62803C4F2080316F8082008F101082F
:102B440041451A60F8DA48F63803C4F20803E9226A
:102B540048F630011A60C4F208010A6848F63003E6
:102B640012F0020FC4F20803F7D01A68484622F0A4
:102B740002021A60EB690133EB616B6A4B446B62CE
:102B8400002386F88D3001B0BDE8F08F002308499A
:102B94001A46CA500433B3F5006FFAD1044B082225
:102BA40003F5807183F8002801338B42FAD1704712
:102BB400AC000020154BC0B21B68042B00D070473A
:102BC40049F23803C4F20803032249F24401D3F85A
:102BD40000C0C4F208011A600A6849F2440312F002
:102BE400010FC4F20803F7D149F29802C4F20802B3
:102BF40010600A2802BF1A6842F001021A6049F202
:102C04003803C4F20803C3F800C0D8E75C0000200E
:102C14004278531F1D2B15D8DFE803F0322C14140F
:102C2400161414141414141414141414141414145E
:102C340014141414141414120F120378212B30D00A
:102C4400012070470020FCE70378B3B90379427987
:102C540053EA0222F4D18379C27953EA0222EFD1F2
:102C64008378C07843EA00200128EBD12B4B04225F
:102C74001A60E6E70378802B2ED0212ADED0DFE726
:102C84000378002BDCD18378C278012043EA022246
:102C940049F20003C4F208031A60204B03221A60AD
:102CA400CFE78378C27853EA0222C9D11C4B196852
:102CB4001A715A7162F31F0108229A71194A196034
:102CC40013608379C279012043EA0222164B072A52
:102CD40028BF07221A60B4E7C378012B0FD0022B58
:102CE400AED1124A0F4B1A608379C279012043EAAC
:102CF40002220D4B432A28BF43221A60A1E70C4944
:102D0400084A11608279C179184642EA0121064ACB
:102D1400122928BF1221116093E700BF5C00002034
:102D2400B0090020AC090020B8090020903120002F
:102D34007C31200049F2380370B5C4F208031D68E1
:102D440049F21803C4F208031B6882B013B113F0EC
:102D5400040F7CD149F20803C4F208031B68002B5A
:102D640039D013F0010F36D049F23803C4F2080306
:102D740000221A6049F24403C4F208031B6813F0EA
:102D8400010F38D049F25803C4F208031B6849F212
:102D94008001DBB26846C4F208019A4206D2D1F837
:102DA40000C000F802C00132082AF6D149F24404F6
:102DB400C4F208042368684643F040032360FFF725
:102DC40027FFA0B1DFF8A4C0DCF80030CBB923683A
:102DD40043F00803236049F21003C4F208031B689C
:102DE40049F23803C4F208031D6002B070BD2368C1
:102DF40043F020032360DFF874C0DCF80030002BBC
:102E0400E9D01B4E3268C2B149F28004DCF80010EC
:102E14000023C4F20804C85C0133013A2060C818D6
:102E2400CCF80000101E18BF01201F2B8CBF0020FF
:102E340000F0010032600028EDD15AB149F2440398
:102E4400C4F208031A6842F002021A60C3E7FEF7EC
:102E5400BBFD7FE749F24403C4F208031968CCF8C8
:102E6400002041F00A011960B5E700BFAC09002059
:102E7400B809002000B52DE9F00F00F003F8BDE813
:102E8400F00F00BD00B54FF000531B6881B02A2B32
:102E94000DD0EFF30383094A03F03F0301A840F880
:102EA400043D52F823306846984701B000BD44F20F
:102EB4000803C0F220031B689847F6E7BC0900200A
:102EC400704700BF2DE9F04572B61E4E1E4C16F831
:102ED400015CDFF87880A24600278DB1092D28D047
:102EE4000A2D18D02368284601332360FFF762FEB9
:102EF40023684F2B05DC013616F8015C002DEDD15B
:102F0400FEE70D20FFF756FE0A20FFF753FE0136B9
:102F1400CAF80070F0E70D20FFF74CFE2846FFF7D3
:102F240049FED8F8003027600133C8F80030013674
:102F3400E2E72846FFF73EFE2368013608332360A4
:102F4400DAE700BFE93120009C000020A000002047
:102F540030B5104C0546236823B1DA68013ADA60CB
:102F6400DA688AB1636823B15A682846DA601B6953
:102F74009847A36823B11A7A1AB91B692846984757
:102F840030BD5A68DA60F8E75A68DA601B69984716
:102F9400E8E700BFBC0A00204E4B70B41D6847F23E
:102FA4000003C2F200034FF480525A6000229A6078
:102FB400DA60EA681B6002F58052EA60D3F804C064
:102FC4006B68002B50D00CF1005C1E680CF5E04CD3
:102FD400B4450CBF1A461A4604D0D26812B111681F
:102FE4008C45FAD147F20001C2F200010C6859681D
:102FF4007618B44208D0DB68002B34D0D3F800C074
:10300400596861448C42F6D119461346BBB147F264
:103014000002C2F200025468D3F804C0A444C2F807
:1030240004C02A68012A2DD09C68002C38D0DE68A0
:10303400002E2CD0E660DB68013A9C602A6039B12E
:1030440047F20003C2F200035B684A68D3184B607E
:103054008546BFF36F8F04BC82F30388BDE8FF5F2E
:1030640000BD70BC704713462A6812BB47F20001CA
:10307400C2F200018A60CA606960A9600121296006
:103084001146C3E700236B60AB602B60D7E7002ACF
:10309400D5D0AB68013A9B682A60AB60DE60CEE7AE
:1030A400002ACCD06B68013ADB682A606B609C60B4
:1030B400C5E7A96847F2000CC2F2000CC1F80CC0C5
:1030C400CCF8081001320021CCF80C102A60C5F8A5
:1030D40008C09BE74C0000200FF2240204B42DE941
:1030E400FF5FEFF3038204B4C0F800D08D46BFF352
:1030F4006F8F04BC82F30388BDE8FF5F04BC97466E
:10310400704700BF40F6C823C2F2000300221A60D1
:103114005A609A60DA60704700B5FEF7CDF800BDDA
:10312400074B10B51A6852B9064C01221A6063683D
:103134002BB10434984754F8043F002BFAD110BD46
:083144000400002020322000ED
:10314C0000000000000000006D0F20003D0F20006B
:10315C00210F2000DCFBFFFF00000000150F2000FA
:10316C000000000000000000B91220003030000008
:10317C001201000202000020501D1C600300000020
:10318C000001000009024300020100A0190904001B
:10319C0000010202010005240010010424020205B2
:1031AC0024060001052401000107058203400040AC
:1031BC0009040100020A0000000705830220000038
:1031CC0007050402000100000000000000000000E0
:1031DC00511B2000C51B2000151C200050414E49DE
:0431EC0043210A0071
:1031F000FFFFFFFF450120004D012000510120008D
:103200009D0F2000791220002D2120003D2220005A
:10321000D1282000912B200009312000000000005F
:08322000FFFFFFFF00000000AA
:04000005002000F8DF
:020000040027D3
:0CFFD400FFFFFFF700000000000020000D
:00000001FF
