:020000040020DA
:1000000000800020F90020009118200091182000A5
:1000100091182000911820009118200091182000BC
:1000200091182000911820009118200091182000AC
:10003000911820009118200091182000911820009C
:10004000911820009118200091182000911820008C
:10005000911820009118200091182000911820007C
:10006000911820009118200091182000911820006C
:10007000911820009118200091182000911820005C
:10008000911820009118200091182000911820004C
:10009000911820009118200091182000911820003C
:1000A000911820009118200091182000911820002C
:1000B000911820009118200091182000911820001C
:1000C000911820009118200091182000911820000C
:1000D00091182000911820009118200091182000FC
:1000E00091182000911820009118200091182000EC
:1000F0009118200091182000002020210906074AAD
:10010000086004319142FBDB00F00AF800F05EFF6A
:1001100001B401F0EDFB01F0FDF80000740A0020CD
:1001200010B5074C54F8043CB3F1FF3F06D0043C33
:10013000984754F8043DB3F1FF3FF9D110BD00BF1B
:04014000A0192000E2
:1001440062B67047704700BF40F21403C2F2000366
:100154000A204FF0FF310022596018601A7240F2F1
:100164000803C2F20003596018601A72704700BF96
:10017400704700BF44F20403C0F220031A6844F23B
:100184000803C0F220032DE9F04F18684FF401135F
:100194001968A2F50112984234BF00230123B2F575
:1001A400F72F2CBF002303F00103ADF58B6DC3B112
:1001B4004FF2FF7240F20303C0F22702C2F20003BF
:1001C40090428CBF00220122994294BF002302F086
:1001D400010333B148F20003C2F20003994240F232
:1001E4007A81DFF8803A1A68042AFCD10EA8043810
:1001F400029002990022CA71029C8A718A80A168C5
:1002040041F20C0301F07F41A160E168E27201F068
:100214007F41E1606169E27401F07F416161A1693C
:10022400E27501F07F41A161E273A274E276C4F247
:1002340003031968228221F00101196042F20801C6
:10024400C4F20D010868C4F81C2440F002000860E0
:1002540044F25401C4F20D010F20086044F2D401A9
:10026400C4F20D01082008604BF22041C4F20D01D4
:100274000868DFF8F45940F02000086041F20001FA
:10028400C4F203010A6041F20402C4F20302012130
:10029400116041F2280244F6000144F8045BC4F200
:1002A4000302C0F2E8110494116041F22402C4F282
:1002B40003024FF0FF3111601A68029842F0010204
:1002C40041F21C051A60C4F2030500F10B04064652
:1002D4002B68002B40F05881336830461B68049922
:1002E40098470028F4D03346002219790133521874
:1002F400A342D2B2F9D15342F17BDBB29942E7D1A6
:10030400B388002BE4D1B379772BE1D0612B14BFF0
:1003140000220122682B08BF42F001021AB9482BBF
:1003240001D0652BD4D1F279B16852EA0121CFD141
:10033400F27AF16852EA0122CAD1682BC8D141F29B
:100344000C03C4F2030319684FF0010021F001010A
:100354001960029948238B7188801346049DE95CD7
:10036400013352180B2BD2B2F8D1029852420368CF
:10037400C2730EA900915B689847029A02F11005B6
:100384001646336830461B68294698470028F8D03B
:1003940033460022197C013352189C42D2B2F9D15F
:1003A4005342F17EDBB29942EBD1338A022BE8D17E
:1003B400B37C772B16D0612B14BF00220122682B4B
:1003C40008BF42F001021AB9482B01D0652BD8D1DD
:1003D400F37C726953EA0222D3D1F37DB26953EA02
:1003E4000222CED10299029851F8103B5B689847DB
:1003F400029CA37C652B00F05481029DDFF86C788D
:100404000435DDF8089003240195D9F800304846F6
:100414001B68019998470028F7D0002204981346D6
:10042400C15C013352180B2BD2B2F9D1534299F863
:100434000F00DBB2834200F0F8800022DDF810C028
:1004440013461CF80310013352180B2BD2B2F8D107
:100454005342DBB29842D8D1B9F8040084420990DF
:10046400D3D199F80630772B1AD0612B14BF002210
:100474000122682B08BF42F001021AB9482B01D0AF
:10048400652BC2D199F80730D9F8082053EA022223
:10049400BBD199F80B30D9F80C2053EA0222B4D11D
:1004A400D9F8003048465B680EA9984799F812308D
:1004B400772B00F01C8399F80630652B00F05E84DE
:1004C400009C099D94E8070009F110036C1C83E863
:1004D4000700A4B299E741F20C03C4F203031A68BB
:1004E40022F001021A6042F20802C4F20D021168FD
:1004F40041F00201116044F25402C4F20D020F21D2
:10050400116044F2D402C4F20D02082111604BF2CE
:100514002042C4F20D02116841F02001116041F241
:100524000002C4F203020021116041F20402C4F289
:1005340003020131116041F2280242F20041C4F287
:100544000302C0F2F401116041F22402C4F2030276
:100554004FF0FF3111601A6842F001021A6041F253
:100564001C02DFF80037C4F203021968012958DDC0
:100574001A68012A4CDD41F20C02C4F2030211682C
:1005840021F0010111602EE641F20C03C4F20303D1
:100594001A6822F001021A6044F20403C0F2200334
:1005A4001A6844F20803C0F2200318684FF40113D8
:1005B4001968A2F50112984234BF00230123B2F551
:1005C400F72F2CBF002303F00103002B3FF411AEDF
:1005D4004FF2FF7240F20303C0F22702C2F200039B
:1005E40090428CBF00220122994294BF002302F062
:1005F4000103002B3FF4FDAD48F20003C2F20003F7
:1006040099423FF6F6AD16B00DF5806DBDE8F08F5A
:1006140041F20C03C4F203031A6822F001021A60C7
:10062400F1E711680029A0D0A2E7631EB9F80420FD
:100634009BB29A427FF401AF99F80630772B1DD014
:10064400612B14BF00220122682B08BF42F0010273
:1006540022B9482B02D0652B7FF4EFAE99F807300E
:10066400D9F8082053EA02227FF4E7AE99F80B3058
:10067400D9F80C2053EA02227FF4DFAED9F8003017
:1006840048465B680EA9984799F80630652B00F038
:100694001D81019D09F1100395E8070083E8070017
:1006A400B3E60298D0F81C24002A3FF475AFD0F8C2
:1006B4002034DFF8B875A3EB820206930699A2F5FD
:1006C4000013DB0A0393A1F500130192013B039A83
:1006D400DB0A079302F50063FB18049302F58063B9
:1006E4000133DB0202F5806B05934FEACB2B0DF14E
:1006F400500A4FF04808079D03988542C0F0E180F6
:10070400039B0698059C049A01330199A04228BFD3
:10071400204603931378451AAD08072B63D8002DA0
:1007240000F0C780DAF800300A6803EA0202934254
:1007340059D100238C4607E05AF823205CF8231093
:1007440002EA01018A424ED101339D42F4D84FEAB4
:100754008509D8F810304A46504601999847002335
:10076400CDF820B0019CCB465646B9461F460BE057
:10077400019ABC000AEB0406A418EA1BD8F810304E
:100784009200304621469847236832689342EFD15D
:1007940007F1010C01994FEA8C0254185244654543
:1007A400674614D84F46D946DDF820B0049A059C14
:1007B400137804F50064013302F8013B019B0492B1
:1007C4004B440193CA4405940BF5006B93E723460D
:1007D40053F8040B164652F8041B8842CDD11C462C
:1007E4000CF1010CDBE7019C0599B4EB0B0318BF7A
:1007F400012388420CBF184643F0010038B100239E
:1008040053F80B20FA500433B3F5006FF8D1049B6E
:100814004FF000021A70D8F80C305846012198475E
:10082400019CCBEB04029208002D40D007EB82021E
:100834004FEA850900235AF8031004334B4542F864
:10084400041BF8D1D8F81030DFF8200459464FF4CF
:100854000062002598475C462E4607E0C5F5007205
:10086400D8F81030B819920021469847226857F8F2
:1008740025309A4218BF06EB0B04EFD1691C40F2F5
:100884005405C2F200050BEB8104AE1940F2FF10CF
:1008940081420D468AD8234653F8040B56F8042F98
:1008A400904201D0AE00D9E71C460131EEE7A946DB
:1008B400C8E7D8F81030504601992A469847A94607
:1008C40074E702990023C1F81C3465E6029BD3F84F
:1008D4001C24002A3FF460AED3F82034A3EB820238
:1008E4000893089CA2F50013DB0A0393A4F50013F4
:1008F400013B039DDB0A9D4201920793E1D805F574
:1009040080630133DB02D94F059305F50063FB18BF
:1009140005F5806B04934FEACB2B0DF1500A4FF091
:1009240048080398059901300390049C0898019A9B
:10093400884228BF08462378861AB608072B69D848
:10094400002E00F0CA80DAF80030126803EA0202CE
:1009540093425FD10023DDF804C007E05AF8232056
:100964005CF8231002EA01018A4253D101339E420A
:10097400F4D84FEA8609D8F810304A46504601990F
:1009840098470023CDF818B0019CCB465546B9468C
:100994001F460BE0019BBC000AEB0405E418F21BA4
:1009A400D8F81030920028462146984723682A68D0
:1009B4009342EFD107F1010C01994FEA8C025418CC
:1009C40052446645674619D84F46D946DDF818B0F3
:1009D400049A079C1378039D013302F8013B059B9D
:1009E400AC4203F50063049205930BF5006BFFF42E
:1009F40068AF0198CA444844019092E7234653F8EB
:100A0400040B154652F8041B8842C8D11C460CF14D
:100A1400010CD6E7019D0599B5EB0B0318BF012323
:100A240081420CBF184643F0010038B1002353F84B
:100A34000B20FA500433B3F5006FF8D1049B4FF048
:100A440000021A70D8F80C30584601219847019CCE
:100A5400CBEB04029208002E47D007EB82024FEA48
:100A6400860900235AF8031004334B4542F8041B4B
:100A7400F8D1D8F810307D4859464FF4006200256B
:100A840098475C462E4607E0C5F50072D8F810304A
:100A9400B819920021469847226857F825309A429F
:100AA40018BF06EB0B04EFD1691C40F25405C2F2E7
:100AB40000050BEB8104AE1940F2FF1081420D4694
:100AC40086D8234653F8040B56F8042F904201D0DD
:100AD400AE00D9E71C460131EEE7D8F81030504695
:100AE400019932469847B14672E7B146C1E799F891
:100AF4001330D9F8142043EA0222A2F50113B3F506
:100B0400F72FBFF4D8ACD9F81C34FF2B0CD8002B2A
:100B140000F05482D9F820148A4200F03C82D9F8BB
:100B24001C34002B00F01181D9F820240DF1500A57
:100B3400A2EB83030393A3F50013DB0A0593A2F549
:100B440000130599013BDB0A0B9301F50063FB18C5
:100B5400069301F580630133DB02079301F580639B
:100B6400DB0208924FF048089B46CDF830900B9D6D
:100B740005988542C0F0E480079B0898069D039C75
:100B8400984228BF1846059A2B78061B0132B608EE
:100B9400072B05926CD8002E00F0CA80DAF80030DA
:100BA400226803EA0202934262D10023A44607E0CA
:100BB4005AF823205CF8231002EA01018A4257D133
:100BC40001339E42F4D84FEA8609D8F810305046D3
:100BD4004A460399984700235546CDF828B0039C0C
:100BE400CB46D1469A460DE003984FEA8A0409EBB6
:100BF40004052418CAEB0602D8F8103092002846DF
:100C04002146984723682A689342EDD10AF1010CE2
:100C140003994FEA8C0254184A446645E24614D8B4
:100C2400CA46D946DDF828B0069A079C137804F51D
:100C34000064013302F8013B039B06924B44039387
:100C4400CA4407940BF5006B91E7234653F8040B51
:100C5400154652F8041B8842CCD11C460CF1010CF9
:100C6400DBE700BF4C0000202019200054000020C6
:100C74000399079AB1EB0B0318BF0123904218BFE5
:100C840043F001033BB1002353F80B20FA50043323
:100C9400B3F5006FF8D1069C4FF000032370D8F829
:100CA4000C30584601219847039DCBEB050292086E
:100CB400002E3BD007EB82024FEA860900235AF844
:100CC400031004334B4542F8041BF8D1D8F8103014
:100CD400BC4859464FF40062002598475C462E46AE
:100CE40007E0C5F50072D8F81030B8199200214613
:100CF4009847226857F825309A4218BF06EB0B0430
:100D0400EFD1691C0BEB8104BE1940F2FF10814244
:100D14000D4689D8234653F8040B56F8042F904205
:100D240001D0AE00DDE71C460131EEE7B146CDE768
:100D3400D8F810305046039932469847B14673E7C5
:100D4400DDF830900023C9F81C3499F81330D9F831
:100D5400142099F8170043EA0222D9F81C34D9F870
:100D640018C0D91D013340EA0C20C9F81C34131DE6
:100D740049F82100C9F82034FFF79DBB0299D1F846
:100D84001C24002A3FF408ACD1F820348D4FA3EB87
:100D9400820206930192A2F50013069ADB0A0393DA
:100DA400A2F50013039C013BDB0A089304F50063DE
:100DB400FB18049304F580630133DB0204F5806BB4
:100DC40005934FEACB2B0DF1500A4FF04808089DCC
:100DD40003988542FFF475AD06980599049C019A21
:100DE400039D884228BF08462378861A0135B60831
:100DF400072B039562D8002E00F0C580DAF8003086
:100E0400126803EA0202934258D10023DDF804C0B9
:100E140007E05AF823205CF8231002EA01018A4211
:100E24004CD101339E42F4D84FEA8609D8F81030E9
:100E34004A465046019998470023CDF81C90019CDE
:100E4400B94655461F460BE00199BC000AEB040560
:100E54006418F21BD8F810309200284621469847AF
:100E640023682A689342EFD107F1010C01994FEAF4
:100E74008C02541852446645674613D84F46DDF831
:100E84001C90049A059C137804F50064013302F85D
:100E9400013B019B04924B440193CA4405940BF516
:100EA400006B94E7234653F8040B154652F8041BD1
:100EB4008842CED11C460CF1010CDCE7019D05995A
:100EC400BBEB050318BF012388420CBF184643F04F
:100ED400010038B1002353F80B20FA500433B3F562
:100EE400006FF8D1049B4FF000021A70D8F80C3050
:100EF400584601219847019CCBEB04029208002E2E
:100F04003FD007EB82024FEA860900235AF8031008
:100F140004334B4542F8041BF8D1D8F81030294863
:100F240059464FF40062002598475C462E4607E078
:100F3400C5F50072D8F81030B819920021469847C8
:100F4400226857F825309A4218BF0BEB0604EFD1FC
:100F5400691C40F25405C2F200050BEB8104AE1982
:100F640040F2FF1081420D468BD8234653F8040B00
:100F740056F8042F904201D0AE00D9E71C46013147
:100F8400EEE7B146C9E7D8F8103050460199324629
:100F94009847B14675E7DA1D013399F81710D9F867
:100FA4001800C9F81C34D9F8203441EA002104336C
:100FB40049F82210C9F82034FFF77DBAC9F8202473
:100FC4001146A9E55400002010B5FFF7D3F800F04E
:100FD4003DFA43F20C03C4F203031A6822F001023F
:100FE4001A6042F20802C4F20D02116841F00801CD
:100FF400116044F25402C4F20D021321116044F250
:10100400D402C4F20D02082111604BF22042C4F252
:101014000D02116841F02001116043F20002C4F294
:1010240003020021116043F20402C4F2030201210D
:10103400116043F2280244F60001C4F20302C0F234
:10104400E811116043F22402C4F203024FF0FF31AD
:1010540011601A6842F001021A6043F21C03C4F2E0
:1010640003031C68D4F1010438BF0024002CF8D118
:1010740043F20C03C4F203031A6822F001021A605B
:1010840000F034FC72B62A224FF000531A604FF479
:1010940001131B689D46BFF36F8F44F20403C0F233
:1010A40020031B689847204610BD00BF30B50D468D
:1010B4000024285D013400F089FA0C2CF9D10320B6
:1010C40000F074FA30BD00BF00B508460C2100F0F2
:1010D40021FA0C2814BF0020012000BD30B500F017
:1010E40019F97E494B68002B00F0EC805A6843F2F2
:1010F4000F00824209D8B2F5405F06D0DB68002BAE
:1011040000F0E0805A688242F5D9A2F540525A6054
:10111400CA687248A2F54052CA605A6892B9046813
:10112400012C00F086809968002900F0B380DD6806
:10113400002D00F0BB80CD60DA6891600268013A4E
:1011440002605A681968DFF898C100238C18CCF83B
:101154000030CCF80430CCF80830CCF80C3047D050
:101164004FF440508C506060A360E360DCF80C30B6
:101174001B18CCF80C30DCF8043051F802E060683D
:10118400002B3ED01D687044A8420CBF1A461A4674
:1011940004D0D26812B111688842FAD159686D1826
:1011A400AE4507D0DB68002B2AD01868596841186F
:1011B4008E45F7D119461346ABB160685A68821858
:1011C4006260DCF8000001282BD09A68002A35D030
:1011D400DD68002D40D0D560DB689A60DCF8003013
:1011E400013BCCF8003019B14A686368D3184B60EE
:1011F4003C4BC3F800C000F03DF900F041F930BDAC
:101204001346DCF80010002934D1A160E160DCF859
:101214000020CCF804400132CCF80840CCF800207F
:10122400CAE70023CCF80430CCF80830CCF80030FE
:10123400D9E74260826002605A6883E70028D2D00E
:10124400DCF80430DB68CCF804309A60DCF8003059
:10125400013BCCF80030C6E70028C4D0DCF80830E5
:101264009B68CCF80830DD60DCF80030013BCCF83A
:101274000030B8E7DCF808200021D460DCF808204E
:10128400E160A260DCF80020CCF808400132CCF820
:10129400002091E7002C3FF455AF4168C9684160D4
:1012A4008A600268013A02605A684BE7002C3FF4F6
:1012B40049AF816889688160CA600268013A026046
:1012C4005A683FE7DFF818C00023CCF80030CCF8A8
:1012D4000430CCF80830CCF80C3089E7640A0020DC
:1012E400380000204800002040F22C03C2F2000322
:1012F4000A204FF0FF310022596018601A7240F240
:101304002003C2F20003596018601A72704700BFCC
:10131400704700BF704700BF244B022224491A6063
:1013240000230B6023490B6049F23803C4F208031D
:101334001A6049F24002C4F2080208211160032134
:1013440019600421116049F24802C4F208021068CD
:1013540040F080001060196049F24C032022C4F26E
:1013640008031A6049F25003C4F208031A6842F0F1
:1013740080021A601A6812F0010F1EBF1A6842F048
:1013840010021A6049F21C03C4F2080305221A6011
:1013940049F22403C4F2080301221A6049F22C031F
:1013A400C4F2080304221A60704700BF4C000020F6
:1013B400540900206009002000B500F063F84BF2E6
:1013C4002043C4F20D031A6822F004021A604BF29F
:1013D4000043C4F20D031A6842F004021A604BF28F
:1013E4001003C4F20D03FF221A6049F23C02C4F256
:1013F4000802136843F001031360136843F0020307
:101404001360136813F0800FFBD049F20403C4F295
:1014140008031A6822F001021A60FFF77DFF084BE7
:1014240001221A60074A084BC3F8F0204EF2041355
:10143400CEF200031A6842F480521A6062B600BD0C
:101444004C000020511720006409002000B503203F
:1014540000F0ACF849F23C03C4F208031A6822F025
:1014640001021A604BF21003C4F20D0300221A6049
:1014740000BD00BF00B500F02DF8FFF79DFF00BDD3
:10148400704700BF12490B7803BB42F20003C4F259
:101494000D031A6842F400121A6018684FF6F872C5
:1014A400CFF6FE6200EA02021A6042F20402C4F2BB
:1014B4000D02136813F4803FFBD142F20003C4F21F
:1014C4000D031A681A681A6001230B70704700BF75
:1014D4005000002000B5FFF7D5FF42F29803C4F294
:1014E4000D031A6842F001021A6000BD0023084986
:1014F4001A46CA500433B3F5006FFAD1044B0822DC
:1015040003F5807183F8002801338B42FAD17047C8
:1015140054000020244A10B412680346042A02D05E
:10152400002010BC704749F23800C4F20800026081
:1015340049F25002C4F20802126812F0010FEFD00F
:1015440049F25C02C4F20802146849F25802C4F277
:101554000802126852EA04240CBF0020012000296A
:101564000CBF002000F0010098B149F2A00C00204B
:10157400C4F2080CDCF800201A540130844294BFF1
:1015840000220122814294BF002202F00102002ABB
:10159400F0D18442C5D849F25003C4F208031A6852
:1015A40022F001021A60BCE74C00002049F2380323
:1015B400C4F2080349F244021968C4F2080218602C
:1015C400106840F00100106019607047154BC0B2FC
:1015D4001B68042B00D0704749F23803C4F2080397
:1015E400032249F24401D3F800C0C4F208011A608E
:1015F4000A6849F2440312F0010FC4F20803F7D158
:1016040049F29802C4F2080210600A2802BF1A685C
:1016140042F001021A6049F23803C4F20803C3F825
:1016240000C0D8E74C0000204278531F1D2B15D86A
:10163400DFE803F0322C14141614141414141414C4
:101644001414141414141414141414141414141258
:101654000F120378212B30D0012070470020FCE7C3
:101664000378B3B90379427953EA0222F4D1837936
:10167400C27953EA0222EFD18378C07843EA00208A
:101684000128EBD12B4B04221A60E6E70378802B68
:101694002ED0212ADED0DFE70378002BDCD183783B
:1016A400C278012043EA022249F20003C4F208038B
:1016B4001A60204B03221A60CFE78378C27853EA7A
:1016C4000222C9D11C4B19681A715A7162F31F01A5
:1016D40008229A71194A196013608379C27901202A
:1016E40043EA0222164B072A28BF07221A60B4E7EE
:1016F400C378012B0FD0022BAED1124A0F4B1A60C4
:101704008379C279012043EA02220D4B432A28BF80
:1017140043221A60A1E70C49084A11608279C17911
:10172400184642EA0121064A122928BF12211160F3
:1017340093E700BF4C000020580900205409002002
:10174400600900203C1920002819200049F23803C0
:1017540070B5C4F208031D6849F21803C4F2080303
:101764001B6882B013B113F0040F7CD149F2080353
:10177400C4F208031B68002B39D013F0010F36D0D4
:1017840049F23803C4F2080300221A6049F2440300
:10179400C4F208031B6813F0010F38D049F2580350
:1017A400C4F208031B6849F28001DBB26846C4F244
:1017B40008019A4206D2D1F800C000F802C00132F2
:1017C400082AF6D149F24404C4F20804236868469E
:1017D40043F040032360FFF727FFA0B1DFF8A4C064
:1017E400DCF80030CBB9236843F00803236049F2E6
:1017F4001003C4F208031B6849F23803C4F2080357
:101804001D6002B070BD236843F020032360DFF83D
:1018140074C0DCF80030002BE9D01B4E3268C2B132
:1018240049F28004DCF800100023C4F20804C85C08
:101834000133013A2060C818CCF80000101E18BF0C
:1018440001201F2B8CBF002000F001003260002813
:10185400EDD15AB149F24403C4F208031A6842F0C4
:1018640002021A60C3E7FFF757FD7FE749F244031A
:10187400C4F208031968CCF8002041F00A01196089
:10188400B5E700BF540900206009002000B52DE928
:10189400F00F00F003F8BDE8F00F00BD00B54FF005
:1018A40000531B6881B02A2B0DD0EFF30383094A40
:1018B40003F03F0301A840F8043D52F82330684682
:1018C400984701B000BD44F20803C0F220031B682E
:1018D4009847F6E76409002040F66423C2F2000347
:0C18E40000221A605A609A60DA607047B7
:1018F000074B10B51A6852B9064C01221A6063688A
:101900002BB10434984754F8043F002BFAD110BD92
:0819100004000020A4192000CE
:101918000000000000000000CD102000B1102000E1
:101928001201000202000020501D1C60030000008C
:101938000001000009024300020100A01909040087
:10194800000102020100052400100104240202051E
:101958002406000105240100010705820340004018
:1019680009040100020A00000007058302200000A4
:08197800070504020001000054
:10198000FFFFFFFF45012000490120004D0120001D
:10199000E1102000ED122000F1142000DD182000DD
:0419A0000000000043
:0819A400FFFFFFFF000000003F
:04000005002000F8DF
:020000040027D3
:0CFFD400FFFFFFEF000000000000200015
:00000001FF
