:020000040020DA
:1000000000800020F9002000352220003522200049
:100010003522200035222000352220003522200004
:1000200035222000352220003522200035222000F4
:1000300035222000352220003522200035222000E4
:1000400035222000352220003522200035222000D4
:1000500035222000352220003522200035222000C4
:1000600035222000352220003522200035222000B4
:1000700035222000352220003522200035222000A4
:100080003522200035222000352220003522200094
:100090003522200035222000352220003522200084
:1000A0003522200035222000352220003522200074
:1000B0003522200035222000352220003522200064
:1000C0003522200035222000352220003522200054
:1000D0003522200035222000352220003522200044
:1000E0003522200035222000352220003522200034
:1000F0003522200035222000002020210906074A51
:10010000086004319142FBDB00F00AF800F034F89B
:1001100001B402F02DFA00F0ADFA0000D801002081
:1001200010B5074C54F8043CB3F1FF3F06D0043C33
:10013000984754F8043DB3F1FF3FF9D110BD00BF1B
:04014000482620002D
:1001440000B500F035FC00BD704700BF40F2180355
:10015400C2F200030A204FF0FF31002259601860F8
:100164001A7240F20C03C2F20003596018601A724A
:10017400704700BF70B54FF4846087B000F0C4F8D6
:10018400036823F0080303604FF4806000F0BCF8B8
:10019400036843F008030360202000F0B5F8044628
:1001A40040F21C4000F0B0F8036823F00803036039
:1001B400002323604F4B1A68042AFCD10022FF203D
:1001C40011464FF6FE7320600591DDF814C09C457E
:1001D40009D8DDF814C00CF1010CCDF814C0DDF819
:1001E40014C09C45F5D921600591DDF814C09C45E7
:1001F40009D8DDF814C00CF1010CCDF814C0DDF8F9
:1002040014C09C45F5D901320A2ADCD1FF232360AE
:10021400394B1B680493394B186844683CB16368D4
:100224002B2B08D81C2B06D0E468002CF7D100F047
:1002340025FA21461BE01C3B6360C3681C3BC3607A
:1002440063687BB9016801294ED0A268002A40D0B6
:10025400E568002D32D0D560E3689A600368013BFD
:100264000360636822681C20D118D0500431002335
:100274000B81CB60224B49600B6041F210030B826F
:1002840004AB4B61049841F21002036801AC1B6893
:10029400984706AE4FF0FF350C21204601F00CFEC6
:1002A4000C28F9D1009031460498164A23468DF85B
:1002B40018508DF8195001F071FDEDE70029D1D0E7
:1002C400826892688260D3600368013B036063685C
:1002D400C8E70029C6D04268D268426093600368C8
:1002E400013B03606368BDE7436083600360636848
:1002F400B8E700BF5C000020A40000204C000020F0
:10030400A0252000A42520004BF20003C4F20D0315
:1003140020F003001818704770B51E46038A92B285
:100324009342044600D070BDD6F898305BB10023E8
:100334001D46F318187B01F01BFED6F898200135F2
:10034400AA422B46F5D8032001F002FE6369314628
:10035400186801F061FCE6E730B500F093F9AD49A7
:100364004B68002B00F04A815A6843F20F00824226
:1003740009D8B2F5405F06D0DB68002B00F03E815F
:100384005A688242F5D9A2F540525A60CA68A14817
:10039400A2F54052CA605A6892B90468012C00F070
:1003A400E0809968002900F00F81DD68002D00F0DD
:1003B4001981CD60DA6891600268013A02605A6876
:1003C4001968DFF854C200238C18CCF80030CCF83C
:1003D4000430CCF80830CCF80C304BD04FF44050FB
:1003E4008C506060A360E360DCF80C301B18CCF820
:1003F4000C30DCF8043051F802E06068002B00F0A7
:1004040094801D687044A8420CBF1A461A4604D052
:10041400D26812B111688842FAD159686D18AE4594
:1004240007D0DB68002B7FD01868596841188E45C7
:10043400F7D119461346C3B160685A6882186260DE
:10044400DCF80000012800F084809A68002A00F09B
:100454008D80DD68002D00F09880D560DB689A609F
:10046400DCF80030013BCCF8003019B14A6863680D
:10047400D3184B60694BC3F800C000F067FA00F072
:1004840093FA45F24003C4F20D031A6845F244039B
:10049400C4F20D03186845F24803C4F20D03196849
:1004A40045F24C030904C4F20D031B6801EB00215F
:1004B400891801EB03615A4B1B78002B45D0594B2B
:1004C4001B68C918584B1B681A7D002A40F08880A5
:1004D4005A7D003A18BF012244F66D63C4F2C61374
:1004E40003FB01F101F540513931B1F1FF3F28BF60
:1004F40001314A4003FB02F24C4902F540523932C1
:100504000878B2F1FF3F28BF0132424003FB02F3F7
:1005140003F540534A783933B3F1FF3F28BF013321
:100524005340434A136030BD1346DCF800100029E1
:100534003AD1A160E160DCF80020CCF8044001323B
:10054400CCF80840CCF8002075E7364B1B68C91A74
:10055400B8E70023CCF80430CCF80830CCF80030ED
:1005640083E74260826002605A6829E700283FF40A
:100574007CAFDCF80430DB68CCF804309A60DCF83B
:100584000030013BCCF800306FE700283FF46DAF3A
:10059400DCF808309B68CCF80830DD60DCF800300B
:1005A400013BCCF8003060E7DCF808200021D4607F
:1005B400DCF80820E160A260DCF80020CCF80840F8
:1005C4000132CCF8002036E7002C3FF4F9AE416844
:1005D400C96841608A600268013A02605A68EFE6BD
:1005E400012279E7002C3FF4EBAE816889688160D1
:1005F400CA600268013A02605A68E1E6DFF818C08E
:100604000023CCF80030CCF80430CCF80830CCF817
:100614000C302FE7C80100203C0000204C000020D3
:100624005900002054000020A4000020A825200028
:100634005000002040F2A0030022C2F200031A601E
:1006440040F29C03C2F200031A6040F23003C2F28B
:1006540000030A204FF0FF31596018601A7240F20B
:100664002403C2F20003596018601A72704700BF75
:10067400704700BF00B501F003FE00BD00B5FFF7F1
:10068400F9FF00BD00B500F001F800BDDFF818C1A6
:1006940070B4CCF1005202F5E042002A4AD00023A3
:1006A400424DCCF800C0CCF80420CCF80830CCF88B
:1006B4000C30EB686446D318EB606B68002B3CD0BD
:1006C4001E680CEB8200B0420CBF1A461A4604D0D6
:1006D400D26812B111688842FAD1596806EB8106D2
:1006E400B44208D0DB68002B26D05868196801EBA7
:1006F40080018C42F6D119461346ABB1DCF80400F4
:100704005A688218CCF804202C68284A012C23D07B
:100714009868002825D0DD68002D3AD0C560DB68D4
:1007240098601368013B136021B14A68DCF8043017
:10073400D3184B6070BC704713462A681B48D2B963
:100744000121CCF80820CCF80C200160C0F804C0CA
:10075400C0F808C01146D0E70023536093601360CB
:10076400E2E7002CE0D05368DB68536098601368BC
:10077400013B1360D8E781680132C1F80CC081687D
:10078400CCF808100021CCF80C10C0F808C00260A6
:10079400B3E7002CC8D093689B689360DD6013684E
:1007A400013B1360C0E700BFD8010020C80100204E
:1007B40012490B7803BB42F20003C4F20D031A681A
:1007C40042F400121A6018684FF6F872CFF6FE620F
:1007D40000EA02021A6042F20402C4F20D02136833
:1007E40013F4803FFBD142F20003C4F20D031A68F4
:1007F4001A681A6001230B70704700BF580000206C
:1008040000B5FFF7D5FF42F29803C4F20D031A684E
:1008140042F001021A6000BD244B022224491A60EE
:1008240000230B6023490B6049F23803C4F2080328
:100834001A6049F24002C4F208020821116003213F
:1008440019600421116049F24802C4F208021068D8
:1008540040F080001060196049F24C032022C4F279
:1008640008031A6049F25003C4F208031A6842F0FC
:1008740080021A601A6812F0010F1EBF1A6842F053
:1008840010021A6049F21C03C4F2080305221A601C
:1008940049F22403C4F2080301221A6049F22C032A
:1008A400C4F2080304221A60704700BF5C000020F1
:1008B400AC000020B800002000B5FFF779FF4BF230
:1008C4002043C4F20D031A6822F004021A604BF2AA
:1008D4000043C4F20D031A6842F004021A604BF29A
:1008E4001003C4F20D03FF221A6049F23C02C4F261
:1008F4000802136843F001031360136843F0020312
:100904001360136813F0800FFBD049F20403C4F2A0
:1009140008031A6822F001021A60FFF77DFF084BF2
:1009240001221A60074A084BC3F8F0204EF2041360
:10093400CEF200031A6842F480521A6062B600BD17
:100944005C000020F5202000BC00002000B5FFF76B
:1009540057FF00F069FA00F005F8FFF7ADFF00F06B
:1009640085FA00BD4EF210034EF21802CEF20003D7
:100974000021CEF20002196011604EF21402CEF290
:1009840000024FF4FA41116006221A6042F211315A
:1009940040F2BC02C2F20002C0F22001D1631A6824
:1009A40042F001021A60704700B500F0E7FC00BD98
:1009B4002DE9F04186B0DFF84C54286843683BB118
:1009C4005A68272A08D8182A06D0DB68002BF7D1E2
:1009D400FFF754FE00231EE0183A5A60C268183A22
:1009E400C2605A6892B90468012C00F07481996855
:1009F400002900F08C81DE68002E00F0AD81CE600D
:100A0400DA6891600268013A02605A68196818202D
:100A14008B188850043301211972FB4900221A6093
:100A240019610A22F9495A600868002800F06C81AB
:100A3400DA60F74A136000230593059B2868019345
:100A440043683BB15A683B2A08D82C2A06D0DB6895
:100A5400002BF7D1FFF712FE00241EE02C3A5A6057
:100A6400C2682C3AC2605A6892B90468012C00F03A
:100A740037819968002900F05681DE68002E00F065
:100A84007781CE60DA6891600268013A02605A6840
:100A94001B682C219C1899500434DE4F3B68A461D8
:100AA40023600023E36023616361019A2362E261AE
:100AB400636272B628684368002B00F0FB805A68B2
:100AC40041F213018A4240F2EE80A2F58052043AC8
:100AD4005A60C268A2F58052043AC2605A68AAB940
:100AE4000668012E00F00B819968002900F06581E9
:100AF400D3F80CC0BCF1000F00F07781C1F80CC032
:100B0400DA6891600268013A02605A681B6841F22F
:100B14000400991898500A1D02F57C636260BE4A6D
:100B24004FF08071BD4E196042F00101D96346F067
:100B3400010606A99E632046A36041F80C2D4FF4DC
:100B4400805200F043FE6FF000430493049B286836
:100B5400009343683BB15A683B2A09D82C2A07D032
:100B6400DB68002BF7D1FFF789FD4FF0000825E083
:100B74002C3A5A60C2682C3AC2605A68BAB9D0F8A2
:100B840000C0BCF1010F00F0B0809968002900F0AA
:100B9400D680D3F80CE0BEF1000F00F0F580C1F868
:100BA4000CE0DA6891600268013A02605A681B68D6
:100BB4002C2103EB0208995008F104083B68C8F89B
:100BC4001880C8F800300123C8F80C300023C8F896
:100BD4001430C8F81030009AC8F82030C8F81C2027
:100BE400C8F8243072B628684368002B4CD05A6881
:100BF40041F213018A4241D9A2F58052043A5A6063
:100C0400C268A2F58052043AC2605A688AB905687B
:100C1400012D6FD09968002900F0C380DF68002F90
:100C240000F0D780CF60DA6891600268013A026010
:100C34005A681B6841F20400991898500A1D02F57D
:100C44007C63C8F80420764A4FF08071196042F042
:100C54000101D96306A99E634046C8F8083041F8EB
:100C6400102D4FF4805200F0B1FD6E4B01221A702A
:100C7400A06801F06FFB06B0BDE8F08141F2040CFE
:100C84006245B9D0DB6853B9FFF7F8FC4FF47C63D5
:100C94000022D6E76245AFD0DB68002BF4D05A6857
:100CA4008A42A9D8F6E741F2040C62453FF40DAF3D
:100CB400DB685BB9FFF7E2FC4FF47C6300222DE7AD
:100CC40062453FF402AFDB68002BF3D05A688A42D6
:100CD4003FF6FBAEF4E74260826002605A6895E634
:100CE4004260826002605A68D2E6426082600260BA
:100CF4005A685CE74260826002605A6899E7426021
:100D0400826002605A6801E70B605A6890E6002C22
:100D14003FF47CAE4168C96841608A600268013A68
:100D240002605A6872E6002C3FF4B2AE4168C968AA
:100D340041608A600268013A02605A68A8E6BCF120
:100D4400000F3FF434AF4168C96841608A600268AB
:100D5400013A02605A682AE7002C3FF457AE8168D2
:100D640089688160CA600268013A02605A684DE687
:100D7400002C3FF48DAE816889688160CA60026886
:100D8400013A02605A6883E6BCF1000F3FF40FAFEA
:100D9400816889688160CA600268013A02605A68A1
:100DA40005E7002D3FF445AF4168C96841608A609A
:100DB4000268013A02605A683BE7002E3FF4A6AE8F
:100DC4004168C96841608A600268013A02605A68F1
:100DD4009CE6002D3FF42DAF816889688160CA606C
:100DE4000268013A02605A6823E7002E3FF48EAE8F
:100DF400816889688160CA600268013A02605A6841
:100E040084E600BF4C000020C5172000BC01002070
:100E140078000020740000200C012000F11B200049
:100E2400C51620009800002072B64EF61453CEF278
:100E340000031A680B4942F001021A604EF2801353
:100E44004FF0FF32CEF200031A604EF28413CEF25A
:100E540000031A60044A0023CA500433B3F5807FA8
:100E6400FAD17047BC0000208122200000B5002088
:100E740000F018FA00BD00BF2DE9F001466894B2F5
:100E84000023CB600C8149600F1D002E22D0D0F8C6
:100E94000880B8F80430A34222D8D8F808308BB1BF
:100EA4004546B3F804C0A44507D9CDB10136AF60B7
:100EB4004660CB60BDE8F00170479A6812B11D46E8
:100EC4001346EEE7C36801369F600023CB6046609B
:100ED400C760EFE70123CE6043608760C760E9E73E
:100EE4000136C1F80C8046608760E3E710B44468BB
:100EF400012C17D0836801F1040C9C4517D04BB129
:100F04009A682AB1944503D013469268002AF9D10D
:100F1400CA689A60C268944508BFC360013C4460D3
:100F240010BC704700238360C3604360F8E7002C63
:100F3400F6D0CB68013C83604460F1E7F0B5846887
:100F4400064617468DB29CB1002001E0A46874B136
:100F5400A388AB42FAD12068314603682A46D3F805
:100F640000C03B46E047A4680120002CF0D1F0BD4E
:100F74002046FCE70023F0B5436004468360C36069
:100F8400C648A361206042F2A800C4F20D00D0F864
:100F940000C0E3614CF0010CC0F800C048F28C6062
:100FA400C4F20800036048F29060C4F208000360D1
:100FB40048F25860C4F208004FF0F80CC0F800C0C2
:100FC40048F2E870C4F208004FF0090CC0F800C001
:100FD40048F2C860C4F208004FF0150CC0F800C015
:100FE40048F60400C4F208004FF00B0CC0F800C02F
:100FF40048F2B860C4F208004FF0010C2362636247
:10100400A362E36223636363A363C0F800C0236441
:1010140063642161A287A24D286843683BB15A6882
:10102400B72A08D8A82A06D0DB68002BF7D1FFF727
:1010340025FB00231EE0A83A5A60C268A83AC260A1
:101044005A6892B90668012E00F0EE80996800296A
:1010540000F0F480DF68002F00F00881CF60DA68C8
:1010640091600268013A02605A681968A8208B18D6
:1010740088500433412159705A1C5178022001F0E0
:10108400FC0160F3830101F0CC0160F3871151701E
:1010940000228D21C3F89C3083F88D20C3F8902062
:1010A400C3F89420C3F89810C3F8A020E364286818
:1010B40043683BB15A68B72A08D8A82A06D0DB6827
:1010C400002BF7D1FFF7DAFA00231EE0A83A5A60A2
:1010D400C268A83AC2605A6892B90568012D00F046
:1010E400A8809968002900F0B580DE68002E00F021
:1010F400C980CE60DA6891600268013A02605A6879
:101104001968A8208B1888500433412159705A1C3F
:101114005178022001F0FC0160F3830101F0CC015D
:1011240060F38711517000258D2248F6380683F844
:101134008D50C3F89820C3F89050C3F89450C3F866
:101144009C30C3F8A050C4F20806A364EE233360B5
:10115400ED233360237D48F2D052C4F208021360B9
:10116400617D48F2D453C4F2080319601268FF2762
:1011740022751B682046637548F20063C4F20803B5
:101184001A680B2142F001021A6048F28C53C4F22F
:1011940008031D6048F20863C4F208031A6842F0A9
:1011A40001021A6048F25063C4F208031F6048F257
:1011B4004063C4F20803D5221A6048F22463C4F2DF
:1011C40008031A6842F040021A6000F017FD48F262
:1011D4009473C4F208031F6048F63403C4F208038E
:1011E4001D6048F63003C4F208031D6048F62C0362
:1011F400C4F208031D60204600F026FD48F228636F
:10120400C4F208031A6842F001021A6048F28C63BF
:10121400C4F2080304221A6048F29063C4F208037B
:101224001D60E3233360F0BD4260826002605A684F
:101234001BE74260826002605A6861E7002E3FF457
:1012440014AF4168C96841608A600268013A02606B
:101254005A680AE7002D3FF453AF4168C9684160FA
:101264008A600268013A02605A6849E7002E3FF436
:10127400FCAE816889688160CA600268013A0260D4
:101284005A68F2E6002D3FF43BAF816889688160BB
:10129400CA600268013A02605A6831E70C262000ED
:1012A4004C00002070B50446304B186841680B466A
:1012B400002956D04A68632A07D8542A05D0DB6827
:1012C400002B4ED05A68632AF7D9543A5A60C26840
:1012D400543AC2605A6872B90568012D29D09E68D3
:1012E400002E2BD0D968002931D0F160DA68013D95
:1012F400056096605A681B6854219D1899500435FE
:1013040021461A222846FFF735FE194B2A2103EB02
:10131400C402516043F83450164A174BC3F8A8204E
:101324004EF20013CEF200031A6842F080621A6093
:1013340070BD0260426082605A68DCE7002DDAD03A
:10134400C968013D056041608A605A68D3E7002D91
:10135400D1D08168013D896805608160CA605A689E
:10136400C9E7FFF78BF90025CAE700BF4C0000204E
:10137400A4000020811D2000BC00002010B5314BCA
:10138400186841680B46002957D04A68272A07D8AD
:10139400182A05D0DB68002B4FD05A68272AF7D9C2
:1013A400183A5A60C268183AC2605A6892B9D0F8BA
:1013B40000C0BCF1010F1FD09C68002C24D0D96858
:1013C40000292DD0E160DA680CF1FF3CC0F800C0C0
:1013D40094605A68196818208B18885004331A4985
:1013E4000122196119491A605A601A72486840B199
:1013F400DA60174A136010BD0260426082605A6866
:10140400E8E74B605A68F3E7BCF1000FE2D0C96823
:101414000CF1FF3CC0F800C041608A605A68D9E70B
:10142400BCF1000FD6D081680CF1FF3C8968C0F88C
:1014340000C08160CA605A68CCE7FFF71FF9002337
:10144400CDE700BF4C0000206D142000BC0100203B
:101454006400002040F26803C2F2000300221A6014
:101464005A609A60704700BFF0B572B63B4B1A6879
:1014740001321A603A4A13682BB15168486801383E
:101484000028486007DD002362B61BB15868036872
:101494009B689847F0BD012B36D0C8684FF0000C0C
:1014A400013B50601360C0F808C00B689868B0F145
:1014B400FF3F03D0013898600028E5D0D3F800C07E
:1014C4001668C1F804C02648002E33D047687C68EB
:1014D400A44538BF3D4609D3F868E8B1C4EB0C0C09
:1014E400C1F804C044680546A44512D2A86800287F
:1014F40027D0CCEB040C0136C160A960C5F804C048
:101504008860CD601660BFE700235360936013606A
:10151400CBE7C0680028E1D19068C4EB0C0CC16033
:1015240088600020C860C1F804C09160116801316E
:101534001160A9E701228E60CE6002604160816083
:10154400A2E78860CF60B96051601168CCEB040CED
:101554000131C5F804C0116096E700BF60000020A7
:101564006800002040F27C020023C2F20002D36033
:1015740013605360936040F29002C2F20002136061
:101584005360704712F0FF0F18BF0C4B00B51FBF1C
:101594001B68DA685A68DA60884209D0C3684BB1BC
:1015A4000023CB6050F8083F8B68896800F072FF15
:1015B40062B600BD0123C360F2E700BF78000020DB
:1015C400F0B572B63D4BDA68DA681068DA681A6802
:1015D400002A3DD059686FF0004CD1F804E0E6458C
:1015E40036D0012AD3F80CE055D0D1F80CC0002431
:1015F400013AC3F804C01A60CCF808401E682F4AA8
:10160400D960002E2AD057680EF104057A68DEF8F6
:1016140004103C1D914243DBFA68002A40D0D2F802
:1016240004C02968141D8C4523DDD4F800C0DEF8FD
:1016340004108C4522DC9A68C2F80CE0CEF808202D
:101644000022CEF80C201A68C3F808E001321A60B0
:10165400DB6801221968FFF795FFF0BD0121CEF880
:101664000860CEF80C601160C2F804E0C2F808E02B
:10167400EEE7D1680029D8D00A46D0E7916889B14D
:101684000136C1F80CE0C2F808E0CEF80C20CEF820
:1016940008101E60DCE700225A609A601A60ADE709
:1016A4003A46C2E71A68CEF808100132CEF80C7038
:1016B400C7F808E01A60C3F804E0C9E77C0000201A
:1016C40030B5074D074C2A682368012B06D962B64A
:1016D40030BF002AF8D0FFF773FFF4E772B6FEE7D5
:1016E4007C0000208C000020344BF0B5DA681C68C4
:1016F4001068DA682CB9DB6801221968FFF742FF29
:10170400F0BDD3F80CE05F680EF104067A68DEF8E9
:1017140004103D1D914243DBFA68002A40D0D2F800
:1017240004C03168151D8C451FDDD5F800C0DEF8F6
:1017340004108C451EDC9A681C68C2F80CE0CEF8D4
:10174400082001340022CEF80C201C60C3F808E005
:101754004CB1012C1BD05C680021E2685A60916096
:101764001A68013A1A60DC60C5E7D1680029DCD048
:101774000A46D4E79168A9B10134C1F80CE0C2F873
:1017840008E0CEF80C20CEF808101C60E0E7002238
:101794005C689A605A601A68DC60013A1A60AAE7C9
:1017A4003A46C2E71C68CEF808100134CEF80C7033
:1017B400C7F808E01C60C3F804E0C9E77C00002017
:1017C40000B572B6FFF790FF00BD00BF8368634B9E
:1017D4002DE9F0411A6800F1180501321A60604AD7
:1017E400D368D368002B51D01768002F22D0D2F8C9
:1017F400048000F11C06D8F80430C16908F104041F
:10180400994245DA4346D4F800C0C1698C4558DC96
:101814009368DD60036200234362136895600133BB
:101824001360C368012B0ED1C368012B26D062B6A6
:10183400BDE8F0810123076247621360556095603B
:10184400C368012BF0D0C368002BEDD0D168D168F8
:10185400434B8D423ED01A68012A4BD0016A0029BD
:1018640064D0446A002C6FD0013ACC601A60C3681B
:10187400D0F824C0012BCCF80810D8D1C2696FF07D
:1018840000439A42D3D0FFF72FFFD1E7D560D7E7C3
:10189400D8F80C30002BB5D0D3F804C031681C1D27
:1018A4008C45B0DCD9680029ADD00B46D3F804C010
:1018B40031681C1D8C45F5DDD4F800C0C1698C4528
:1018C400A6DD9968D9B10137CD609D60436201629C
:1018D4001760B5E7196829B301291AD0D3F804C0F1
:1018E4000025DCF80C4001395C601960A560C2F881
:1018F4000CC099E700225A609A601A6094E7136852
:1019040001620133C0F82480C8F8085013605560A0
:1019140096E7D3F804C00021596099601960C2F8B1
:101924000CC081E78C46C2F80CC07DE7002A3FF466
:101934007BAFD3F804C0013ADCF80CC01A60C3F8DA
:1019440004C0CCF808106FE7002A3FF46DAF996823
:10195400013A89681A609960CC6065E78C000020C0
:101964007C0000202DE9F04172B69E4BDA68DA68FB
:10197400D9681268D3F80CC002F118018C4500F044
:101984009E801968012900F0DF80146A002C00F0A1
:10199400AE80556A002D00F0EA80E560D2F824C0DC
:1019A4000139CCF808401960516808600421D160FD
:1019B4008D490868013808605169002900F0918058
:1019C40051690124CC60D2F814C0D868D86885491C
:1019D4000CF1180570B30F68002F00F0A180D1F846
:1019E40004800CF11C06D8F80410DCF81C0008F183
:1019F40004048842C0F2DD80D8F80C10002900F0FD
:101A0400D880D1F804E030680C1D86457DDDD4F81B
:101A140000E0DCF81C00864500F38A8099681C68A5
:101A2400CD60CCF8201001340021CCF824101C60C7
:101A34009D6001E00C68CD60002151616949D8685E
:101A44003CB9DB68104619680122FFF79BFDBDE82D
:101A5400F081D1F80CE04F680EF104067868DEF8E6
:101A640004103D1D884200F3A280F968002900F0AB
:101A74009E80D1F804C030680D1D84454BDDD5F837
:101A840000C0DEF80400844563DC99681C68C1F872
:101A94000CE0CEF8081001340021CEF80C101C60C4
:101AA400C3F808E04CB1012C6FD05C680020E168F9
:101AB40059608860196801391960DC60C1E71968E8
:101AC40089B101296AD0D3F804C00024DCF80CE001
:101AD4000139C3F804E01960CEF80840C3F80CC01B
:101AE40062E71C68AAE78C46C3F80CC05CE70029CF
:101AF4003FF45AAFD3F804C00139DCF80CC01960C4
:101B0400C3F804C0CCF808404EE7C86800283FF486
:101B14007EAF014675E7C8680028B0D00146A8E743
:101B2400CCF82070CCF824700C604D608D6083E795
:101B3400886800283FD07C1CC5608D60CCF82410D8
:101B4400CCF820001C6077E7002159609960196087
:101B54002AE78868002839D00134C0F80CE0C1F8BD
:101B640008E0CEF80C10CEF808001C609AE70029B3
:101B74003FF41AAFD3F808C00139DCF808C0196083
:101B8400C3F808C0CCF80C500EE700215C689960DB
:101B940059601968DC600139196052E7D3F804C050
:101BA4000021596099601960C3F80CC0FCE63946FD
:101BB40065E741462BE71C68CCF820000134CCF8DB
:101BC4002480C8F808501C605D6035E71C68CEF8B6
:101BD40008000134CEF80C70C7F808E01C60C3F8A4
:101BE40004E05FE77C0000208C00002000B518466C
:101BF400FFF7B8FE00BD00BF704700BFA1F10B03A3
:101C04000F2B07D801EB810148F23C632C39C4F255
:101C140008031960704700BF9C3130B411D0D0F86C
:101C240018C0026A00250B684968D3F898400CF183
:101C3400010C121983F88D500029F4D1C0F818C092
:101C4400026230BC704700BF00238361C36103623A
:101C540043628362C362036343638363704700BF69
:101C640048F63403C4F20803196848F63002C4F293
:101C7400080211F0040F70B51268054667D01A689F
:101C84004FF0010122F004021A60036C123350F881
:101C9400236006F18D02D2E84F3FC2E8441F002CB6
:101CA400F9D1DBB2002B52D148F26C62C4F20802C3
:101CB4001068002808DD48F62801C4F208010A6803
:101CC400F25401339842FAD148F63803C4F20803B7
:101CD400ED221A6033780D3BC6F89830AB8F1F2B7A
:101CE40036D9203B012010FA03F34EF28412CEF2CF
:101CF400000211680B431360F17AB37A2A6843EA4D
:101D04000123190A41EA032189B29368284632461D
:101D1400984770B9AA692B6A9C3631680132AA6166
:101D2400D1F898C0766863442B6281F88D00002E48
:101D3400F3D1AA8F1F2A16D9203A012010FA02F2F1
:101D44004EF20413CEF2000319680A431A6070BD00
:101D5400012010FA03F34EF28012CEF20002116851
:101D64000B431360C8E7012010FA02F24EF200138D
:101D7400CEF2000319680A431A60E8E7064B0168CB
:101D84005A6800B5914200D000BD18680028FBD005
:101D9400FFF766FFF8E700BFA40000202DE9F04F2D
:101DA4009B46436C81B00092DDF8289003F1130246
:101DB400054600EB82024FF0010E52F8046B06F167
:101DC4008D0CDCE84F0FCCE844EF002CF9D1C0B205
:101DD4000133012801D16B64EFE748F63804C4F2FB
:101DE4000804EF235FFA89FA23600AF10D023346EF
:101DF40003F8012B012242F0400272705A78022744
:101E040002F0FC0267F3830202F0CC0267F387124C
:101E14005A704FF000084FF0FF33337173713A4634
:101E240086F80380B01D00F055FB05F114013A4615
:101E340006F1080000F04EFB009A5946138806F19B
:101E44000C001A0A42EA03239BB2B3721B0AF37210
:101E5400524600F03FFBEE232360317848F6280316
:101E6400C4F2080316F8082008F1010841451A6075
:101E7400F8DA48F63803C4F20803E92248F63001D8
:101E84001A60C4F208010A6848F6300312F0020F1F
:101E9400C4F20803F7D01A68484622F002021A6016
:101EA400EB690133EB616B6A4B446B62002386F888
:101EB4008D3001B0BDE8F08F244A10B41268034697
:101EC400042A02D0002010BC704749F23800C4F242
:101ED4000800026049F25002C4F20802126812F0CB
:101EE400010FEFD049F25C02C4F20802146849F20F
:101EF4005802C4F20802126852EA04240CBF0020FB
:101F0400012000290CBF002000F0010098B149F223
:101F1400A00C0020C4F2080CDCF800201A54013094
:101F2400844294BF00220122814294BF002202F025
:101F34000102002AF0D18442C5D849F25003C4F208
:101F440008031A6822F001021A60BCE75C00002052
:101F540049F23803C4F2080349F244021968C4F28E
:101F640008021860106840F00100106019607047A2
:101F7400154BC0B21B68042B00D0704749F23803DC
:101F8400C4F20803032249F24401D3F800C0C4F2A6
:101F940008011A600A6849F2440312F0010FC4F2FE
:101FA4000803F7D149F29802C4F2080210600A2823
:101FB40002BF1A6842F001021A6049F23803C4F2FF
:101FC4000803C3F800C0D8E75C0000204278531F20
:101FD4001D2B15D8DFE803F0322C14141614141436
:101FE40014141414141414141414141414141414AD
:101FF400141414120F120378212B30D001207047CF
:102004000020FCE70378B3B90379427953EA02224A
:10201400F4D18379C27953EA0222EFD18378C0786C
:1020240043EA00200128EBD12B4B04221A60E6E797
:102034000378802B2ED0212ADED0DFE70378002B13
:10204400DCD18378C278012043EA022249F20003FA
:10205400C4F208031A60204B03221A60CFE7837886
:10206400C27853EA0222C9D11C4B19681A715A71F9
:1020740062F31F0108229A71194A19601360837967
:10208400C279012043EA0222164B072A28BF0722FD
:102094001A60B4E7C378012B0FD0022BAED1124AD9
:1020A4000F4B1A608379C279012043EA02220D4B57
:1020B400432A28BF43221A60A1E70C49084A116049
:1020C4008279C179184642EA0121064A122928BFB9
:1020D4001221116093E700BF5C000020B0000020D3
:1020E400AC000020B8000020C0252000AC25200052
:1020F40049F2380370B5C4F208031D6849F21803A5
:10210400C4F208031B6882B013B113F0040F7CD12E
:1021140049F20803C4F208031B68002B39D013F0FA
:10212400010F36D049F23803C4F2080300221A60C2
:1021340049F24403C4F208031B6813F0010F38D0BA
:1021440049F25803C4F208031B6849F28001DBB268
:102154006846C4F208019A4206D2D1F800C000F8D9
:1021640002C00132082AF6D149F24404C4F2080438
:102174002368684643F040032360FFF727FFA0B1BC
:10218400DFF8A4C0DCF80030CBB9236843F00803BF
:10219400236049F21003C4F208031B6849F23803B0
:1021A400C4F208031D6002B070BD236843F020032D
:1021B4002360DFF874C0DCF80030002BE9D01B4E3C
:1021C4003268C2B149F28004DCF800100023C4F282
:1021D4000804C85C0133013A2060C818CCF8000038
:1021E400101E18BF01201F2B8CBF002000F001001F
:1021F40032600028EDD15AB149F24403C4F2080315
:102204001A6842F002021A60C3E7FEF705FB7FE793
:1022140049F24403C4F208031968CCF8002041F0E1
:102224000A011960B5E700BFAC000020B800002027
:1022340000B52DE9F00F00F003F8BDE8F00F00BD84
:1022440000B54FF000531B6881B02A2B0DD0EFF37B
:102254000383094A03F03F0301A840F8043D52F800
:1022640023306846984701B000BD44F20803C0F229
:1022740020031B689847F6E7BC000020704700BFA6
:102284002DE9F04572B61E4E1E4C16F8015CDFF8BF
:102294007880A24600278DB1092D28D00A2D18D0A8
:1022A4002368284601332360FFF762FE23684F2B1F
:1022B40005DC013616F8015C002DEDD1FEE70D209A
:1022C400FFF756FE0A20FFF753FE0136CAF80070E6
:1022D400F0E70D20FFF74CFE2846FFF749FED8F83B
:1022E400003027600133C8F800300136E2E72846A1
:1022F400FFF73EFE2368013608332360DAE700BFA8
:10230400192620009C000020A000002030B5104CAD
:102314000546236823B1DA68013ADA60DA688AB1DB
:10232400636823B15A682846DA601B699847A36832
:1023340023B11A7A1AB91B692846984730BD5A68DE
:10234400DA60F8E75A68DA601B699847E8E700BF83
:10235400BC0100204E4B70B41D6847F20003C2F26A
:1023640000034FF480525A6000229A60DA60EA68EF
:102374001B6002F58052EA60D3F804C06B68002B3E
:1023840050D00CF1005C1E680CF5E04CB4450CBF59
:102394001A461A4604D0D26812B111688C45FAD193
:1023A40047F20001C2F200010C6859687618B44281
:1023B40008D0DB68002B34D0D3F800C059686144DE
:1023C4008C42F6D119461346BBB147F20002C2F261
:1023D40000025468D3F804C0A444C2F804C02A68B4
:1023E400012A2DD09C68002C38D0DE68002E2CD019
:1023F400E660DB68013A9C602A6039B147F2000369
:10240400C2F200035B684A68D3184B608546BFF389
:102414006F8F04BC82F30388BDE8FF5F00BD70BC0E
:10242400704713462A6812BB47F20001C2F200014A
:102434008A60CA606960A960012129601146C3E706
:1024440000236B60AB602B60D7E7002AD5D0AB6864
:10245400013A9B682A60AB60DE60CEE7002ACCD0EC
:102464006B68013ADB682A606B609C60C5E7A96809
:1024740047F2000CC2F2000CC1F80CC0CCF80810F2
:1024840001320021CCF80C102A60C5F808C09BE783
:102494004C0000200FF2240204B42DE9FF5FEFF397
:1024A400038204B4C0F800D08D46BFF36F8F04BC20
:1024B40082F30388BDE8FF5F04BC9746704700BF02
:1024C40040F2C813C2F2000300221A605A609A60F4
:1024D400DA6070470F2A30B405460C4642D941EA07
:1024E400000313F0030F02BF14468C46034609D0C1
:1024F400002314F803C005F803C001339A42F8D14D
:1025040030BC7047DCF80050103C1D60DCF804500F
:102514005D60DCF808509D60DCF80C500CF1100C88
:10252400DD6010330F2CEDD8A2F1100404F00F027B
:1025340024F00F04103405190C19032A12D90023AE
:1025440054F803C045F803C00433C3EB020CBCF1D8
:10255400030FF5D8043A22F003030433ED18E4180A
:0C25640002F00302002AC3D1CAE700BF46
:10257000074B10B51A6852B9064C01221A606368FD
:102580002BB10434984754F8043F002BFAD110BD06
:08259000040000204C2620008D
:1025980000000000000000001D03200010100000D3
:1025A800303000001201000202000020501D1C60A3
:1025B800030000000001000009024300020100A01E
:1025C8001909040000010202010005240010010499
:1025D80024020205240600010524010001070582E2
:1025E8000340004009040100020A000000070583B7
:1025F800022000000705040200010000000000009E
:10260800000000007D0E2000F10E2000410F200088
:0826180050414E4943210A0024
:10262000FFFFFFFF450120004D0120005101200068
:102630005D03200039062000591420006915200090
:0C264000FD1B2000C5242000000000004D
:08264C00FFFFFFFF000000008A
:04000005002000F8DF
:020000040027D3
:0CFFD400FFFFFFEF000000000000200015
:00000001FF
