:020000040020DA
:1000000000800020F9002000C5122000C512200049
:10001000C5122000C5122000C5122000C512200004
:10002000C5122000C5122000C5122000C5122000F4
:10003000C5122000C5122000C5122000C5122000E4
:10004000C5122000C5122000C5122000C5122000D4
:10005000C5122000C5122000C5122000C5122000C4
:10006000C5122000C5122000C5122000C5122000B4
:10007000C5122000C5122000C5122000C5122000A4
:10008000C5122000C5122000C5122000C512200094
:10009000C5122000C5122000C5122000C512200084
:1000A000C5122000C5122000C5122000C512200074
:1000B000C5122000C5122000C5122000C512200064
:1000C000C5122000C5122000C5122000C512200054
:1000D000C5122000C5122000C5122000C512200044
:1000E000C5122000C5122000C5122000C512200034
:1000F000C5122000C5122000002020210906074A51
:10010000086004319142FBDB00F00AF800F0D2FCF9
:1001100001B401F007F900F017FE0000740A002096
:1001200010B5074C54F8043CB3F1FF3F06D0043C33
:10013000984754F8043DB3F1FF3FF9D110BD00BF1B
:04014000D4132000B4
:1001440062B67047704700BF40F21403C2F2000366
:100154000A204FF0FF310022596018601A7240F2F1
:100164000803C2F20003596018601A72704700BF96
:10017400704700BF2DE9F04FDFF82829ADF5866DF3
:1001840083B01368042BFCD144F20403C0F22003AF
:10019400196844F20803C0F22003D3F800C04FF4F6
:1001A40001131868A1F501119C4534BF00230123F4
:1001B400B1F5F72F2CBF002303F00103002B70D0FF
:1001C4004FF2FF7140F20303C0F22701C2F20003B1
:1001D4008C458CBF00210121984294BF002301F07B
:1001E4000103002B5DD048F20003C2F200039842E1
:1001F40057D841F20C03C4F20303196821F001013A
:10020400196042F20801C4F20D01086840F00200CE
:10021400086044F25401C4F20D010F20086044F256
:10022400D401C4F20D01082008604BF22041C4F24D
:100234000D01086840F02000086041F20001C4F29A
:1002440003010020086041F20401C4F203010130FB
:10025400086041F2280142F20040C4F20301C0F2F6
:10026400F400086041F22401C4F203014FF0FF30AE
:100274000860196841F00101196041F21C03C4F2DD
:1002840003031168012940F3FF801368012B40F335
:10029400EE8041F20C03C4F20303196821F001015A
:1002A40019601368042BFCD109A8043001900B9940
:1002B4000C9B01F07F4103F07F430B910C930022D0
:1002C400DFF8E41741F20C038DF82A208DF82B2077
:1002D4008DF82F20C4F2030309911968ADF8282082
:1002E40021F00101196042F20801C4F20D0108680D
:1002F400CDF8342440F00200086044F25401C4F202
:100304000D010F20086044F2D401C4F20D0108204D
:1003140008604BF22041C4F20D01086841F21C054B
:1003240040F02000086041F20001C4F203010A60B9
:1003340041F20402C4F203020121116041F22802D5
:1003440044F60001C4F20302C0F2E811116041F264
:100354002402C4F203024FF0FF3111601A6809ACA1
:1003640042F001021A60C4F20305261D2B68002B1B
:1003740040F08F80236820461B6831469847002848
:10038400F4D0BDF82830002BF0D19DF82A30772B1B
:10039400ECD0612B14BF00220122682B08BF42F06D
:1003A40001021AB9482B01D0652BDFD19DF82B200F
:1003B4000B9952EA0121D9D19DF82F200C9952EAC8
:1003C4000121D3D1682BD1D141F20C03C4F2030330
:1003D4001A6809A922F001021A6048238DF82A300C
:1003E40051F8043B4FF00102ADF828205B6809A8DE
:1003F4009847DFF8B8760224099B09A81B6801997D
:1004040098470028F8D0BDF828309C420393F3D1D4
:100414009DF82A30772B18D0612B14BF00220122BB
:10042400682B08BF42F001021AB9482B01D0652B92
:10043400E2D19DF82B300B9A53EA0222DCD19DF8CD
:100444002F300C9A53EA0222D6D109A951F8043B61
:1004540009A85B6898479DF82A30652B00F0E48072
:10046400772B00F0AB800398441CA4B2C4E741F29C
:100474000C03C4F203031A6822F001021A600FB0DD
:100484000DF5806DBDE8F08F196800293FF4F9AED1
:10049400FBE641F20C03C4F203031A6822F00102E2
:1004A4001A6044F20403C0F220031A6844F20803F9
:1004B400C0F2200318684FF401131968A2F5011261
:1004C400984234BF00230123B2F5F72F2CBF002339
:1004D40003F00103002B3FF4EAAE4FF2FF7240F247
:1004E4000303C0F22702C2F2000390428CBF002231
:1004F4000122994294BF002302F00103002B3FF430
:10050400D6AE48F20003C2F2000399423FF6CFAEE2
:1005140000F0B6FC43F20C03C4F203031A6822F0A1
:1005240001021A6042F20802C4F20D02116841F09D
:100534000801116044F25402C4F20D021321116047
:1005440044F2D402C4F20D02082111604BF220429D
:10055400C4F20D02116841F02001116043F200025F
:10056400C4F203020021116043F20402C4F2030244
:100574000131116043F2280244F60001C4F203027F
:10058400C0F2E811116043F22402C4F203024FF0F6
:10059400FF3111601A6842F001021A6043F21C0331
:1005A400C4F203031A68002AFCD043F20C03C4F219
:1005B40003031A6822F001021A6060E79DF82B30E9
:1005C4000B9A43EA0222A2F50113B3F5F72FBFF405
:1005D4004AAFDDF83434FF2B00F25481002B00F0D5
:1005E4004D81DDF838148A4200F03581DDF8343469
:1005F400002B40F047819DF82B300B9ADDF830C07A
:1006040043EA0222DDF834349DF82F00191D01332A
:1006140040EA0C20CDF834340DF1240C131D4CF8B1
:100624002100CDF838341EE7DDF83424002A3FF4E5
:1006340038AFDDF83834A3EB820207930798A2F5AC
:100644000013DB0A0293A0F50013013B0299DB0AB5
:1006540099420092069300F2FA8001F58063013317
:10066400DB02DFF84874049301F50063FB1801F51D
:10067400806B03934FEACB2B0DF1340A4FF04808FB
:10068400029A049B013202920798039A00999842B5
:1006940028BF18461378461AB608072B68D8002EC8
:1006A40000F0CB80DAF800300A6803EA02029342D1
:1006B4005ED100238C4607E05AF823205CF823100F
:1006C40002EA01018A4253D101339E42F4D84FEA2F
:1006D4008609D8F8103050464A46009998470023B6
:1006E4005546CDF814B0009CCB46D1469A460CE052
:1006F40000994FEA8A056C184D44CAEB0602D8F8F3
:100704001030920028462146984723682A6893426D
:10071400EED10AF1010C00984FEA8C0214184A44F5
:100724006645E24618D8CA46D946DDF814B003999E
:10073400049A0B780298013301F8013B069B02F5F9
:1007440000628342039104920BF5006B7FD30099FE
:10075400CA444944009193E7234653F8040B1546D1
:1007640052F8041B8842C8D11C460CF1010CD7E78F
:100774000099049ABBEB010318BF012382420CBF0A
:10078400184643F0010038B1002353F80B20FA5007
:100794000433B3F5006FF8D1DDF80CC04FF000035B
:1007A4008CF80030D8F80C3058460121984700984E
:1007B400CBEB00029208002E47D007EB82024FEAEF
:1007C400860900235AF8031004334B4542F8041BEE
:1007D400F8D1D8F81030B54859464FF400620025D6
:1007E40098475C462E4607E0C5F50072D8F81030ED
:1007F400B819920021469847226857F825309A4242
:1008040018BF06EB0B04EFD140F25402691CC2F28C
:1008140000020BEB8104961940F2FF1399420D4636
:1008240085D8234653F8040B56F8042F904201D080
:10083400AE00D9E71C460131EEE7D8F81030504637
:10084400009932469847B14671E7B146C1E70023A3
:10085400CDF8343425E61A1D01339DF82F100C9879
:10086400CDF83434DDF8383441EA00210DF1240C9C
:1008740004334CF82210CDF83834F4E5CDF838249C
:100884001146B0E6DDF83824A2EB83030093A3F508
:100894000013DB0A0293A2F50013013B0298DB0A62
:1008A40098420892079300F2F88000F580630133C0
:1008B400DB02059300F50063FB1800F5806B0493DD
:1008C4004FEACB2B0DF1340A4FF048080898059AEB
:1008D400009BDDF810C0904228BF1046C61A02994A
:1008E4009CF800300131B608072B02916DD8002E18
:1008F40000F0CB800099DAF800300A6803EA0202BB
:10090400934262D100238C4607E05AF823205CF816
:10091400231002EA01018A4257D101339E42F4D8DE
:100924004FEA8609D8F8103050464A46009998474D
:1009340000235546CDF818B0009CCB46D1469A46C4
:100944000DE0009A4FEA8A0409EB0405A418CAEBE7
:100954000602D8F8103092002846214698472368AA
:100964002A689342EDD10AF1010C009B4FEA8C02F4
:10097400D4184A446645E2461BD8CA46D946DDF82F
:1009840018B0DDF810C005989CF800300799029A59
:1009940001330CF8013B00F500609142CDF810C022
:1009A40005900BF5006B78D3009BCA444B4400932D
:1009B4008CE7234653F8040B154652F8041B88426F
:1009C400C5D11C460CF1010CD4E7009A0599BBEB88
:1009D400020318BF0123814218BF43F001033BB156
:1009E400002353F80B20FA500433B3F5006FF8D109
:1009F400049B4FF000021A70D8F80C3058460121BD
:100A040098470098CBEB00029208002E3BD007EBEE
:100A140082024FEA860900235AF8031004334B4537
:100A240042F8041BF8D1D8F81030204859464FF446
:100A34000062002598475C462E4607E0C5F5007223
:100A4400D8F81030B819920021469847226857F810
:100A540025309A4218BF06EB0B04EFD1691C0BEB4F
:100A64008104BE1940F2FF1291420D4689D82346F3
:100A740053F8040B56F8042F904201D0AE00DDE782
:100A84001C460131EEE7B146CDE7D8F810305046A8
:100A9400009932469847B14673E70023CDF83434C1
:100AA400A9E500BF4C00002054132000540000208E
:100AB40000B5FFF75FFB00F033FC72B62A224FF05B
:100AC40000531A604FF401131B689D46BFF36F8FE8
:100AD40044F20403C0F220031B689847002000BDC1
:100AE40030B50D460024285D013400F089FA0B2C42
:100AF400F9D1032000F074FA30BD00BF00B50846F8
:100B04000B2100F021FA0B2814BF0020012000BDA6
:100B140030B500F019F97E494B68002B00F0EC80E9
:100B24005A6842F20F00824209D8B2F5005F06D03B
:100B3400DB68002B00F0E0805A688242F5D9A2F508
:100B440000525A60CA687248A2F50052CA605A68D4
:100B540092B90468012C00F086809968002900F09D
:100B6400B380DD68002D00F0BB80CD60DA68916051
:100B74000268013A02605A681968DFF898C10023D4
:100B84008C18CCF80030CCF80430CCF80830CCF811
:100B94000C3047D04FF400508C506060A360E36089
:100BA400DCF80C301B18CCF80C30DCF8043051F8AD
:100BB40002E06068002B3ED01D687044A8420CBF60
:100BC4001A461A4604D0D26812B111688842FAD182
:100BD40059686D18AE4507D0DB68002B2AD0186819
:100BE400596841188E45F7D119461346ABB1606870
:100BF4005A6882186260DCF8000001282BD09A68D9
:100C0400002A35D0DD68002D40D0D560DB689A60BD
:100C1400DCF80030013BCCF8003019B14A68636855
:100C2400D3184B603C4BC3F800C000F03DF900F012
:100C340041F930BD1346DCF80010002934D1A1601D
:100C4400E160DCF80020CCF804400132CCF8084024
:100C5400CCF80020CAE70023CCF80430CCF80830E4
:100C6400CCF80030D9E74260826002605A6883E7BA
:100C74000028D2D0DCF80430DB68CCF804309A6069
:100C8400DCF80030013BCCF80030C6E70028C4D0C3
:100C9400DCF808309B68CCF80830DD60DCF8003004
:100CA400013BCCF80030B8E7DCF808200021D46020
:100CB400DCF80820E160A260DCF80020CCF80840F1
:100CC4000132CCF8002091E7002C3FF455AF416885
:100CD400C96841608A600268013A02605A684BE759
:100CE400002C3FF449AF816889688160CA6002685A
:100CF400013A02605A683FE7DFF818C00023CCF8D5
:100D04000030CCF80430CCF80830CCF80C3089E74B
:100D1400640A0020380000204800002040F22C0320
:100D2400C2F200030A204FF0FF310022596018601C
:100D34001A7240F22003C2F20003596018601A725A
:100D4400704700BF704700BF704700BF244B0222AA
:100D540024491A6000230B6023490B6049F23803CD
:100D6400C4F208031A6049F24002C4F208020821DE
:100D74001160032119600421116049F24802C4F290
:100D84000802106840F080001060196049F24C03BA
:100D94002022C4F208031A6049F25003C4F2080383
:100DA4001A6842F080021A601A6812F0010F1EBF1E
:100DB4001A6842F010021A6049F21C03C4F20803D4
:100DC40005221A6049F22403C4F2080301221A60BE
:100DD40049F22C03C4F2080304221A60704700BFCE
:100DE4004C000020540900206009002000B500F0E8
:100DF40063F84BF22043C4F20D031A6822F0040294
:100E04001A604BF20043C4F20D031A6842F0040264
:100E14001A604BF21003C4F20D03FF221A6049F268
:100E24003C02C4F20802136843F001031360136820
:100E340043F002031360136813F0800FFBD049F2F0
:100E44000403C4F208031A6822F001021A60FFF7CF
:100E54007DFF084B01221A60074A084BC3F8F020B3
:100E64004EF20413CEF200031A6842F480521A6060
:100E740062B600BD4C0000208511200064090020EA
:100E840000B5032000F0ACF849F23C03C4F20803B7
:100E94001A6822F001021A604BF21003C4F20D0327
:100EA40000221A6000BD00BF00B500F02DF8FFF766
:100EB4009DFF00BD704700BF12490B7803BB42F28F
:100EC4000003C4F20D031A6842F400121A60186891
:100ED4004FF6F872CFF6FE6200EA02021A6042F29E
:100EE4000402C4F20D02136813F4803FFBD142F2F2
:100EF4000003C4F20D031A681A681A6001230B7008
:100F0400704700BF5000002000B5FFF7D5FF42F244
:100F14009803C4F20D031A6842F001021A6000BD7E
:100F2400002308491A46CA500433B3F5006FFAD1B6
:100F3400044B082203F5807183F8002801338B42A7
:100F4400FAD1704754000020244A10B412680346B2
:100F5400042A02D0002010BC704749F23800C4F2C1
:100F64000800026049F25002C4F20802126812F04A
:100F7400010FEFD049F25C02C4F20802146849F28E
:100F84005802C4F20802126852EA04240CBF00207A
:100F9400012000290CBF002000F0010098B149F2A3
:100FA400A00C0020C4F2080CDCF800201A54013014
:100FB400844294BF00220122814294BF002202F0A5
:100FC4000102002AF0D18442C5D849F25003C4F288
:100FD40008031A6822F001021A60BCE74C000020E2
:100FE40049F23803C4F2080349F244021968C4F20E
:100FF40008021860106840F0010010601960704722
:10100400154BC0B21B68042B00D0704749F238035B
:10101400C4F20803032249F24401D3F800C0C4F225
:1010240008011A600A6849F2440312F0010FC4F27D
:101034000803F7D149F29802C4F2080210600A28A2
:1010440002BF1A6842F001021A6049F23803C4F27E
:101054000803C3F800C0D8E74C0000204278531FAF
:101064001D2B15D8DFE803F0322C141416141414B5
:10107400141414141414141414141414141414142C
:10108400141414120F120378212B30D0012070474E
:101094000020FCE70378B3B90379427953EA0222CA
:1010A400F4D18379C27953EA0222EFD18378C078EC
:1010B40043EA00200128EBD12B4B04221A60E6E717
:1010C4000378802B2ED0212ADED0DFE70378002B93
:1010D400DCD18378C278012043EA022249F200037A
:1010E400C4F208031A60204B03221A60CFE7837806
:1010F400C27853EA0222C9D11C4B19681A715A7179
:1011040062F31F0108229A71194A196013608379E6
:10111400C279012043EA0222164B072A28BF07227C
:101124001A60B4E7C378012B0FD0022BAED1124A58
:101134000F4B1A608379C279012043EA02220D4BD6
:10114400432A28BF43221A60A1E70C49084A1160C8
:101154008279C179184642EA0121064A122928BF38
:101164001221116093E700BF4C00002058090020B1
:101174005409002060090020701320005C13200033
:1011840049F2380370B5C4F208031D6849F2180324
:10119400C4F208031B6882B013B113F0040F7CD1AE
:1011A40049F20803C4F208031B68002B39D013F07A
:1011B400010F36D049F23803C4F2080300221A6042
:1011C40049F24403C4F208031B6813F0010F38D03A
:1011D40049F25803C4F208031B6849F28001DBB2E8
:1011E4006846C4F208019A4206D2D1F800C000F859
:1011F40002C00132082AF6D149F24404C4F20804B8
:101204002368684643F040032360FFF727FFA0B13B
:10121400DFF8A4C0DCF80030CBB9236843F008033E
:10122400236049F21003C4F208031B6849F238032F
:10123400C4F208031D6002B070BD236843F02003AC
:101244002360DFF874C0DCF80030002BE9D01B4EBB
:101254003268C2B149F28004DCF800100023C4F201
:101264000804C85C0133013A2060C818CCF80000B7
:10127400101E18BF01201F2B8CBF002000F001009E
:1012840032600028EDD15AB149F24403C4F2080394
:101294001A6842F002021A60C3E7FFF757FD7FE7BE
:1012A40049F24403C4F208031968CCF8002041F061
:1012B4000A011960B5E700BF540900206009002045
:1012C40000B52DE9F00F00F003F8BDE8F00F00BD04
:1012D40000B54FF000531B6881B02A2B0DD0EFF3FB
:1012E4000383094A03F03F0301A840F8043D52F880
:1012F40023306846984701B000BD44F20803C0F2A9
:1013040020031B689847F6E76409002040F664232D
:10131400C2F2000300221A605A609A60DA607047D1
:10132400074B10B51A6852B9064C01221A6063685B
:101334002BB10434984754F8043F002BFAD110BD64
:0813440004000020D813200072
:10134C000000000000000000010B2000E50A200056
:10135C001201000202000020501D1C60030000005E
:10136C000001000009024300020100A01909040059
:10137C0000010202010005240010010424020205F0
:10138C0024060001052401000107058203400040EA
:10139C0009040100020A0000000705830220000076
:0813AC00070504020001000026
:1013B400FFFFFFFF45012000490120004D012000EF
:1013C400150B2000210D2000250F200011132000F3
:0413D4000000000015
:0813D800FFFFFFFF0000000011
:04000005002000F8DF
:020000040027D3
:0CFFD400FFFFFFF700000000000020000D
:00000001FF
