:020000040020DA
:1018000000200020F9182000193020001930200095
:101810001930200019302000193020001930200024
:101820001930200019302000193020001930200014
:101830001930200019302000193020001930200004
:1018400019302000193020001930200019302000F4
:1018500019302000193020001930200019302000E4
:1018600019302000193020001930200019302000D4
:1018700019302000193020001930200019302000C4
:1018800019302000193020001930200019302000B4
:1018900019302000193020001930200019302000A4
:1018A0001930200019302000193020001930200094
:1018B0001930200019302000193020001930200084
:1018C0001930200019302000193020001930200074
:1018D0001930200019302000193020001930200064
:1018E0001930200019302000193020001930200054
:1018F0001930200019302000002020210906043171
:10190000084A086004319142FBDB00F00DF800BF8B
:10191000012080F3148800F00FF901B401F064FD98
:1019200000F072FBC001002010B5074C54F8043CD5
:10193000B3F1FF3F06D0043C984754F8043DB3F19F
:0C194000FF3FF9D110BD00BF7CB52000B6
:10194C0000B500F05BFC00BD2DE9F0076B4E736831
:10195C00002B76D05968002973D0DFF8A481B246E9
:10196C0000270022D8F800505A60F268521AF26030
:10197C005A68BAB9DAF80040012C76D09868002879
:10198C0000F09B80D3F80CC0BCF1000F00F0A580D8
:10199C00C0F80CC0DA689060DAF80020013ACAF896
:1019AC0000205A681C68A41849D00F2947D96160D7
:1019BC002460A760E760EB6859186B68E960D4F89D
:1019CC0000C06068002B40D0D3F8009060444845BC
:1019DC000CBF1A461A4604D0D26812B1116888425C
:1019EC00FAD159688944CC4507D0DB68002B2BD041
:1019FC001868596841188C45F7D119461346CBB174
:101A0C0060685A68821862602868012802BF6F609B
:101A1C00AF602F600ED09A68002A2ED0D3F80CC07D
:101A2C00BCF1000F33D0C2F80CC0DB689A602B6895
:101A3C00013B2B6019B14A686368D3184B6073681B
:101A4C0073B9BDE8F007704713462968002929D1FE
:101A5C00A160E1602A686C600132AC602A60CEE75C
:101A6C00596800297FF47DAFEBE7CAF80420CAF867
:101A7C000820CAF800205A6894E70028DAD06B686E
:101A8C00DB686B609A602B68013B2B60D2E7002807
:101A9C00D0D0AB689B68AB60C3F80CC02B68013B23
:101AAC002B60C7E7AA683946D460AA68E760A260D1
:101ABC002A68AC6001322A60A1E7002C3FF472AFB7
:101ACC00DAF80400C068CAF804008260DAF8002072
:101ADC00013ACAF800205A6864E7002C3FF462AF60
:101AEC00DAF808008068CAF80800C260DAF800204A
:101AFC00013ACAF800205A6854E700BFB001002030
:101B0C004C00002040F21803C2F200030A204FF0F0
:101B1C00FF310022596018601A7240F20C03C2F2B5
:101B2C000003596018601A72704700BF10B54FF46B
:101B3C00846081B000F02EF8036823F00803036082
:101B4C004FF4806000F026F8036843F0080303604C
:101B5C00202000F01FF8044640F21C4000F01AF858
:101B6C000368002123F008034FF6FE720360C0F2F5
:101B7C000F0208460B025B1A23600090009B9342F5
:101B8C0005DC009B01330093009B9342F9DD81F04F
:101B9C000101EFE74BF20003C4F20D0320F0030048
:101BAC001818704730B500F031FAA5494B68002B76
:101BBC0000F02F815A6843F20F00824209D8B2F527
:101BCC00405F06D0DB68002B00F023815A6882420C
:101BDC00F5D9A2F540525A60CA689948A2F540520C
:101BEC00CA605A6892B90468012C00F0C9809968DF
:101BFC00002900F0F680DD68002D00F0FE80CD603D
:101C0C00DA6891600268013A02605A681968DFF874
:101C1C0034C200238C18CCF80030CCF80430CCF84B
:101C2C000830CCF80C3048D04FF440508C506060E9
:101C3C00A360E360DCF80C301B18CCF80C30DCF83B
:101C4C00043051F802E06068002B7DD01D687044B0
:101C5C00A8420CBF1A461A4604D0D26812B11168B9
:101C6C008842FAD159686D18AE4507D0DB68002B55
:101C7C0069D01868596841188E45F7D11946134632
:101C8C00B3B160685A6882186260DCF80000012801
:101C9C006ED09A68002A78D0DD68002D00F0838021
:101CAC00D560DB689A60DCF80030013BCCF8003082
:101CBC0019B14A686368D3184B60634BC3F800C012
:101CCC0000F06EFA00F096FA45F24003C4F20D03F0
:101CDC00196845F24403C4F20D03186845F2480331
:101CEC00C4F20D031A6845F24C031204C4F20D033E
:101CFC0002EB00221B68521802EB0363534A127862
:101D0C00002A31D0524A12689B1844F66D62C4F214
:101D1C00C61202FB03F34F4903F5405339330878DD
:101D2C00B3F1FF3F28BF0133434002FB03F303F53C
:101D3C0040534A783933B3F1FF3F28BF0133534046
:101D4C00454A136030BD1346DCF80010002938D129
:101D5C00A160E160DCF80020CCF804400132CCF842
:101D6C000840CCF800208BE7394A12689B1ACCE764
:101D7C000023CCF80430CCF80830CCF8003097E7CE
:101D8C004260826002605A6840E7002890D0DCF81C
:101D9C000430DB68CCF804309A60DCF80030013B8E
:101DAC00CCF8003084E7002882D0DCF808309B683F
:101DBC00CCF80830DD60DCF80030013BCCF80030AA
:101DCC0076E7DCF808200021D460DCF80820E1601C
:101DDC00A260DCF80020CCF808400132CCF80020DE
:101DEC004EE7002C3FF412AF4168C96841608A602D
:101DFC000268013A02605A6808E7002C3FF406AF0B
:101E0C00816889688160CA600268013A02605A6818
:101E1C00FCE6124C01232372114800F08FF8114894
:101E2C0000F08CF8DFF81CC00A2323600023CCF8E8
:101E3C000030CCF80430CCF80830CCF80C303CE74F
:101E4C00B00100203C0000204C0000205900002074
:101E5C0054000020103420005000002024000020EA
:101E6C00143420003034200010B54CF2000340F242
:101E7C009804C2F20004C4F20003236000F05CF981
:101E8C0042F22803C4F20D031A68082142F0010241
:101E9C001A6044F204020023C4F20D02136044F2EF
:101EAC008402C4F20D02116044F28002C4F20D02ED
:101EBC00136044F20012C4F20D02136049F2204286
:101ECC00C4F20D021168112041F003011160226867
:101EDC00116B21F00101116322684FF0FF31516445
:101EEC0022689363226850622268052090622268FF
:101EFC007020D0622068026B42F4407242F0010202
:101F0C00026322683020906340F2A002C2F2000209
:101F1C00136040F29C02C2F20002136040F23002E5
:101F2C00C2F200020A2051601060137240F22402C7
:101F3C00C2F2000210605160137210BD2C4B4FF0B6
:101F4C00000C2DE9F00F10F80C101D684FF0090B68
:101F5C0005F11803274C4FF00D094FF00A0AE04623
:101F6C00254F09B3092922D00A292CD0266801361D
:101F7C0026601A6812F0200FFBD14F2E29600DDD60
:101F8C001A6812F0200FFBD1C5F800901A6812F0F5
:101F9C00200FFBD1C5F800A0C4F800800CF1010C97
:101FAC0010F80C100029DDD1BDE8F00F70471A684D
:101FBC0012F0200FFBD12268C5F800B00832226065
:101FCC000CF1010CECE71A6812F0200FFBD1C5F8EC
:101FDC0000901A6812F0200FFBD13A68C5F800A0E7
:101FEC000132C4F800803A600CF1010CD8E700BF54
:101FFC00980000209C000020A000002000B500F0FC
:10200C0071FE00BD00B501F04BF800BD00B500F04D
:10201C0001F800BDDFF818C170B4CCF1005202F524
:10202C00E042002A4AD00023424DCCF800C0CCF844
:10203C000420CCF80830CCF80C30EB686446D3188C
:10204C00EB606B68002B3CD01E680CEB8200B0423E
:10205C000CBF1A461A4604D0D26812B111688842D5
:10206C00FAD1596806EB8106B44208D0DB68002B24
:10207C0026D05868196801EB80018C42F6D11946BC
:10208C001346ABB1DCF804005A688218CCF8042073
:10209C002C68284A012C23D09868002825D0DD68AC
:1020AC00002D3AD0C560DB6898601368013B136063
:1020BC0021B14A68DCF80430D3184B6070BC70470F
:1020CC0013462A681B48D2B90121CCF80820CCF859
:1020DC000C200160C0F804C0C0F808C01146D0E75D
:1020EC000023536093601360E2E7002CE0D0536848
:1020FC00DB68536098601368013B1360D8E7816814
:10210C000132C1F80CC08168CCF808100021CCF861
:10211C000C10C0F808C00260B3E7002CC8D093685C
:10212C009B689360DD601368013B1360C0E700BFE0
:10213C00C0010020B001002012490B7803BB42F211
:10214C000003C4F20D031A6842F400121A601868F6
:10215C004FF6F872CFF6FE6200EA02021A6042F203
:10216C000402C4F20D02136813F4803FFBD142F257
:10217C000003C4F20D031A681A681A6001230B706D
:10218C00704700BF5800002000B5FFF7D5FF42F2A2
:10219C009803C4F20D031A6842F001021A6000BDE4
:1021AC0000B5FFF7F1FF00F065FA00F001F800BD93
:1021BC004EF210034EF21802CEF200030021CEF2C2
:1021CC000002196011604EF21402CEF200024FF4BC
:1021DC00FA41116006221A6043F28D1140F2A402FA
:1021EC00C2F20002C0F22001D1631A6842F001026F
:1021FC001A60704700B500F05FFA00BD2DE9F041A0
:10220C0086B0DFF84C54286843683BB15A68272ADB
:10221C0008D8182A06D0DB68002BF7D101F094F807
:10222C0000231EE0183A5A60C268183AC2605A6815
:10223C0092B90468012C00F074819968002900F0AF
:10224C008C81DE68002E00F0AD81CE60DA68916082
:10225C000268013A02605A68196818208B18885075
:10226C00043301211972FB4900221A6019610A22F8
:10227C00F9495A600868002800F06C81DA60F74A66
:10228C00136000230593059B2868019343683BB1B9
:10229C005A683B2A08D82C2A06D0DB68002BF7D1C9
:1022AC0001F052F800241EE02C3A5A60C2682C3A15
:1022BC00C2605A6892B90468012C00F037819968A1
:1022CC00002900F05681DE68002E00F07781CE6088
:1022DC00DA6891600268013A02605A681B682C2126
:1022EC009C1899500434DE4F3B68A4612360002392
:1022FC00E36023616361019A2362E261636272B6F7
:10230C0028684368002B00F0FB805A6841F21301E7
:10231C008A4240F2EE80A2F58052043A5A60C268BA
:10232C00A2F58052043AC2605A68AAB90668012E16
:10233C0000F00B819968002900F06581D3F80CC07E
:10234C00BCF1000F00F07781C1F80CC0DA68916025
:10235C000268013A02605A681B6841F2040099183D
:10236C0098500A1D02F57C636260BE4A4FF0807182
:10237C00BD4E196042F00101D96346F0010606A971
:10238C009E632046A36041F80C2D4FF4805200F060
:10239C00DDFB6FF000430493049B286800934368B3
:1023AC003BB15A683B2A09D82C2A07D0DB68002B92
:1023BC00F7D100F0C9FF4FF0000825E02C3A5A6025
:1023CC00C2682C3AC2605A68BAB9D0F800C0BCF1E5
:1023DC00010F00F0B0809968002900F0D680D3F886
:1023EC000CE0BEF1000F00F0F580C1F80CE0DA68EB
:1023FC0091600268013A02605A681B682C2103EB59
:10240C000208995008F104083B68C8F81880C8F80D
:10241C0000300123C8F80C300023C8F81430C8F879
:10242C001030009AC8F82030C8F81C20C8F82430A6
:10243C0072B628684368002B4CD05A6841F21301DD
:10244C008A4241D9A2F58052043A5A60C268A2F578
:10245C008052043AC2605A688AB90568012D6FD05F
:10246C009968002900F0C380DF68002F00F0D78046
:10247C00CF60DA6891600268013A02605A681B68A2
:10248C0041F20400991898500A1D02F57C63C8F8B3
:10249C000420764A4FF08071196042F00101D96333
:1024AC0006A99E634046C8F8083041F8102D4FF439
:1024BC00805200F04BFB6E4B01221A70A06800F0AA
:1024CC0083FE06B0BDE8F08141F2040C6245B9D040
:1024DC00DB6853B900F038FF4FF47C630022D6E779
:1024EC006245AFD0DB68002BF4D05A688A42A9D879
:1024FC00F6E741F2040C62453FF40DAFDB685BB9C3
:10250C0000F022FF4FF47C6300222DE762453FF47C
:10251C0002AFDB68002BF3D05A688A423FF6FBAE61
:10252C00F4E74260826002605A6895E6426082601D
:10253C0002605A68D2E64260826002605A685CE7C8
:10254C004260826002605A6899E742608260026071
:10255C005A6801E70B605A6890E6002C3FF47CAE99
:10256C004168C96841608A600268013A02605A6831
:10257C0072E6002C3FF4B2AE4168C96841608A60D3
:10258C000268013A02605A68A8E6BCF1000F3FF4F9
:10259C0034AF4168C96841608A600268013A0260E0
:1025AC005A682AE7002C3FF457AE8168896881602D
:1025BC00CA600268013A02605A684DE6002C3FF48A
:1025CC008DAE816889688160CA600268013A0260D8
:1025DC005A6883E6BCF1000F3FF40FAF816889683D
:1025EC008160CA600268013A02605A6805E7002DF2
:1025FC003FF445AF4168C96841608A600268013A9E
:10260C0002605A683BE7002E3FF4A6AE4168C968E9
:10261C0041608A600268013A02605A689CE6002DAB
:10262C003FF42DAF816889688160CA600268013A05
:10263C0002605A6823E7002E3FF48EAE81688968E9
:10264C008160CA600268013A02605A6884E600BF81
:10265C004C0000204D2B2000A40100207400002011
:10266C007000002010192000792F2000092A20006A
:10267C009400002072B64EF61453CEF200031A6882
:10268C000B4942F001021A604EF280134FF0FF32F8
:10269C00CEF200031A604EF28413CEF200031A60DD
:1026AC00044A0023CA500433B3F5807FFAD1704733
:1026BC00A40000205130200010B5314B186841683F
:1026CC000B46002957D04A68272A07D8182A05D064
:1026DC00DB68002B4FD05A68272AF7D9183A5A6072
:1026EC00C268183AC2605A6892B9D0F800C0BCF1FE
:1026FC00010F1FD09C68002C24D0D96800292DD044
:10270C00E160DA680CF1FF3CC0F800C094605A68D4
:10271C00196818208B18885004331A490122196142
:10272C0019491A605A601A72486840B1DA60174A3F
:10273C00136010BD0260426082605A68E8E74B602B
:10274C005A68F3E7BCF1000FE2D0C9680CF1FF3C0A
:10275C00C0F800C041608A605A68D9E7BCF1000F2C
:10276C00D6D081680CF1FF3C8968C0F800C081604C
:10277C00CA605A68CCE700F0E7FD0023CDE700BF44
:10278C004C000020B1272000A40100206000002094
:10279C0040F26403C2F2000300221A605A609A608D
:1027AC00704700BFF0B572B63B4B1A6801321A6025
:1027BC003A4A13682BB151684868013800284860C0
:1027CC0007DD002362B61BB1586803689B68984705
:1027DC00F0BD012B36D0C8684FF0000C013B5060A7
:1027EC001360C0F808C00B689868B0F1FF3F03D0C5
:1027FC00013898600028E5D0D3F800C01668C1F8FD
:10280C0004C02648002E33D047687C68A44538BFE6
:10281C003D4609D3F868E8B1C4EB0C0CC1F804C010
:10282C0044680546A44512D2A868002827D0CCEBF2
:10283C00040C0136C160A960C5F804C08860CD6085
:10284C001660BFE70023536093601360CBE7C0684A
:10285C000028E1D19068C4EB0C0CC16088600020AA
:10286C00C860C1F804C09160116801311160A9E71A
:10287C0001228E60CE60026041608160A2E78860B8
:10288C00CF60B96051601168CCEB040C0131C5F814
:10289C0004C0116096E700BF5C00002064000020BB
:1028AC0040F278020023C2F20002D360136053603E
:1028BC00936040F28C02C2F20002136053607047C6
:1028CC0012F0FF0F18BF0C4B00B51FBF1B68DA6866
:1028DC005A68DA60884209D0C3684BB10023CB60D8
:1028EC0050F8083F8B68896800F00EFD62B600BD99
:1028FC000123C360F2E700BF74000020F0B572B68C
:10290C003D4BDA68DA681068DA681A68002A3DD03C
:10291C0059686FF0004CD1F804E0E64536D0012A36
:10292C00D3F80CE055D0D1F80CC00024013AC3F810
:10293C0004C01A60CCF808401E682F4AD960002EDB
:10294C002AD057680EF104057A68DEF804103C1D95
:10295C00914243DBFA68002A40D0D2F804C02968BF
:10296C00141D8C4523DDD4F800C0DEF804108C4512
:10297C0022DC9A68C2F80CE0CEF808200022CEF8CF
:10298C000C201A68C3F808E001321A60DB680122D7
:10299C001968FFF795FFF0BD0121CEF80860CEF85D
:1029AC000C601160C2F804E0C2F808E0EEE7D168F0
:1029BC000029D8D00A46D0E7916889B10136C1F810
:1029CC000CE0C2F808E0CEF80C20CEF808101E601F
:1029DC00DCE700225A609A601A60ADE73A46C2E71B
:1029EC001A68CEF808100132CEF80C70C7F808E05F
:1029FC001A60C3F804E0C9E77800002030B5134D25
:102A0C00134C2A682368012B06D962B630BF002A02
:102A1C00F8D0FFF773FFF4E772B60E4C0E48FFF7D1
:102A2C008DFA0A250D48FFF789FA0D482560FFF746
:102A3C0085FA0A48FFF782FA01230A4825602372B7
:102A4C00FFF77CFA0548FFF779FAFEE778000020DB
:102A5C008800002024000020603420003034200046
:102A6C007C34200098342000344BF0B5DA681C68B4
:102A7C001068DA682CB9DB6801221968FFF720FFAF
:102A8C00F0BDD3F80CE05F680EF104067A68DEF84E
:102A9C0004103D1D914243DBFA68002A40D0D2F865
:102AAC0004C03168151D8C451FDDD5F800C0DEF85B
:102ABC0004108C451EDC9A681C68C2F80CE0CEF839
:102ACC00082001340022CEF80C201C60C3F808E06A
:102ADC004CB1012C1BD05C680021E2685A609160FB
:102AEC001A68013A1A60DC60C5E7D1680029DCD0AD
:102AFC000A46D4E79168A9B10134C1F80CE0C2F8D8
:102B0C0008E0CEF80C20CEF808101C60E0E700229C
:102B1C005C689A605A601A68DC60013A1A60AAE72D
:102B2C003A46C2E71C68CEF808100134CEF80C7097
:102B3C00C7F808E01C60C3F804E0C9E7780000207F
:102B4C0000B572B6FFF790FF00BD00BF8368634B02
:102B5C002DE9F0411A6800F1180501321A60604A3B
:102B6C00D368D368002B51D01768002F22D0D2F82D
:102B7C00048000F11C06D8F80430C16908F1040483
:102B8C00994245DA4346D4F800C0C1698C4558DCFB
:102B9C009368DD6003620023436213689560013320
:102BAC001360C368012B0ED1C368012B26D062B60B
:102BBC00BDE8F081012307624762136055609560A0
:102BCC00C368012BF0D0C368002BEDD0D168D1685D
:102BDC00434B8D423ED01A68012A4BD0016A002922
:102BEC0064D0446A002C6FD0013ACC601A60C36880
:102BFC00D0F824C0012BCCF80810D8D1C2696FF0E2
:102C0C0000439A42D3D0FFF72FFFD1E7D560D7E727
:102C1C00D8F80C30002BB5D0D3F804C031681C1D8B
:102C2C008C45B0DCD9680029ADD00B46D3F804C074
:102C3C0031681C1D8C45F5DDD4F800C0C1698C458C
:102C4C00A6DD9968D9B10137CD609D604362016200
:102C5C001760B5E7196829B301291AD0D3F804C055
:102C6C000025DCF80C4001395C601960A560C2F8E5
:102C7C000CC099E700225A609A601A6094E71368B6
:102C8C0001620133C0F82480C8F808501360556005
:102C9C0096E7D3F804C00021596099601960C2F816
:102CAC000CC081E78C46C2F80CC07DE7002A3FF4CB
:102CBC007BAFD3F804C0013ADCF80CC01A60C3F83F
:102CCC0004C0CCF808106FE7002A3FF46DAF996888
:102CDC00013A89681A609960CC6065E78800002029
:102CEC00780000202DE9F04172B69E4BDA68DA6864
:102CFC00D9681268D3F80CC002F118018C4500F0A9
:102D0C009E801968012900F0DF80146A002C00F005
:102D1C00AE80556A002D00F0EA80E560D2F824C040
:102D2C000139CCF808401960516808600421D16061
:102D3C008D490868013808605169002900F09180BC
:102D4C0051690124CC60D2F814C0D868D868854980
:102D5C000CF1180570B30F68002F00F0A180D1F8AA
:102D6C0004800CF11C06D8F80410DCF81C0008F1E7
:102D7C0004048842C0F2DD80D8F80C10002900F061
:102D8C00D880D1F804E030680C1D86457DDDD4F880
:102D9C0000E0DCF81C00864500F38A8099681C680A
:102DAC00CD60CCF8201001340021CCF824101C602C
:102DBC009D6001E00C68CD60002151616949D868C3
:102DCC003CB9DB68104619680122FFF779FDBDE8B4
:102DDC00F081D1F80CE04F680EF104067868DEF84B
:102DEC0004103D1D884200F3A280F968002900F010
:102DFC009E80D1F804C030680D1D84454BDDD5F89C
:102E0C0000C0DEF80400844563DC99681C68C1F8D6
:102E1C000CE0CEF8081001340021CEF80C101C6028
:102E2C00C3F808E04CB1012C6FD05C680020E1685D
:102E3C0059608860196801391960DC60C1E719684C
:102E4C0089B101296AD0D3F804C00024DCF80CE065
:102E5C000139C3F804E01960CEF80840C3F80CC07F
:102E6C0062E71C68AAE78C46C3F80CC05CE7002933
:102E7C003FF45AAFD3F804C00139DCF80CC0196028
:102E8C00C3F804C0CCF808404EE7C86800283FF4EB
:102E9C007EAF014675E7C8680028B0D00146A8E7A8
:102EAC00CCF82070CCF824700C604D608D6083E7FA
:102EBC00886800283FD07C1CC5608D60CCF824103D
:102ECC00CCF820001C6077E70021596099601960EC
:102EDC002AE78868002839D00134C0F80CE0C1F822
:102EEC0008E0CEF80C10CEF808001C609AE7002918
:102EFC003FF41AAFD3F808C00139DCF808C01960E8
:102F0C00C3F808C0CCF80C500EE700215C6899603F
:102F1C0059601968DC600139196052E7D3F804C0B4
:102F2C000021596099601960C3F80CC0FCE6394661
:102F3C0065E741462BE71C68CCF820000134CCF83F
:102F4C002480C8F808501C605D6035E71C68CEF81A
:102F5C0008000134CEF80C70C7F808E01C60C3F808
:102F6C0004E05FE7780000208800002000B51846D8
:102F7C00FFF7B8FE00BD00BF10B54CF2000340F2E5
:102F8C009804C4F20003C2F200042360FFF7D4F8E3
:102F9C0042F22803C4F20D031A68082142F0010220
:102FAC001A6044F204030022C4F20D031A6044F2C6
:102FBC008403C4F20D03196044F28003C4F20D03C0
:102FCC001A6044F20013C4F20D031A6049F2204354
:102FDC00C4F20D03196841F0030119602368196BE1
:102FEC0021F0010119634FF0FF3159649A631122EA
:102FFC005A6205229A627022DA621A6B42F44072AB
:10300C0042F001021A6330229A6310BD00B52DE91B
:10301C00F00F00F003F8BDE8F00F00BD00B581B073
:10302C00EFF3038240F2A40302F03F0201A8C2F2C4
:10303C00000340F8042D53F822306846984701B03D
:10304C0000BD00BF30B5054640F2240443F22450C5
:10305C0090B0C2F200040123C0F220002372FEF7EC
:10306C006DFF29686A460023204600F071F910AB09
:10307C001818002300F8403C6846FEF75FFF43F247
:10308C003450C0F22000FEF759FF43F23040C0F23A
:10309C002000FEF753FF0A236D46236010B030BDAD
:1030AC002DE9F04572B62F4BDFF8BCC01A681CF83E
:1030BC00010C02F118032D492D4F4FF009080D2674
:1030CC000A25002420B309282ED00A281EBFD1F8C7
:1030DC0000A00AF1010AC1F800A031D0D3F800E039
:1030EC001EF0200FFAD1BAF14F0F10600ADD1868EC
:1030FC0010F0200FFBD11660186810F0200FFBD1D8
:10310C0015600C600CF1010C1CF8010C0028DAD1D4
:10311C00184C012323721848FEF710FF1748FEF7CE
:10312C000DFF0A232360FEE7186810F0200FFBD177
:10313C000868C2F80080083008600CF1010CE3E765
:10314C00186810F0200FFBD11660186810F0200FD3
:10315C00FBD13868156001300C6038600CF1010C43
:10316C00D2E700BF98000020393520009C000020D9
:10317C00A0000020240000209834200030342000CF
:10318C0030B5104C0546236823B1DA68013ADA6091
:10319C00DA688AB1636823B15A682846DA601B6919
:1031AC009847A36823B11A7A1AB91B69284698471D
:1031BC0030BD5A68DA60F8E75A68DA601B699847DC
:1031CC00E8E700BFA40100204E4B70B41D6847F225
:1031DC000003C2F200034FF480525A6000229A603E
:1031EC00DA60EA681B6002F58052EA60D3F804C02A
:1031FC006B68002B50D00CF1005C1E680CF5E04C99
:10320C00B4450CBF1A461A4604D0D26812B11168E4
:10321C008C45FAD147F20001C2F200010C685968E2
:10322C007618B44208D0DB68002B34D0D3F800C039
:10323C00596861448C42F6D119461346BBB147F22A
:10324C000002C2F200025468D3F804C0A444C2F8CD
:10325C0004C02A68012A2DD09C68002C38D0DE6866
:10326C00002E2CD0E660DB68013A9C602A6039B1F4
:10327C0047F20003C2F200035B684A68D3184B6044
:10328C008546BFF36F8F04BC82F30388BDE8FF5FF4
:10329C0000BD70BC704713462A6812BB47F2000190
:1032AC00C2F200018A60CA606960A96001212960CC
:1032BC001146C3E700236B60AB602B60D7E7002A95
:1032CC00D5D0AB68013A9B682A60AB60DE60CEE774
:1032DC00002ACCD06B68013ADB682A606B609C607A
:1032EC00C5E7A96847F2000CC2F2000CC1F80CC08B
:1032FC00CCF8081001320021CCF80C102A60C5F86B
:10330C0008C09BE74C0000200FF2240204B42DE906
:10331C00FF5FEFF3038204B4C0F800D08D46BFF317
:10332C006F8F04BC82F30388BDE8FF5F04BC974633
:10333C00704700BF40F2B013C2F2000300221A60C3
:10334C005A609A60DA60704700B5FEF75BFE00BD0C
:10335C0070B400293BD0B1F5807F1BD9D0F800C0E8
:10336C00BCF1080F14BF00240124BCF1100F08BFDE
:10337C0044F0010484B14FF0300C02F803C0D0F8D3
:10338C0000C00133BCF1100F06D14FF0780C02F8DD
:10339C0003C00133D0F800C00C465D1CB4FBFCF438
:1033AC001E462B46002CF8D10B4C9219B1FBFCF3AA
:1033BC000CFB131C14F80C3002F80139D0F800C0C7
:1033CC00B1FBFCF10029F1D1284670BC70473021CB
:0C33DC00D154581CF9E700BF4035200018
:1033E800074B10B51A6852B9064C01221A60636877
:1033F8002BB10434984754F8043F002BFAD110BD80
:083408000400002080B5200043
:103410003030000041524D76375F4D4D553A3A619C
:103420006C6C6F632829206661696C6564210000FB
:103430000A0000005468726561643A3A70617373FF
:10344000203D3E2074687265616420280000000001
:1034500029206E6F7420726561647921000000007C
:10346000546865206C6173742074687265616420AF
:103470006861732065786974656421005265626FC4
:103480006F74696E6720746865206D616368696E2A
:1034900065202E2E2E0000004D616368696E653A2E
:1034A0003A7265626F6F742829203A2054686572F9
:1034B0006520697320616E206572726F7220696E7B
:1034C0002074686973206D6574686F642E20576975
:1034D0006C6C206A757374206C6F6F7020666F72ED
:1034E0006576657220746F2061766F696420696EFD
:1034F000745F6E6F74207370616D2E00526573750A
:103500006D652063616C6C656420666F7220756EFA
:1035100073757370656E646564206F626A65637449
:103520002100000049433A3A696E745F6E6F742857
:10353000693D00002900000050414E4943210A0026
:103540003031323334353637383961626364656619
:043550000000000077
:10B55400FFFFFFFF4D19200055192000111B20008B
:10B56400B11B2000751E20009D272000AD2820005F
:0CB57400852F2000413320000000000063
:08B58000FFFFFFFF00000000C7
:04000005002018F8C7
:020000040027D3
:0CFFD400FFFFFFF700000000000020000D
:00000001FF
